{
  "contractName": "IncroSpon",
  "abi": [
    {
      "constant": true,
      "inputs": [
        {
          "name": "",
          "type": "uint256"
        }
      ],
      "name": "campaigns",
      "outputs": [
        {
          "name": "camp_id",
          "type": "uint256"
        },
        {
          "name": "name",
          "type": "string"
        },
        {
          "name": "started_by",
          "type": "address"
        },
        {
          "name": "end_date",
          "type": "uint256"
        },
        {
          "name": "unit_goal",
          "type": "int32"
        },
        {
          "name": "unit_so_far",
          "type": "int32"
        },
        {
          "name": "wei_paid_out",
          "type": "uint256"
        },
        {
          "name": "wei_in_escrow",
          "type": "uint256"
        }
      ],
      "payable": false,
      "stateMutability": "view",
      "type": "function"
    },
    {
      "constant": true,
      "inputs": [
        {
          "name": "",
          "type": "uint256"
        }
      ],
      "name": "participants",
      "outputs": [
        {
          "name": "camp_id",
          "type": "uint256"
        },
        {
          "name": "addr_part",
          "type": "address"
        },
        {
          "name": "name_part",
          "type": "string"
        },
        {
          "name": "unit",
          "type": "int8"
        },
        {
          "name": "unit_goal",
          "type": "int32"
        },
        {
          "name": "date_start",
          "type": "uint256"
        },
        {
          "name": "date_end",
          "type": "uint256"
        }
      ],
      "payable": false,
      "stateMutability": "view",
      "type": "function"
    },
    {
      "constant": true,
      "inputs": [
        {
          "name": "",
          "type": "uint256"
        }
      ],
      "name": "eventpaylogs",
      "outputs": [
        {
          "name": "camp_id",
          "type": "uint256"
        },
        {
          "name": "addr_part",
          "type": "address"
        },
        {
          "name": "addr_spon",
          "type": "address"
        },
        {
          "name": "date_event",
          "type": "uint256"
        },
        {
          "name": "unit",
          "type": "int8"
        },
        {
          "name": "qty_unit",
          "type": "int32"
        },
        {
          "name": "wei_paid",
          "type": "uint256"
        }
      ],
      "payable": false,
      "stateMutability": "view",
      "type": "function"
    },
    {
      "constant": true,
      "inputs": [],
      "name": "owner",
      "outputs": [
        {
          "name": "",
          "type": "address"
        }
      ],
      "payable": false,
      "stateMutability": "view",
      "type": "function"
    },
    {
      "constant": true,
      "inputs": [
        {
          "name": "",
          "type": "uint256"
        }
      ],
      "name": "sponsors",
      "outputs": [
        {
          "name": "camp_id",
          "type": "uint256"
        },
        {
          "name": "addr_spon",
          "type": "address"
        },
        {
          "name": "addr_part",
          "type": "address"
        },
        {
          "name": "addr_pay_to",
          "type": "address"
        },
        {
          "name": "unit",
          "type": "int8"
        },
        {
          "name": "wei_per_unit",
          "type": "uint256"
        },
        {
          "name": "wei_in_escrow",
          "type": "uint256"
        }
      ],
      "payable": false,
      "stateMutability": "view",
      "type": "function"
    },
    {
      "constant": false,
      "inputs": [
        {
          "name": "newOwner",
          "type": "address"
        }
      ],
      "name": "transferOwnership",
      "outputs": [],
      "payable": false,
      "stateMutability": "nonpayable",
      "type": "function"
    },
    {
      "anonymous": false,
      "inputs": [
        {
          "indexed": true,
          "name": "previousOwner",
          "type": "address"
        },
        {
          "indexed": true,
          "name": "newOwner",
          "type": "address"
        }
      ],
      "name": "OwnershipTransferred",
      "type": "event"
    },
    {
      "constant": false,
      "inputs": [
        {
          "name": "x",
          "type": "uint256"
        }
      ],
      "name": "testSet",
      "outputs": [],
      "payable": false,
      "stateMutability": "nonpayable",
      "type": "function"
    },
    {
      "constant": true,
      "inputs": [],
      "name": "testGet",
      "outputs": [
        {
          "name": "",
          "type": "uint256"
        }
      ],
      "payable": false,
      "stateMutability": "view",
      "type": "function"
    },
    {
      "constant": false,
      "inputs": [],
      "name": "testPay",
      "outputs": [],
      "payable": true,
      "stateMutability": "payable",
      "type": "function"
    },
    {
      "constant": true,
      "inputs": [],
      "name": "getCampaignsLen",
      "outputs": [
        {
          "name": "",
          "type": "uint256"
        }
      ],
      "payable": false,
      "stateMutability": "view",
      "type": "function"
    },
    {
      "constant": true,
      "inputs": [
        {
          "name": "_camp_id",
          "type": "uint256"
        }
      ],
      "name": "getCampaign_rec",
      "outputs": [
        {
          "name": "",
          "type": "string"
        },
        {
          "name": "",
          "type": "address"
        },
        {
          "name": "",
          "type": "int32"
        },
        {
          "name": "",
          "type": "int32"
        },
        {
          "name": "",
          "type": "uint256"
        },
        {
          "name": "",
          "type": "uint256"
        }
      ],
      "payable": false,
      "stateMutability": "view",
      "type": "function"
    },
    {
      "constant": true,
      "inputs": [],
      "name": "getSponsorsLen",
      "outputs": [
        {
          "name": "",
          "type": "uint256"
        }
      ],
      "payable": false,
      "stateMutability": "view",
      "type": "function"
    },
    {
      "constant": true,
      "inputs": [
        {
          "name": "_camp_id",
          "type": "uint256"
        }
      ],
      "name": "getNumSponsorsForCampaign",
      "outputs": [
        {
          "name": "",
          "type": "uint256"
        }
      ],
      "payable": false,
      "stateMutability": "view",
      "type": "function"
    },
    {
      "constant": true,
      "inputs": [
        {
          "name": "_camp_id",
          "type": "uint256"
        },
        {
          "name": "_matchNum",
          "type": "uint256"
        }
      ],
      "name": "getSponsorInCampaign_rec",
      "outputs": [
        {
          "name": "",
          "type": "address"
        },
        {
          "name": "",
          "type": "address"
        },
        {
          "name": "",
          "type": "address"
        },
        {
          "name": "",
          "type": "int8"
        },
        {
          "name": "",
          "type": "uint256"
        },
        {
          "name": "",
          "type": "uint256"
        }
      ],
      "payable": false,
      "stateMutability": "view",
      "type": "function"
    },
    {
      "constant": true,
      "inputs": [],
      "name": "getParticipantsLen",
      "outputs": [
        {
          "name": "",
          "type": "uint256"
        }
      ],
      "payable": false,
      "stateMutability": "view",
      "type": "function"
    },
    {
      "constant": true,
      "inputs": [
        {
          "name": "_camp_id",
          "type": "uint256"
        }
      ],
      "name": "getNumParticipantForCampaign",
      "outputs": [
        {
          "name": "",
          "type": "uint256"
        }
      ],
      "payable": false,
      "stateMutability": "view",
      "type": "function"
    },
    {
      "constant": true,
      "inputs": [
        {
          "name": "_camp_id",
          "type": "uint256"
        },
        {
          "name": "_matchNum",
          "type": "uint256"
        }
      ],
      "name": "getParticipantInCampaign_rec",
      "outputs": [
        {
          "name": "",
          "type": "address"
        },
        {
          "name": "",
          "type": "string"
        },
        {
          "name": "",
          "type": "int8"
        },
        {
          "name": "",
          "type": "int32"
        },
        {
          "name": "",
          "type": "uint256"
        },
        {
          "name": "",
          "type": "uint256"
        }
      ],
      "payable": false,
      "stateMutability": "view",
      "type": "function"
    },
    {
      "constant": true,
      "inputs": [
        {
          "name": "_addr_part",
          "type": "address"
        }
      ],
      "name": "getNumCampaignForParticipant",
      "outputs": [
        {
          "name": "",
          "type": "uint256"
        }
      ],
      "payable": false,
      "stateMutability": "view",
      "type": "function"
    },
    {
      "constant": true,
      "inputs": [
        {
          "name": "_addr_part",
          "type": "address"
        },
        {
          "name": "_matchNum",
          "type": "uint256"
        }
      ],
      "name": "getParticipantForParticipant_rec",
      "outputs": [
        {
          "name": "",
          "type": "address"
        },
        {
          "name": "",
          "type": "string"
        },
        {
          "name": "",
          "type": "int8"
        },
        {
          "name": "",
          "type": "int32"
        },
        {
          "name": "",
          "type": "uint256"
        },
        {
          "name": "",
          "type": "uint256"
        }
      ],
      "payable": false,
      "stateMutability": "view",
      "type": "function"
    },
    {
      "constant": true,
      "inputs": [],
      "name": "getEventPayLogsLen",
      "outputs": [
        {
          "name": "",
          "type": "uint256"
        }
      ],
      "payable": false,
      "stateMutability": "view",
      "type": "function"
    },
    {
      "constant": true,
      "inputs": [
        {
          "name": "_campID",
          "type": "uint256"
        }
      ],
      "name": "getNumEventPayLogsForCampaign",
      "outputs": [
        {
          "name": "",
          "type": "uint256"
        }
      ],
      "payable": false,
      "stateMutability": "view",
      "type": "function"
    },
    {
      "constant": true,
      "inputs": [
        {
          "name": "_camp_id",
          "type": "uint256"
        },
        {
          "name": "_matchNum",
          "type": "uint256"
        }
      ],
      "name": "getEventPayLogsInCampaign_rec",
      "outputs": [
        {
          "name": "",
          "type": "address"
        },
        {
          "name": "",
          "type": "address"
        },
        {
          "name": "",
          "type": "uint256"
        },
        {
          "name": "",
          "type": "int8"
        },
        {
          "name": "",
          "type": "int32"
        },
        {
          "name": "",
          "type": "uint256"
        }
      ],
      "payable": false,
      "stateMutability": "view",
      "type": "function"
    },
    {
      "constant": false,
      "inputs": [
        {
          "name": "_name",
          "type": "string"
        },
        {
          "name": "_started_by",
          "type": "address"
        },
        {
          "name": "_end_date",
          "type": "uint256"
        }
      ],
      "name": "setCampaign_rec",
      "outputs": [
        {
          "name": "",
          "type": "uint256"
        }
      ],
      "payable": false,
      "stateMutability": "nonpayable",
      "type": "function"
    }
  ],
  "bytecode": "0x6080604052336000806101000a81548173ffffffffffffffffffffffffffffffffffffffff021916908373ffffffffffffffffffffffffffffffffffffffff1602179055506123c5806100536000396000f300608060405260043610610133576000357c0100000000000000000000000000000000000000000000000000000000900463ffffffff168063141961bc1461013857806335c1d349146102475780633d6307ce1461034f5780634235d3131461037a5780634a1cb28a146103d15780634dea3609146104c9578063522d8d89146105985780635d91bb82146106b95780636b0f3675146106e45780636dfd5a97146107255780638824eba7146107505780638da5cb5b1461077b5780638deb0a3d146107d257806393066b4c146108135780639720b17c14610908578063a52f0994146109da578063aa4532a814610a53578063d8c12e0b14610a94578063e896958714610abf578063f2fde38b14610bca578063f8c49dfe14610c0d578063fae3993014610d0e578063fb70bc4914610d3b575b600080fd5b34801561014457600080fd5b5061016360048036038101908080359060200190929190505050610d45565b60405180898152602001806020018873ffffffffffffffffffffffffffffffffffffffff1673ffffffffffffffffffffffffffffffffffffffff1681526020018781526020018660030b60030b81526020018560030b60030b8152602001848152602001838152602001828103825289818151815260200191508051906020019080838360005b838110156102055780820151818401526020810190506101ea565b50505050905090810190601f1680156102325780820380516001836020036101000a031916815260200191505b50995050505050505050505060405180910390f35b34801561025357600080fd5b5061027260048036038101908080359060200190929190505050610e6e565b604051808881526020018773ffffffffffffffffffffffffffffffffffffffff1673ffffffffffffffffffffffffffffffffffffffff168152602001806020018660000b60000b81526020018560030b60030b8152602001848152602001838152602001828103825287818151815260200191508051906020019080838360005b8381101561030e5780820151818401526020810190506102f3565b50505050905090810190601f16801561033b5780820380516001836020036101000a031916815260200191505b509850505050505050505060405180910390f35b34801561035b57600080fd5b50610364610f91565b6040518082815260200191505060405180910390f35b34801561038657600080fd5b506103bb600480360381019080803573ffffffffffffffffffffffffffffffffffffffff169060200190929190505050610f9e565b6040518082815260200191505060405180910390f35b3480156103dd57600080fd5b50610406600480360381019080803590602001909291908035906020019092919050505061104d565b604051808773ffffffffffffffffffffffffffffffffffffffff1673ffffffffffffffffffffffffffffffffffffffff1681526020018673ffffffffffffffffffffffffffffffffffffffff1673ffffffffffffffffffffffffffffffffffffffff1681526020018573ffffffffffffffffffffffffffffffffffffffff1673ffffffffffffffffffffffffffffffffffffffff1681526020018460000b60000b8152602001838152602001828152602001965050505050505060405180910390f35b3480156104d557600080fd5b506104f460048036038101908080359060200190929190505050611277565b604051808881526020018773ffffffffffffffffffffffffffffffffffffffff1673ffffffffffffffffffffffffffffffffffffffff1681526020018673ffffffffffffffffffffffffffffffffffffffff1673ffffffffffffffffffffffffffffffffffffffff1681526020018581526020018460000b60000b81526020018360030b60030b815260200182815260200197505050505050505060405180910390f35b3480156105a457600080fd5b506105e3600480360381019080803573ffffffffffffffffffffffffffffffffffffffff16906020019092919080359060200190929190505050611322565b604051808773ffffffffffffffffffffffffffffffffffffffff1673ffffffffffffffffffffffffffffffffffffffff168152602001806020018660000b60000b81526020018560030b60030b8152602001848152602001838152602001828103825287818151815260200191508051906020019080838360005b8381101561067957808201518184015260208101905061065e565b50505050905090810190601f1680156106a65780820380516001836020036101000a031916815260200191505b5097505050505050505060405180910390f35b3480156106c557600080fd5b506106ce61159a565b6040518082815260200191505060405180910390f35b3480156106f057600080fd5b5061070f600480360381019080803590602001909291905050506115a7565b6040518082815260200191505060405180910390f35b34801561073157600080fd5b5061073a61161f565b6040518082815260200191505060405180910390f35b34801561075c57600080fd5b5061076561162c565b6040518082815260200191505060405180910390f35b34801561078757600080fd5b50610790611636565b604051808273ffffffffffffffffffffffffffffffffffffffff1673ffffffffffffffffffffffffffffffffffffffff16815260200191505060405180910390f35b3480156107de57600080fd5b506107fd6004803603810190808035906020019092919050505061165b565b6040518082815260200191505060405180910390f35b34801561081f57600080fd5b5061083e600480360381019080803590602001909291905050506116d3565b604051808881526020018773ffffffffffffffffffffffffffffffffffffffff1673ffffffffffffffffffffffffffffffffffffffff1681526020018673ffffffffffffffffffffffffffffffffffffffff1673ffffffffffffffffffffffffffffffffffffffff1681526020018573ffffffffffffffffffffffffffffffffffffffff1673ffffffffffffffffffffffffffffffffffffffff1681526020018460000b60000b815260200183815260200182815260200197505050505050505060405180910390f35b34801561091457600080fd5b5061093d6004803603810190808035906020019092919080359060200190929190505050611791565b604051808773ffffffffffffffffffffffffffffffffffffffff1673ffffffffffffffffffffffffffffffffffffffff1681526020018673ffffffffffffffffffffffffffffffffffffffff1673ffffffffffffffffffffffffffffffffffffffff1681526020018581526020018460000b60000b81526020018360030b60030b8152602001828152602001965050505050505060405180910390f35b3480156109e657600080fd5b50610a3d600480360381019080803590602001908201803590602001919091929391929390803573ffffffffffffffffffffffffffffffffffffffff16906020019092919080359060200190929190505050611982565b6040518082815260200191505060405180910390f35b348015610a5f57600080fd5b50610a7e60048036038101908080359060200190929190505050611b49565b6040518082815260200191505060405180910390f35b348015610aa057600080fd5b50610aa9611bc1565b6040518082815260200191505060405180910390f35b348015610acb57600080fd5b50610af46004803603810190808035906020019092919080359060200190929190505050611bce565b604051808773ffffffffffffffffffffffffffffffffffffffff1673ffffffffffffffffffffffffffffffffffffffff168152602001806020018660000b60000b81526020018560030b60030b8152602001848152602001838152602001828103825287818151815260200191508051906020019080838360005b83811015610b8a578082015181840152602081019050610b6f565b50505050905090810190601f168015610bb75780820380516001836020036101000a031916815260200191505b5097505050505050505060405180910390f35b348015610bd657600080fd5b50610c0b600480360381019080803573ffffffffffffffffffffffffffffffffffffffff169060200190929190505050611e0f565b005b348015610c1957600080fd5b50610c3860048036038101908080359060200190929190505050611f64565b60405180806020018773ffffffffffffffffffffffffffffffffffffffff1673ffffffffffffffffffffffffffffffffffffffff1681526020018660030b60030b81526020018560030b60030b8152602001848152602001838152602001828103825288818151815260200191508051906020019080838360005b83811015610cce578082015181840152602081019050610cb3565b50505050905090810190601f168015610cfb5780820380516001836020036101000a031916815260200191505b5097505050505050505060405180910390f35b348015610d1a57600080fd5b50610d3960048036038101908080359060200190929190505050612133565b005b610d4361213d565b005b600281815481101515610d5457fe5b9060005260206000209060070201600091509050806000015490806001018054600181600116156101000203166002900480601f016020809104026020016040519081016040528092919081815260200182805460018160011615610100020316600290048015610e065780601f10610ddb57610100808354040283529160200191610e06565b820191906000526020600020905b815481529060010190602001808311610de957829003601f168201915b5050505050908060020160009054906101000a900473ffffffffffffffffffffffffffffffffffffffff16908060030154908060040160009054906101000a900460030b908060040160049054906101000a900460030b908060050154908060060154905088565b600481815481101515610e7d57fe5b90600052602060002090600602016000915090508060000154908060010160009054906101000a900473ffffffffffffffffffffffffffffffffffffffff1690806002018054600181600116156101000203166002900480601f016020809104026020016040519081016040528092919081815260200182805460018160011615610100020316600290048015610f555780601f10610f2a57610100808354040283529160200191610f55565b820191906000526020600020905b815481529060010190602001808311610f3857829003601f168201915b5050505050908060030160009054906101000a900460000b908060030160019054906101000a900460030b908060040154908060050154905087565b6000600280549050905090565b6000806000809150600090505b60048054905081111515611043578373ffffffffffffffffffffffffffffffffffffffff16600482815481101515610fdf57fe5b906000526020600020906006020160010160009054906101000a900473ffffffffffffffffffffffffffffffffffffffff1673ffffffffffffffffffffffffffffffffffffffff1614156110365781806001019250505b8080600101915050610fab565b8192505050919050565b6000806000806000806000611060612148565b60006002805490508b1115151561107657600080fd5b60009250600090505b60038054905081111515611240578a60038281548110151561109d57fe5b9060005260206000209060060201600001541415611233578280600101935050898314156112325760038b8154811015156110d457fe5b906000526020600020906006020160e06040519081016040529081600082015481526020016001820160009054906101000a900473ffffffffffffffffffffffffffffffffffffffff1673ffffffffffffffffffffffffffffffffffffffff1673ffffffffffffffffffffffffffffffffffffffff1681526020016002820160009054906101000a900473ffffffffffffffffffffffffffffffffffffffff1673ffffffffffffffffffffffffffffffffffffffff1673ffffffffffffffffffffffffffffffffffffffff1681526020016003820160009054906101000a900473ffffffffffffffffffffffffffffffffffffffff1673ffffffffffffffffffffffffffffffffffffffff1673ffffffffffffffffffffffffffffffffffffffff1681526020016003820160149054906101000a900460000b60000b60000b8152602001600482015481526020016005820154815250509150611240565b5b808060010191505061107f565b81602001518260400151836060015184608001518560a001518660c001519850985098509850985098505050509295509295509295565b60058181548110151561128657fe5b90600052602060002090600602016000915090508060000154908060010160009054906101000a900473ffffffffffffffffffffffffffffffffffffffff16908060020160009054906101000a900473ffffffffffffffffffffffffffffffffffffffff16908060030154908060040160009054906101000a900460000b908060040160019054906101000a900460030b908060050154905087565b6000606060008060008060006113366121ca565b6000809250600090505b60048054905081111515611560578a73ffffffffffffffffffffffffffffffffffffffff1660048281548110151561137457fe5b906000526020600020906006020160010160009054906101000a900473ffffffffffffffffffffffffffffffffffffffff1673ffffffffffffffffffffffffffffffffffffffff16141561155357828060010193505089831415611552576004818154811015156113e157fe5b906000526020600020906006020160e06040519081016040529081600082015481526020016001820160009054906101000a900473ffffffffffffffffffffffffffffffffffffffff1673ffffffffffffffffffffffffffffffffffffffff1673ffffffffffffffffffffffffffffffffffffffff168152602001600282018054600181600116156101000203166002900480601f0160208091040260200160405190810160405280929190818152602001828054600181600116156101000203166002900480156114f45780601f106114c9576101008083540402835291602001916114f4565b820191906000526020600020905b8154815290600101906020018083116114d757829003601f168201915b505050505081526020016003820160009054906101000a900460000b60000b60000b81526020016003820160019054906101000a900460030b60030b60030b8152602001600482015481526020016005820154815250509150611560565b5b8080600101915050611340565b81602001518260400151836060015184608001518560a001518660c001518494509850985098509850985098505050509295509295509295565b6000600480549050905090565b600080600060028054905084111515156115c057600080fd5b60009150600090505b6004805490508111151561161557836004828154811015156115e757fe5b90600052602060002090600602016000015414156116085781806001019250505b80806001019150506115c9565b8192505050919050565b6000600380549050905090565b6000600154905090565b6000809054906101000a900473ffffffffffffffffffffffffffffffffffffffff1681565b6000806000600280549050841115151561167457600080fd5b60009150600090505b600580549050811115156116c9578360058281548110151561169b57fe5b90600052602060002090600602016000015414156116bc5781806001019250505b808060010191505061167d565b8192505050919050565b6003818154811015156116e257fe5b90600052602060002090600602016000915090508060000154908060010160009054906101000a900473ffffffffffffffffffffffffffffffffffffffff16908060020160009054906101000a900473ffffffffffffffffffffffffffffffffffffffff16908060030160009054906101000a900473ffffffffffffffffffffffffffffffffffffffff16908060030160149054906101000a900460000b908060040154908060050154905087565b60008060008060008060006117a4612223565b60006002805490508b111515156117ba57600080fd5b60009250600090505b6004805490508111151561194b578a6005828154811015156117e157fe5b906000526020600020906006020160000154141561193e5782806001019350508983141561193d5760058b81548110151561181857fe5b906000526020600020906006020160e06040519081016040529081600082015481526020016001820160009054906101000a900473ffffffffffffffffffffffffffffffffffffffff1673ffffffffffffffffffffffffffffffffffffffff1673ffffffffffffffffffffffffffffffffffffffff1681526020016002820160009054906101000a900473ffffffffffffffffffffffffffffffffffffffff1673ffffffffffffffffffffffffffffffffffffffff1673ffffffffffffffffffffffffffffffffffffffff168152602001600382015481526020016004820160009054906101000a900460000b60000b60000b81526020016004820160019054906101000a900460030b60030b60030b8152602001600582015481525050915061194b565b5b80806001019150506117c3565b81602001518260400151836060015184608001518560a001518660c001519850985098509850985098505050509295509295509295565b6000806000806000806002805490509450600093506000925060009150600090506002610100604051908101604052808781526020018c8c8080601f01602080910402602001604051908101604052809392919081815260200183838082843782019150505050505081526020018a73ffffffffffffffffffffffffffffffffffffffff1681526020018981526020018660030b81526020018560030b81526020018481526020018381525090806001815401808255809150509060018203906000526020600020906007020160009091929091909150600082015181600001556020820151816001019080519060200190611a7f929190612292565b5060408201518160020160006101000a81548173ffffffffffffffffffffffffffffffffffffffff021916908373ffffffffffffffffffffffffffffffffffffffff1602179055506060820151816003015560808201518160040160006101000a81548163ffffffff021916908360030b63ffffffff16021790555060a08201518160040160046101000a81548163ffffffff021916908360030b63ffffffff16021790555060c0820151816005015560e082015181600601555050505050505050949350505050565b60008060006002805490508411151515611b6257600080fd5b60009150600090505b60038054905081111515611bb75783600382815481101515611b8957fe5b9060005260206000209060060201600001541415611baa5781806001019250505b8080600101915050611b6b565b8192505050919050565b6000600580549050905090565b600060606000806000806000611be26121ca565b60006002805490508b11151515611bf857600080fd5b60009250600090505b60048054905081111515611dd5578a600482815481101515611c1f57fe5b9060005260206000209060060201600001541415611dc857828060010193505089831415611dc75760048b815481101515611c5657fe5b906000526020600020906006020160e06040519081016040529081600082015481526020016001820160009054906101000a900473ffffffffffffffffffffffffffffffffffffffff1673ffffffffffffffffffffffffffffffffffffffff1673ffffffffffffffffffffffffffffffffffffffff168152602001600282018054600181600116156101000203166002900480601f016020809104026020016040519081016040528092919081815260200182805460018160011615610100020316600290048015611d695780601f10611d3e57610100808354040283529160200191611d69565b820191906000526020600020905b815481529060010190602001808311611d4c57829003601f168201915b505050505081526020016003820160009054906101000a900460000b60000b60000b81526020016003820160019054906101000a900460030b60030b60030b8152602001600482015481526020016005820154815250509150611dd5565b5b8080600101915050611c01565b81602001518260400151836060015184608001518560a001518660c001518494509850985098509850985098505050509295509295509295565b6000809054906101000a900473ffffffffffffffffffffffffffffffffffffffff1673ffffffffffffffffffffffffffffffffffffffff163373ffffffffffffffffffffffffffffffffffffffff16141515611e6a57600080fd5b600073ffffffffffffffffffffffffffffffffffffffff168173ffffffffffffffffffffffffffffffffffffffff1614151515611ea657600080fd5b8073ffffffffffffffffffffffffffffffffffffffff166000809054906101000a900473ffffffffffffffffffffffffffffffffffffffff1673ffffffffffffffffffffffffffffffffffffffff167f8be0079c531659141344cd1fd0a4f28419497f9722a3daafe3b4186f6b6457e060405160405180910390a3806000806101000a81548173ffffffffffffffffffffffffffffffffffffffff021916908373ffffffffffffffffffffffffffffffffffffffff16021790555050565b60606000806000806000611f76612312565b600288815481101515611f8557fe5b9060005260206000209060070201610100604051908101604052908160008201548152602001600182018054600181600116156101000203166002900480601f0160208091040260200160405190810160405280929190818152602001828054600181600116156101000203166002900480156120435780601f1061201857610100808354040283529160200191612043565b820191906000526020600020905b81548152906001019060200180831161202657829003601f168201915b505050505081526020016002820160009054906101000a900473ffffffffffffffffffffffffffffffffffffffff1673ffffffffffffffffffffffffffffffffffffffff1673ffffffffffffffffffffffffffffffffffffffff168152602001600382015481526020016004820160009054906101000a900460030b60030b60030b81526020016004820160049054906101000a900460030b60030b60030b81526020016005820154815260200160068201548152505090508060200151816040015182608001518360a001518460c001518560e001518595509650965096509650965096505091939550919395565b8060018190555050565b600154600181905550565b60e06040519081016040528060008152602001600073ffffffffffffffffffffffffffffffffffffffff168152602001600073ffffffffffffffffffffffffffffffffffffffff168152602001600073ffffffffffffffffffffffffffffffffffffffff1681526020016000800b815260200160008152602001600081525090565b60e06040519081016040528060008152602001600073ffffffffffffffffffffffffffffffffffffffff168152602001606081526020016000800b8152602001600060030b815260200160008152602001600081525090565b60e06040519081016040528060008152602001600073ffffffffffffffffffffffffffffffffffffffff168152602001600073ffffffffffffffffffffffffffffffffffffffff168152602001600081526020016000800b8152602001600060030b8152602001600081525090565b828054600181600116156101000203166002900490600052602060002090601f016020900481019282601f106122d357805160ff1916838001178555612301565b82800160010185558215612301579182015b828111156123005782518255916020019190600101906122e5565b5b50905061230e9190612374565b5090565b610100604051908101604052806000815260200160608152602001600073ffffffffffffffffffffffffffffffffffffffff16815260200160008152602001600060030b8152602001600060030b815260200160008152602001600081525090565b61239691905b8082111561239257600081600090555060010161237a565b5090565b905600a165627a7a723058207b4fe6e7042776d4dc2e0c8a61d4ea6b6c5905d1000b9a30411d66be57ef51c40029",
  "source": "pragma solidity ^0.4.17;\n\nimport \"zeppelin-solidity/contracts/ownership/Ownable.sol\";\n\ncontract IncroSpon is Ownable{ \n    //string public name = 'Incro-Sponsor';\n    uint storedData;\n\n    Campaign[] public campaigns;\n    Sponsor[] public sponsors;\n    Participant[] public participants;\n    EventPayLog[] public eventpaylogs;\n\n    struct Campaign {\n        uint256 camp_id;        // 1\n        string name;            // 2  -- w\n        address started_by;     // 3  -- w\n        uint256 end_date;       // 4  -- w\n        int32 unit_goal;        // 5  \n        int32 unit_so_far;      // 6  \n        uint256 wei_paid_out;   // 7  \n        uint256 wei_in_escrow;  // 8  \n    }\n\n    struct Sponsor {\n        uint256 camp_id;        // 1\n        address addr_spon;      // 2\n        address addr_part;      // 3\n        address addr_pay_to;    // 4\n        int8 unit;              // 5\n        uint256 wei_per_unit;   // 6\n        uint256 wei_in_escrow;  // 7\n    }\n\n    struct Participant {\n        uint256 camp_id;        // 1\n        address addr_part;      // 2\n        string name_part;       // 3\n        int8 unit;              // 4\n        int32 unit_goal;        // 5\n        uint256 date_start;     // 6\n        uint256 date_end;       // 7\n    }\n\n    struct EventPayLog {\n        uint256 camp_id;        // 1\n        address addr_part;      // 2\n        address addr_spon;      // 3\n        uint256 date_event;     // 4\n        int8 unit;              // 5\n        int32 qty_unit;         // 6\n        uint256 wei_paid;       // 7\n    }\n\n\n    function testSet(uint x) public {\n        storedData = x;\n        // campaigns.push(Campaign(0,\"testSet push\", 0, 0, 0, 0, 0, 0));\n   }\n\n    function testGet() public view returns (uint) {\n        return storedData;\n    }\n\n    function testPay() public payable {\n        storedData = storedData;\n    }\n\n    function getCampaignsLen() view external returns(uint256){\n        return campaigns.length;\n    }\n\n\n    function getCampaign_rec( uint256 _camp_id ) public view returns(\n    string, address, int32, int32, uint256, uint256 \n    ) {\n        // require(_camp_id < campaigns.length);\n        Campaign memory cr = campaigns[_camp_id];\n        return ( cr.name, cr.started_by, cr.unit_goal, cr.unit_so_far, cr.wei_paid_out, cr.wei_in_escrow );\n    }\n\n\n    function getSponsorsLen() view external returns(uint256){\n        return sponsors.length;\n    }\n\n\n    //this function will return how many sponsors for a campaign\n    function getNumSponsorsForCampaign( uint256 _camp_id ) public view returns( uint256 )  {\n        require(_camp_id <= campaigns.length);\n        uint256 numMatches = 0;\n        for(uint256 i = 0; i<=sponsors.length; i++)\n        {\n            if (sponsors[i].camp_id == _camp_id )  numMatches++;\n        }  \n        return numMatches;        \n    }\n\n\n    function getSponsorInCampaign_rec( uint256 _camp_id, uint256 _matchNum ) \n    public view returns( address, address, address, int8, uint256, uint256 ) {\n        //this will return a matching record for a sponsor, which is the _matchNum\n        // can find out the number of matching items by running the getNum function\n        require(_camp_id <= campaigns.length);\n        uint256 numMatches = 0;\n        Sponsor memory sr;\n        //maybe make this a while loop so that can exit if no match\n        for(uint256 i = 0; i <= sponsors.length; i++)\n        {\n            if (sponsors[i].camp_id == _camp_id )  {\n                numMatches++;\n                if (numMatches == _matchNum) {\n                    sr = sponsors[_camp_id];\n                    break;\n                }\n            }\n        }    \n        return ( sr.addr_spon, sr.addr_part, sr.addr_pay_to, sr.unit, sr.wei_per_unit, sr.wei_in_escrow );\n    }\n    \n\n    function getParticipantsLen() view external returns(uint256){\n        return participants.length;\n    }\n\n\n    function getNumParticipantForCampaign( uint256 _camp_id ) public view returns( uint256 )  {\n        //this function will return how many participants for a campaign\n        require(_camp_id <= campaigns.length);\n        uint256 numMatches = 0;\n        for(uint256 i = 0; i<=participants.length; i++)\n        {\n            if (participants[i].camp_id == _camp_id )  numMatches++;\n        }  \n        return numMatches;        \n    }\n\n\n    function getParticipantInCampaign_rec( uint256 _camp_id, uint256 _matchNum ) \n    public view returns(  address, string, int8, int32, uint256, uint256 ) {\n        //this will return a matching record for a participant, which is the _matchNum\n        // can find out the number of matching items by running the getNum function\n        require(_camp_id <= campaigns.length);\n        uint256 numMatches = 0;\n        Participant memory pr;\n        for(uint256 i = 0; i <= participants.length; i++)\n        {\n            if (participants[i].camp_id == _camp_id )  {\n                numMatches++;\n                if (numMatches == _matchNum) {\n                    pr = participants[_camp_id];\n                    break;\n                }\n            }\n        }    \n        return ( pr.addr_part, pr.name_part, pr.unit, pr.unit_goal, pr.date_start, pr.date_end );\n    }\n\n\n    //the next two functions are needed when a participant is starting a \n    function getNumCampaignForParticipant( address _addr_part ) \n    public view returns( uint256 ) {\n        //for a given the participant who has called this, find out\n        //how many campaigns he is in\n        uint256 numMatches = 0;\n        for(uint256 i = 0; i<=participants.length; i++)\n        {\n            if (participants[i].addr_part == _addr_part )  numMatches++;\n        }  \n        return ( numMatches );\n    }\n\n\n    function getParticipantForParticipant_rec( address _addr_part, uint256 _matchNum ) \n    public view returns(  address, string, int8, int32, uint256, uint256 ) {\n        //this will return a matching record for a matching part addr, which is the _matchNum\n        // can find out the number of matching items by running the getNum function\n        uint256 numMatches = 0;\n        Participant memory pr;\n        for(uint256 i = 0; i <= participants.length; i++)\n        {\n            if (participants[i].addr_part == _addr_part )  {\n                numMatches++;\n                if (numMatches == _matchNum) {\n                    pr = participants[i];\n                    break;\n                }\n            }\n        }    \n        return ( pr.addr_part, pr.name_part, pr.unit, pr.unit_goal, pr.date_start, pr.date_end );\n    }  //get particpant record that matches the participant\n\n\n    function getEventPayLogsLen() view external returns(uint256){\n        return eventpaylogs.length;\n    }\n\n\n    function getNumEventPayLogsForCampaign( uint256 _campID ) public view returns( uint256 )  {\n        //get number of matching event records for a campaign\n        require(_campID <= campaigns.length);\n        uint256 numMatches = 0;\n        for(uint256 i = 0; i <= eventpaylogs.length; i++)\n        {\n            if ( eventpaylogs[i].camp_id == _campID )  numMatches++;\n        }  \n        return numMatches;        \n    }\n\n\n    function getEventPayLogsInCampaign_rec( uint256 _camp_id, uint256 _matchNum ) \n    public view returns( address, address, uint256, int8, int32, uint256 ) {\n        //this will return a matching record for a participant, which is the _matchNum\n        // can find out the number of matching items by running the getNum function\n        require(_camp_id <= campaigns.length);\n        uint256 numMatches = 0;\n        EventPayLog memory er;\n        for(uint256 i = 0; i <= participants.length; i++)\n        {\n            if (eventpaylogs[i].camp_id == _camp_id )  {\n                numMatches++;\n                if (numMatches == _matchNum) {\n                    er = eventpaylogs[_camp_id];\n                    break;\n                }\n            }\n        }    \n        return ( er.addr_part, er.addr_spon, er.date_event, er.unit, er.qty_unit, er.wei_paid );\n    }\n\n\n    //functions to write to the contract\n    function setCampaign_rec(string _name, address _started_by, uint256 _end_date) external returns (uint256) {\n        uint256 _camp_id = campaigns.length;\n        //campaigns.length += 1;\n        int32 _unit_goal = 0;\n        int32 _unit_so_far = 0;     \n        uint256 _wei_paid_out = 0; \n        uint256 _wei_in_escrow = 0;\n\n        //push did not work, maybe try mapping next time\n        // campaigns[_camp_id].camp_id = _camp_id;\n        // campaigns[_camp_id].name = _name;\n        // campaigns[_camp_id].started_by = _started_by;\n        // campaigns[_camp_id].end_date = _end_date;\n        // campaigns[_camp_id].unit_goal = _unit_goal;\n        // campaigns[_camp_id].unit_so_far = _unit_so_far;\n        // campaigns[_camp_id].wei_paid_out = _wei_paid_out;\n        // campaigns[_camp_id].wei_in_escrow = _wei_in_escrow;\n        \n        campaigns.push(Campaign(_camp_id, _name, _started_by, _end_date, _unit_goal, _unit_so_far, _wei_paid_out, _wei_in_escrow));\n    }\n}\n\n\n",
  "sourcePath": "/Users/richardbudek/Documents/Data/Proj-Blockchain/git_location/IncroSpon/contracts/IncroSpon.sol",
  "compiler": {
    "name": "solc",
    "version": "0.4.24+commit.e67f0147.Emscripten.clang"
  },
  "schemaVersion": "2.0.0",
  "updatedAt": "2018-06-04T07:37:23.270Z"
}