{
  "contractName": "IncroSpon",
  "abi": [
    {
      "constant": true,
      "inputs": [
        {
          "name": "",
          "type": "uint256"
        }
      ],
      "name": "campaigns",
      "outputs": [
        {
          "name": "camp_id",
          "type": "uint256"
        },
        {
          "name": "name",
          "type": "string"
        },
        {
          "name": "started_by",
          "type": "address"
        },
        {
          "name": "end_date",
          "type": "uint256"
        },
        {
          "name": "unit_goal",
          "type": "int32"
        },
        {
          "name": "unit_so_far",
          "type": "int32"
        },
        {
          "name": "wei_paid_out",
          "type": "uint256"
        },
        {
          "name": "wei_in_escrow",
          "type": "uint256"
        }
      ],
      "payable": false,
      "stateMutability": "view",
      "type": "function"
    },
    {
      "constant": true,
      "inputs": [
        {
          "name": "",
          "type": "uint256"
        }
      ],
      "name": "participants",
      "outputs": [
        {
          "name": "camp_id",
          "type": "uint256"
        },
        {
          "name": "addr_part",
          "type": "address"
        },
        {
          "name": "name_part",
          "type": "string"
        },
        {
          "name": "unit",
          "type": "int8"
        },
        {
          "name": "unit_goal",
          "type": "int32"
        },
        {
          "name": "date_start",
          "type": "uint256"
        },
        {
          "name": "date_end",
          "type": "uint256"
        }
      ],
      "payable": false,
      "stateMutability": "view",
      "type": "function"
    },
    {
      "constant": true,
      "inputs": [
        {
          "name": "",
          "type": "uint256"
        }
      ],
      "name": "eventpaylogs",
      "outputs": [
        {
          "name": "camp_id",
          "type": "uint256"
        },
        {
          "name": "addr_part",
          "type": "address"
        },
        {
          "name": "addr_spon",
          "type": "address"
        },
        {
          "name": "date_event",
          "type": "uint256"
        },
        {
          "name": "unit",
          "type": "int8"
        },
        {
          "name": "qty_unit",
          "type": "int32"
        },
        {
          "name": "wei_paid",
          "type": "uint256"
        }
      ],
      "payable": false,
      "stateMutability": "view",
      "type": "function"
    },
    {
      "constant": true,
      "inputs": [],
      "name": "owner",
      "outputs": [
        {
          "name": "",
          "type": "address"
        }
      ],
      "payable": false,
      "stateMutability": "view",
      "type": "function"
    },
    {
      "constant": true,
      "inputs": [
        {
          "name": "",
          "type": "uint256"
        }
      ],
      "name": "sponsors",
      "outputs": [
        {
          "name": "camp_id",
          "type": "uint256"
        },
        {
          "name": "addr_spon",
          "type": "address"
        },
        {
          "name": "addr_part",
          "type": "address"
        },
        {
          "name": "addr_pay_to",
          "type": "address"
        },
        {
          "name": "unit",
          "type": "int8"
        },
        {
          "name": "wei_per_unit",
          "type": "uint256"
        },
        {
          "name": "wei_in_escrow",
          "type": "uint256"
        }
      ],
      "payable": false,
      "stateMutability": "view",
      "type": "function"
    },
    {
      "constant": false,
      "inputs": [
        {
          "name": "newOwner",
          "type": "address"
        }
      ],
      "name": "transferOwnership",
      "outputs": [],
      "payable": false,
      "stateMutability": "nonpayable",
      "type": "function"
    },
    {
      "anonymous": false,
      "inputs": [
        {
          "indexed": true,
          "name": "previousOwner",
          "type": "address"
        },
        {
          "indexed": true,
          "name": "newOwner",
          "type": "address"
        }
      ],
      "name": "OwnershipTransferred",
      "type": "event"
    },
    {
      "constant": false,
      "inputs": [
        {
          "name": "x",
          "type": "uint256"
        }
      ],
      "name": "testSet",
      "outputs": [],
      "payable": false,
      "stateMutability": "nonpayable",
      "type": "function"
    },
    {
      "constant": true,
      "inputs": [],
      "name": "testGet",
      "outputs": [
        {
          "name": "",
          "type": "uint256"
        }
      ],
      "payable": false,
      "stateMutability": "view",
      "type": "function"
    },
    {
      "constant": false,
      "inputs": [],
      "name": "testPay",
      "outputs": [],
      "payable": true,
      "stateMutability": "payable",
      "type": "function"
    },
    {
      "constant": false,
      "inputs": [
        {
          "name": "amount",
          "type": "uint256"
        }
      ],
      "name": "deposit",
      "outputs": [],
      "payable": true,
      "stateMutability": "payable",
      "type": "function"
    },
    {
      "constant": true,
      "inputs": [],
      "name": "getBalance",
      "outputs": [
        {
          "name": "",
          "type": "uint256"
        }
      ],
      "payable": false,
      "stateMutability": "view",
      "type": "function"
    },
    {
      "constant": false,
      "inputs": [],
      "name": "withdraw",
      "outputs": [],
      "payable": false,
      "stateMutability": "nonpayable",
      "type": "function"
    },
    {
      "constant": true,
      "inputs": [],
      "name": "getCampaignsLen",
      "outputs": [
        {
          "name": "",
          "type": "uint256"
        }
      ],
      "payable": false,
      "stateMutability": "view",
      "type": "function"
    },
    {
      "constant": true,
      "inputs": [
        {
          "name": "_camp_id",
          "type": "uint256"
        }
      ],
      "name": "getCampaign_rec",
      "outputs": [
        {
          "name": "",
          "type": "string"
        },
        {
          "name": "",
          "type": "address"
        },
        {
          "name": "",
          "type": "uint256"
        },
        {
          "name": "",
          "type": "int32"
        },
        {
          "name": "",
          "type": "int32"
        },
        {
          "name": "",
          "type": "uint256"
        },
        {
          "name": "",
          "type": "uint256"
        }
      ],
      "payable": false,
      "stateMutability": "view",
      "type": "function"
    },
    {
      "constant": true,
      "inputs": [
        {
          "name": "_camp_id",
          "type": "uint256"
        }
      ],
      "name": "getCampaignBal_rec",
      "outputs": [
        {
          "name": "",
          "type": "string"
        },
        {
          "name": "",
          "type": "address"
        },
        {
          "name": "",
          "type": "uint256"
        },
        {
          "name": "",
          "type": "int32"
        },
        {
          "name": "",
          "type": "int32"
        },
        {
          "name": "",
          "type": "uint256"
        },
        {
          "name": "",
          "type": "uint256"
        }
      ],
      "payable": false,
      "stateMutability": "view",
      "type": "function"
    },
    {
      "constant": true,
      "inputs": [],
      "name": "getSponsorsLen",
      "outputs": [
        {
          "name": "",
          "type": "uint256"
        }
      ],
      "payable": false,
      "stateMutability": "view",
      "type": "function"
    },
    {
      "constant": true,
      "inputs": [
        {
          "name": "_camp_id",
          "type": "uint256"
        }
      ],
      "name": "getNumSponsorsForCampaign",
      "outputs": [
        {
          "name": "",
          "type": "uint256"
        }
      ],
      "payable": false,
      "stateMutability": "view",
      "type": "function"
    },
    {
      "constant": true,
      "inputs": [
        {
          "name": "_camp_id",
          "type": "uint256"
        },
        {
          "name": "_matchNum",
          "type": "uint256"
        }
      ],
      "name": "getSponsorInCampaign_rec",
      "outputs": [
        {
          "name": "",
          "type": "address"
        },
        {
          "name": "",
          "type": "address"
        },
        {
          "name": "",
          "type": "address"
        },
        {
          "name": "",
          "type": "int8"
        },
        {
          "name": "",
          "type": "uint256"
        },
        {
          "name": "",
          "type": "uint256"
        }
      ],
      "payable": false,
      "stateMutability": "view",
      "type": "function"
    },
    {
      "constant": true,
      "inputs": [],
      "name": "getParticipantsLen",
      "outputs": [
        {
          "name": "",
          "type": "uint256"
        }
      ],
      "payable": false,
      "stateMutability": "view",
      "type": "function"
    },
    {
      "constant": true,
      "inputs": [
        {
          "name": "_camp_id",
          "type": "uint256"
        }
      ],
      "name": "getNumParticipantForCampaign",
      "outputs": [
        {
          "name": "",
          "type": "uint256"
        }
      ],
      "payable": false,
      "stateMutability": "view",
      "type": "function"
    },
    {
      "constant": true,
      "inputs": [
        {
          "name": "_camp_id",
          "type": "uint256"
        },
        {
          "name": "_matchNum",
          "type": "uint256"
        }
      ],
      "name": "getParticipantInCampaign_rec",
      "outputs": [
        {
          "name": "",
          "type": "uint256"
        },
        {
          "name": "",
          "type": "address"
        },
        {
          "name": "",
          "type": "string"
        },
        {
          "name": "",
          "type": "int8"
        },
        {
          "name": "",
          "type": "int32"
        },
        {
          "name": "",
          "type": "uint256"
        },
        {
          "name": "",
          "type": "uint256"
        }
      ],
      "payable": false,
      "stateMutability": "view",
      "type": "function"
    },
    {
      "constant": true,
      "inputs": [
        {
          "name": "_addr_part",
          "type": "address"
        }
      ],
      "name": "getNumCampaignForParticipant",
      "outputs": [
        {
          "name": "",
          "type": "uint256"
        }
      ],
      "payable": false,
      "stateMutability": "view",
      "type": "function"
    },
    {
      "constant": true,
      "inputs": [
        {
          "name": "_addr_part",
          "type": "address"
        },
        {
          "name": "_matchNum",
          "type": "uint256"
        }
      ],
      "name": "getParticipantForParticipant_rec",
      "outputs": [
        {
          "name": "",
          "type": "uint256"
        },
        {
          "name": "",
          "type": "address"
        },
        {
          "name": "",
          "type": "string"
        },
        {
          "name": "",
          "type": "int8"
        },
        {
          "name": "",
          "type": "int32"
        },
        {
          "name": "",
          "type": "uint256"
        },
        {
          "name": "",
          "type": "uint256"
        }
      ],
      "payable": false,
      "stateMutability": "view",
      "type": "function"
    },
    {
      "constant": true,
      "inputs": [],
      "name": "getEventPayLogsLen",
      "outputs": [
        {
          "name": "",
          "type": "uint256"
        }
      ],
      "payable": false,
      "stateMutability": "view",
      "type": "function"
    },
    {
      "constant": true,
      "inputs": [
        {
          "name": "_campID",
          "type": "uint256"
        }
      ],
      "name": "getNumEventPayLogsForCampaign",
      "outputs": [
        {
          "name": "",
          "type": "uint256"
        }
      ],
      "payable": false,
      "stateMutability": "view",
      "type": "function"
    },
    {
      "constant": true,
      "inputs": [
        {
          "name": "_camp_id",
          "type": "uint256"
        },
        {
          "name": "_matchNum",
          "type": "uint256"
        }
      ],
      "name": "getEventPayLogsInCampaign_rec",
      "outputs": [
        {
          "name": "",
          "type": "uint256"
        },
        {
          "name": "",
          "type": "address"
        },
        {
          "name": "",
          "type": "address"
        },
        {
          "name": "",
          "type": "uint256"
        },
        {
          "name": "",
          "type": "int8"
        },
        {
          "name": "",
          "type": "int32"
        },
        {
          "name": "",
          "type": "uint256"
        }
      ],
      "payable": false,
      "stateMutability": "view",
      "type": "function"
    },
    {
      "constant": false,
      "inputs": [
        {
          "name": "_name",
          "type": "string"
        },
        {
          "name": "_started_by",
          "type": "address"
        },
        {
          "name": "_end_date",
          "type": "uint256"
        }
      ],
      "name": "setCampaign_rec",
      "outputs": [
        {
          "name": "",
          "type": "uint256"
        }
      ],
      "payable": false,
      "stateMutability": "nonpayable",
      "type": "function"
    },
    {
      "constant": false,
      "inputs": [
        {
          "name": "_camp_id",
          "type": "uint256"
        },
        {
          "name": "_unit_goal_recv",
          "type": "int32"
        },
        {
          "name": "_wei_in_escrow_recv",
          "type": "uint256"
        }
      ],
      "name": "updRecvCampaign_rec",
      "outputs": [
        {
          "name": "",
          "type": "uint256"
        }
      ],
      "payable": false,
      "stateMutability": "nonpayable",
      "type": "function"
    },
    {
      "constant": false,
      "inputs": [
        {
          "name": "_camp_id",
          "type": "uint256"
        },
        {
          "name": "_addr_send_to",
          "type": "address"
        },
        {
          "name": "_wei_in_escrow_pay",
          "type": "uint256"
        }
      ],
      "name": "updPayCampaign_rec",
      "outputs": [
        {
          "name": "",
          "type": "uint256"
        }
      ],
      "payable": false,
      "stateMutability": "nonpayable",
      "type": "function"
    },
    {
      "constant": false,
      "inputs": [
        {
          "name": "_camp_id",
          "type": "uint256"
        },
        {
          "name": "_addr_part",
          "type": "address"
        },
        {
          "name": "_name_part",
          "type": "string"
        },
        {
          "name": "_unit",
          "type": "int8"
        },
        {
          "name": "_unit_goal",
          "type": "int32"
        },
        {
          "name": "_date_start",
          "type": "uint256"
        },
        {
          "name": "_date_end",
          "type": "uint256"
        }
      ],
      "name": "setPart_rec",
      "outputs": [
        {
          "name": "",
          "type": "uint256"
        }
      ],
      "payable": false,
      "stateMutability": "nonpayable",
      "type": "function"
    },
    {
      "constant": false,
      "inputs": [
        {
          "name": "_camp_id",
          "type": "uint256"
        },
        {
          "name": "_addr_spon",
          "type": "address"
        },
        {
          "name": "_addr_part",
          "type": "address"
        },
        {
          "name": "_addr_pay_to",
          "type": "address"
        },
        {
          "name": "_unit",
          "type": "int8"
        },
        {
          "name": "_wei_per_unit",
          "type": "uint256"
        },
        {
          "name": "_wei_in_escrow",
          "type": "uint256"
        }
      ],
      "name": "setSponsor_rec",
      "outputs": [
        {
          "name": "",
          "type": "uint256"
        }
      ],
      "payable": false,
      "stateMutability": "nonpayable",
      "type": "function"
    },
    {
      "constant": false,
      "inputs": [
        {
          "name": "_camp_id",
          "type": "uint256"
        },
        {
          "name": "_addr_part",
          "type": "address"
        },
        {
          "name": "_addr_spon",
          "type": "address"
        },
        {
          "name": "_date_event",
          "type": "uint256"
        },
        {
          "name": "_unit",
          "type": "int8"
        },
        {
          "name": "_qty_unit",
          "type": "int32"
        },
        {
          "name": "_wei_paid",
          "type": "uint256"
        }
      ],
      "name": "setEventLog_rec",
      "outputs": [
        {
          "name": "",
          "type": "uint256"
        }
      ],
      "payable": false,
      "stateMutability": "nonpayable",
      "type": "function"
    }
  ],
  "bytecode": "0x6080604052336000806101000a81548173ffffffffffffffffffffffffffffffffffffffff021916908373ffffffffffffffffffffffffffffffffffffffff16021790555061314f806100536000396000f300608060405260043610610196576000357c0100000000000000000000000000000000000000000000000000000000900463ffffffff16806312065fe01461019b578063141961bc146101c65780633060dfbf146102d557806335c1d349146103dd57806337b7e3fa146104e55780633ccfd60b146105945780633d6307ce146105ab5780634235d313146105d65780634a1cb28a1461062d5780634dea360914610725578063522d8d89146107f45780635d91bb821461091c5780636b0f3675146109475780636b65597c146109885780636dfd5a9714610a4a5780637a431b7014610a755780638824eba714610b1c5780638da5cb5b14610b475780638deb0a3d14610b9e57806393066b4c14610bdf5780639720b17c14610cd45780639d43f00d14610dad578063a52f099414610e18578063aa4532a814610e91578063aabc755214610ed2578063b6b55f2514610f2a578063d8c12e0b14610f4a578063e896958714610f75578063f2fde38b14611087578063f8c49dfe146110ca578063fae39930146111d2578063fb70bc49146111ff575b600080fd5b3480156101a757600080fd5b506101b0611209565b6040518082815260200191505060405180910390f35b3480156101d257600080fd5b506101f160048036038101908080359060200190929190505050611228565b60405180898152602001806020018873ffffffffffffffffffffffffffffffffffffffff1673ffffffffffffffffffffffffffffffffffffffff1681526020018781526020018660030b60030b81526020018560030b60030b8152602001848152602001838152602001828103825289818151815260200191508051906020019080838360005b83811015610293578082015181840152602081019050610278565b50505050905090810190601f1680156102c05780820380516001836020036101000a031916815260200191505b50995050505050505050505060405180910390f35b3480156102e157600080fd5b5061030060048036038101908080359060200190929190505050611351565b60405180806020018873ffffffffffffffffffffffffffffffffffffffff1673ffffffffffffffffffffffffffffffffffffffff1681526020018781526020018660030b60030b81526020018560030b60030b8152602001848152602001838152602001828103825289818151815260200191508051906020019080838360005b8381101561039c578082015181840152602081019050610381565b50505050905090810190601f1680156103c95780820380516001836020036101000a031916815260200191505b509850505050505050505060405180910390f35b3480156103e957600080fd5b506104086004803603810190808035906020019092919050505061152a565b604051808881526020018773ffffffffffffffffffffffffffffffffffffffff1673ffffffffffffffffffffffffffffffffffffffff168152602001806020018660000b60000b81526020018560030b60030b8152602001848152602001838152602001828103825287818151815260200191508051906020019080838360005b838110156104a4578082015181840152602081019050610489565b50505050905090810190601f1680156104d15780820380516001836020036101000a031916815260200191505b509850505050505050505060405180910390f35b3480156104f157600080fd5b5061057e60048036038101908080359060200190929190803573ffffffffffffffffffffffffffffffffffffffff169060200190929190803573ffffffffffffffffffffffffffffffffffffffff16906020019092919080359060200190929190803560000b9060200190929190803560030b90602001909291908035906020019092919050505061164d565b6040518082815260200191505060405180910390f35b3480156105a057600080fd5b506105a96117ea565b005b3480156105b757600080fd5b506105c06118a5565b6040518082815260200191505060405180910390f35b3480156105e257600080fd5b50610617600480360381019080803573ffffffffffffffffffffffffffffffffffffffff1690602001909291905050506118b2565b6040518082815260200191505060405180910390f35b34801561063957600080fd5b506106626004803603810190808035906020019092919080359060200190929190505050611960565b604051808773ffffffffffffffffffffffffffffffffffffffff1673ffffffffffffffffffffffffffffffffffffffff1681526020018673ffffffffffffffffffffffffffffffffffffffff1673ffffffffffffffffffffffffffffffffffffffff1681526020018573ffffffffffffffffffffffffffffffffffffffff1673ffffffffffffffffffffffffffffffffffffffff1681526020018460000b60000b8152602001838152602001828152602001965050505050505060405180910390f35b34801561073157600080fd5b5061075060048036038101908080359060200190929190505050611b89565b604051808881526020018773ffffffffffffffffffffffffffffffffffffffff1673ffffffffffffffffffffffffffffffffffffffff1681526020018673ffffffffffffffffffffffffffffffffffffffff1673ffffffffffffffffffffffffffffffffffffffff1681526020018581526020018460000b60000b81526020018360030b60030b815260200182815260200197505050505050505060405180910390f35b34801561080057600080fd5b5061083f600480360381019080803573ffffffffffffffffffffffffffffffffffffffff16906020019092919080359060200190929190505050611c34565b604051808881526020018773ffffffffffffffffffffffffffffffffffffffff1673ffffffffffffffffffffffffffffffffffffffff168152602001806020018660000b60000b81526020018560030b60030b8152602001848152602001838152602001828103825287818151815260200191508051906020019080838360005b838110156108db5780820151818401526020810190506108c0565b50505050905090810190601f1680156109085780820380516001836020036101000a031916815260200191505b509850505050505050505060405180910390f35b34801561092857600080fd5b50610931611eb1565b6040518082815260200191505060405180910390f35b34801561095357600080fd5b5061097260048036038101908080359060200190929190505050611ebe565b6040518082815260200191505060405180910390f35b34801561099457600080fd5b50610a3460048036038101908080359060200190929190803573ffffffffffffffffffffffffffffffffffffffff169060200190929190803573ffffffffffffffffffffffffffffffffffffffff169060200190929190803573ffffffffffffffffffffffffffffffffffffffff169060200190929190803560000b90602001909291908035906020019092919080359060200190929190505050611f35565b6040518082815260200191505060405180910390f35b348015610a5657600080fd5b50610a5f612102565b6040518082815260200191505060405180910390f35b348015610a8157600080fd5b50610b0660048036038101908080359060200190929190803573ffffffffffffffffffffffffffffffffffffffff169060200190929190803590602001908201803590602001919091929391929390803560000b9060200190929190803560030b9060200190929190803590602001909291908035906020019092919050505061210f565b6040518082815260200191505060405180910390f35b348015610b2857600080fd5b50610b3161229f565b6040518082815260200191505060405180910390f35b348015610b5357600080fd5b50610b5c6122a9565b604051808273ffffffffffffffffffffffffffffffffffffffff1673ffffffffffffffffffffffffffffffffffffffff16815260200191505060405180910390f35b348015610baa57600080fd5b50610bc9600480360381019080803590602001909291905050506122ce565b6040518082815260200191505060405180910390f35b348015610beb57600080fd5b50610c0a60048036038101908080359060200190929190505050612345565b604051808881526020018773ffffffffffffffffffffffffffffffffffffffff1673ffffffffffffffffffffffffffffffffffffffff1681526020018673ffffffffffffffffffffffffffffffffffffffff1673ffffffffffffffffffffffffffffffffffffffff1681526020018573ffffffffffffffffffffffffffffffffffffffff1673ffffffffffffffffffffffffffffffffffffffff1681526020018460000b60000b815260200183815260200182815260200197505050505050505060405180910390f35b348015610ce057600080fd5b50610d096004803603810190808035906020019092919080359060200190929190505050612403565b604051808881526020018773ffffffffffffffffffffffffffffffffffffffff1673ffffffffffffffffffffffffffffffffffffffff1681526020018673ffffffffffffffffffffffffffffffffffffffff1673ffffffffffffffffffffffffffffffffffffffff1681526020018581526020018460000b60000b81526020018360030b60030b815260200182815260200197505050505050505060405180910390f35b348015610db957600080fd5b50610e0260048036038101908080359060200190929190803573ffffffffffffffffffffffffffffffffffffffff169060200190929190803590602001909291905050506125f9565b6040518082815260200191505060405180910390f35b348015610e2457600080fd5b50610e7b600480360381019080803590602001908201803590602001919091929391929390803573ffffffffffffffffffffffffffffffffffffffff16906020019092919080359060200190929190505050612677565b6040518082815260200191505060405180910390f35b348015610e9d57600080fd5b50610ebc6004803603810190808035906020019092919050505061283e565b6040518082815260200191505060405180910390f35b348015610ede57600080fd5b50610f1460048036038101908080359060200190929190803560030b9060200190929190803590602001909291905050506128b5565b6040518082815260200191505060405180910390f35b610f4860048036038101908080359060200190929190505050612940565b005b348015610f5657600080fd5b50610f5f612951565b6040518082815260200191505060405180910390f35b348015610f8157600080fd5b50610faa600480360381019080803590602001909291908035906020019092919050505061295e565b604051808881526020018773ffffffffffffffffffffffffffffffffffffffff1673ffffffffffffffffffffffffffffffffffffffff168152602001806020018660000b60000b81526020018560030b60030b8152602001848152602001838152602001828103825287818151815260200191508051906020019080838360005b8381101561104657808201518184015260208101905061102b565b50505050905090810190601f1680156110735780820380516001836020036101000a031916815260200191505b509850505050505050505060405180910390f35b34801561109357600080fd5b506110c8600480360381019080803573ffffffffffffffffffffffffffffffffffffffff169060200190929190505050612b8f565b005b3480156110d657600080fd5b506110f560048036038101908080359060200190929190505050612ce4565b60405180806020018873ffffffffffffffffffffffffffffffffffffffff1673ffffffffffffffffffffffffffffffffffffffff1681526020018781526020018660030b60030b81526020018560030b60030b8152602001848152602001838152602001828103825289818151815260200191508051906020019080838360005b83811015611191578082015181840152602081019050611176565b50505050905090810190601f1680156111be5780820380516001836020036101000a031916815260200191505b509850505050505050505060405180910390f35b3480156111de57600080fd5b506111fd60048036038101908080359060200190929190505050612ebd565b005b611207612ec7565b005b60003073ffffffffffffffffffffffffffffffffffffffff1631905090565b60028181548110151561123757fe5b9060005260206000209060070201600091509050806000015490806001018054600181600116156101000203166002900480601f0160208091040260200160405190810160405280929190818152602001828054600181600116156101000203166002900480156112e95780601f106112be576101008083540402835291602001916112e9565b820191906000526020600020905b8154815290600101906020018083116112cc57829003601f168201915b5050505050908060020160009054906101000a900473ffffffffffffffffffffffffffffffffffffffff16908060030154908060040160009054906101000a900460030b908060040160049054906101000a900460030b908060050154908060060154905088565b6060600080600080600080611364612ed2565b60028981548110151561137357fe5b9060005260206000209060070201610100604051908101604052908160008201548152602001600182018054600181600116156101000203166002900480601f0160208091040260200160405190810160405280929190818152602001828054600181600116156101000203166002900480156114315780601f1061140657610100808354040283529160200191611431565b820191906000526020600020905b81548152906001019060200180831161141457829003601f168201915b505050505081526020016002820160009054906101000a900473ffffffffffffffffffffffffffffffffffffffff1673ffffffffffffffffffffffffffffffffffffffff1673ffffffffffffffffffffffffffffffffffffffff168152602001600382015481526020016004820160009054906101000a900460030b60030b60030b81526020016004820160049054906101000a900460030b60030b60030b815260200160058201548152602001600682015481525050905080602001518160400151826060015183608001518460a001518560c001518660e00151869650975097509750975097509750975050919395979092949650565b60048181548110151561153957fe5b90600052602060002090600602016000915090508060000154908060010160009054906101000a900473ffffffffffffffffffffffffffffffffffffffff1690806002018054600181600116156101000203166002900480601f0160208091040260200160405190810160405280929190818152602001828054600181600116156101000203166002900480156116115780601f106115e657610100808354040283529160200191611611565b820191906000526020600020905b8154815290600101906020018083116115f457829003601f168201915b5050505050908060030160009054906101000a900460000b908060030160019054906101000a900460030b908060040154908060050154905087565b6000600560e0604051908101604052808a81526020018973ffffffffffffffffffffffffffffffffffffffff1681526020018873ffffffffffffffffffffffffffffffffffffffff1681526020018781526020018660000b81526020018560030b815260200184815250908060018154018082558091505090600182039060005260206000209060060201600090919290919091506000820151816000015560208201518160010160006101000a81548173ffffffffffffffffffffffffffffffffffffffff021916908373ffffffffffffffffffffffffffffffffffffffff16021790555060408201518160020160006101000a81548173ffffffffffffffffffffffffffffffffffffffff021916908373ffffffffffffffffffffffffffffffffffffffff1602179055506060820151816003015560808201518160040160006101000a81548160ff021916908360000b60ff16021790555060a08201518160040160016101000a81548163ffffffff021916908360030b63ffffffff16021790555060c08201518160050155505050979650505050505050565b6000809054906101000a900473ffffffffffffffffffffffffffffffffffffffff1673ffffffffffffffffffffffffffffffffffffffff163373ffffffffffffffffffffffffffffffffffffffff1614151561184557600080fd5b3373ffffffffffffffffffffffffffffffffffffffff166108fc3073ffffffffffffffffffffffffffffffffffffffff16319081150290604051600060405180830381858888f193505050501580156118a2573d6000803e3d6000fd5b50565b6000600280549050905090565b6000806000809150600090505b600480549050811015611956578373ffffffffffffffffffffffffffffffffffffffff166004828154811015156118f257fe5b906000526020600020906006020160010160009054906101000a900473ffffffffffffffffffffffffffffffffffffffff1673ffffffffffffffffffffffffffffffffffffffff1614156119495781806001019250505b80806001019150506118bf565b8192505050919050565b6000806000806000806000611973612f34565b60006002805490508b1115151561198957600080fd5b60009250600090505b600380549050811015611b52578a6003828154811015156119af57fe5b9060005260206000209060060201600001541415611b455789831415611b3c5760038b8154811015156119de57fe5b906000526020600020906006020160e06040519081016040529081600082015481526020016001820160009054906101000a900473ffffffffffffffffffffffffffffffffffffffff1673ffffffffffffffffffffffffffffffffffffffff1673ffffffffffffffffffffffffffffffffffffffff1681526020016002820160009054906101000a900473ffffffffffffffffffffffffffffffffffffffff1673ffffffffffffffffffffffffffffffffffffffff1673ffffffffffffffffffffffffffffffffffffffff1681526020016003820160009054906101000a900473ffffffffffffffffffffffffffffffffffffffff1673ffffffffffffffffffffffffffffffffffffffff1673ffffffffffffffffffffffffffffffffffffffff1681526020016003820160149054906101000a900460000b60000b60000b8152602001600482015481526020016005820154815250509150611b52565b82806001019350505b8080600101915050611992565b81602001518260400151836060015184608001518560a001518660c001519850985098509850985098505050509295509295509295565b600581815481101515611b9857fe5b90600052602060002090600602016000915090508060000154908060010160009054906101000a900473ffffffffffffffffffffffffffffffffffffffff16908060020160009054906101000a900473ffffffffffffffffffffffffffffffffffffffff16908060030154908060040160009054906101000a900460000b908060040160019054906101000a900460030b908060050154905087565b60008060606000806000806000611c49612fb6565b6000809250600090505b600480549050811015611e6e578b73ffffffffffffffffffffffffffffffffffffffff16600482815481101515611c8657fe5b906000526020600020906006020160010160009054906101000a900473ffffffffffffffffffffffffffffffffffffffff1673ffffffffffffffffffffffffffffffffffffffff161415611e61578a831415611e5857600481815481101515611ceb57fe5b906000526020600020906006020160e06040519081016040529081600082015481526020016001820160009054906101000a900473ffffffffffffffffffffffffffffffffffffffff1673ffffffffffffffffffffffffffffffffffffffff1673ffffffffffffffffffffffffffffffffffffffff168152602001600282018054600181600116156101000203166002900480601f016020809104026020016040519081016040528092919081815260200182805460018160011615610100020316600290048015611dfe5780601f10611dd357610100808354040283529160200191611dfe565b820191906000526020600020905b815481529060010190602001808311611de157829003601f168201915b505050505081526020016003820160009054906101000a900460000b60000b60000b81526020016003820160019054906101000a900460030b60030b60030b81526020016004820154815260200160058201548152505091505b82806001019350505b8080600101915050611c53565b816000015182602001518360400151846060015185608001518660a001518760c00151849450995099509950995099509950995050505092959891949750929550565b6000600480549050905090565b60008060006002805490508411151515611ed757600080fd5b60009150600090505b600480549050811015611f2b5783600482815481101515611efd57fe5b9060005260206000209060060201600001541415611f1e5781806001019250505b8080600101915050611ee0565b8192505050919050565b6000600360e0604051908101604052808a81526020018973ffffffffffffffffffffffffffffffffffffffff1681526020018873ffffffffffffffffffffffffffffffffffffffff1681526020018773ffffffffffffffffffffffffffffffffffffffff1681526020018660000b815260200185815260200184815250908060018154018082558091505090600182039060005260206000209060060201600090919290919091506000820151816000015560208201518160010160006101000a81548173ffffffffffffffffffffffffffffffffffffffff021916908373ffffffffffffffffffffffffffffffffffffffff16021790555060408201518160020160006101000a81548173ffffffffffffffffffffffffffffffffffffffff021916908373ffffffffffffffffffffffffffffffffffffffff16021790555060608201518160030160006101000a81548173ffffffffffffffffffffffffffffffffffffffff021916908373ffffffffffffffffffffffffffffffffffffffff16021790555060808201518160030160146101000a81548160ff021916908360000b60ff16021790555060a0820151816004015560c08201518160050155505050979650505050505050565b6000600380549050905090565b6000600460e0604051908101604052808b81526020018a73ffffffffffffffffffffffffffffffffffffffff16815260200189898080601f01602080910402602001604051908101604052809392919081815260200183838082843782019150505050505081526020018760000b81526020018660030b815260200185815260200184815250908060018154018082558091505090600182039060005260206000209060060201600090919290919091506000820151816000015560208201518160010160006101000a81548173ffffffffffffffffffffffffffffffffffffffff021916908373ffffffffffffffffffffffffffffffffffffffff160217905550604082015181600201908051906020019061222d92919061300f565b5060608201518160030160006101000a81548160ff021916908360000b60ff16021790555060808201518160030160016101000a81548163ffffffff021916908360030b63ffffffff16021790555060a0820151816004015560c0820151816005015550505098975050505050505050565b6000600154905090565b6000809054906101000a900473ffffffffffffffffffffffffffffffffffffffff1681565b600080600060028054905084111515156122e757600080fd5b60009150600090505b60058054905081101561233b578360058281548110151561230d57fe5b906000526020600020906006020160000154141561232e5781806001019250505b80806001019150506122f0565b8192505050919050565b60038181548110151561235457fe5b90600052602060002090600602016000915090508060000154908060010160009054906101000a900473ffffffffffffffffffffffffffffffffffffffff16908060020160009054906101000a900473ffffffffffffffffffffffffffffffffffffffff16908060030160009054906101000a900473ffffffffffffffffffffffffffffffffffffffff16908060030160149054906101000a900460000b908060040154908060050154905087565b60008060008060008060008061241761308f565b60006002805490508c1115151561242d57600080fd5b60009250600090505b6004805490508110156125b9578b60058281548110151561245357fe5b90600052602060002090600602016000015414156125ac5782806001019350508a8314156125ab5760058c81548110151561248a57fe5b906000526020600020906006020160e06040519081016040529081600082015481526020016001820160009054906101000a900473ffffffffffffffffffffffffffffffffffffffff1673ffffffffffffffffffffffffffffffffffffffff1673ffffffffffffffffffffffffffffffffffffffff1681526020016002820160009054906101000a900473ffffffffffffffffffffffffffffffffffffffff1673ffffffffffffffffffffffffffffffffffffffff1673ffffffffffffffffffffffffffffffffffffffff168152602001600382015481526020016004820160009054906101000a900460000b60000b60000b81526020016004820160019054906101000a900460030b60030b60030b815260200160058201548152505091505b5b8080600101915050612436565b816000015182602001518360400151846060015185608001518660a001518760c00151995099509950995099509950995050505092959891949750929550565b60008273ffffffffffffffffffffffffffffffffffffffff166108fc839081150290604051600060405180830381858888f19350505050158015612641573d6000803e3d6000fd5b508160028581548110151561265257fe5b9060005260206000209060070201600601600082825403925050819055509392505050565b6000806000806000806002805490509450600093506000925060009150600090506002610100604051908101604052808781526020018c8c8080601f01602080910402602001604051908101604052809392919081815260200183838082843782019150505050505081526020018a73ffffffffffffffffffffffffffffffffffffffff1681526020018981526020018660030b81526020018560030b8152602001848152602001838152509080600181540180825580915050906001820390600052602060002090600702016000909192909190915060008201518160000155602082015181600101908051906020019061277492919061300f565b5060408201518160020160006101000a81548173ffffffffffffffffffffffffffffffffffffffff021916908373ffffffffffffffffffffffffffffffffffffffff1602179055506060820151816003015560808201518160040160006101000a81548163ffffffff021916908360030b63ffffffff16021790555060a08201518160040160046101000a81548163ffffffff021916908360030b63ffffffff16021790555060c0820151816005015560e082015181600601555050505050505050949350505050565b6000806000600280549050841115151561285757600080fd5b60009150600090505b6003805490508110156128ab578360038281548110151561287d57fe5b906000526020600020906006020160000154141561289e5781806001019250505b8080600101915050612860565b8192505050919050565b6000826002858154811015156128c757fe5b906000526020600020906007020160040160008282829054906101000a900460030b0192506101000a81548163ffffffff021916908360030b63ffffffff1602179055508160028581548110151561291b57fe5b9060005260206000209060070201600601600082825401925050819055509392505050565b803414151561294e57600080fd5b50565b6000600580549050905090565b60008060606000806000806000612973612fb6565b6000809250600090505b600480549050811015612b4c578b60048281548110151561299a57fe5b9060005260206000209060060201600001541415612b3f578a831415612b36576004818154811015156129c957fe5b906000526020600020906006020160e06040519081016040529081600082015481526020016001820160009054906101000a900473ffffffffffffffffffffffffffffffffffffffff1673ffffffffffffffffffffffffffffffffffffffff1673ffffffffffffffffffffffffffffffffffffffff168152602001600282018054600181600116156101000203166002900480601f016020809104026020016040519081016040528092919081815260200182805460018160011615610100020316600290048015612adc5780601f10612ab157610100808354040283529160200191612adc565b820191906000526020600020905b815481529060010190602001808311612abf57829003601f168201915b505050505081526020016003820160009054906101000a900460000b60000b60000b81526020016003820160019054906101000a900460030b60030b60030b81526020016004820154815260200160058201548152505091505b82806001019350505b808060010191505061297d565b816000015182602001518360400151846060015185608001518660a001518760c00151849450995099509950995099509950995050505092959891949750929550565b6000809054906101000a900473ffffffffffffffffffffffffffffffffffffffff1673ffffffffffffffffffffffffffffffffffffffff163373ffffffffffffffffffffffffffffffffffffffff16141515612bea57600080fd5b600073ffffffffffffffffffffffffffffffffffffffff168173ffffffffffffffffffffffffffffffffffffffff1614151515612c2657600080fd5b8073ffffffffffffffffffffffffffffffffffffffff166000809054906101000a900473ffffffffffffffffffffffffffffffffffffffff1673ffffffffffffffffffffffffffffffffffffffff167f8be0079c531659141344cd1fd0a4f28419497f9722a3daafe3b4186f6b6457e060405160405180910390a3806000806101000a81548173ffffffffffffffffffffffffffffffffffffffff021916908373ffffffffffffffffffffffffffffffffffffffff16021790555050565b6060600080600080600080612cf7612ed2565b600289815481101515612d0657fe5b9060005260206000209060070201610100604051908101604052908160008201548152602001600182018054600181600116156101000203166002900480601f016020809104026020016040519081016040528092919081815260200182805460018160011615610100020316600290048015612dc45780601f10612d9957610100808354040283529160200191612dc4565b820191906000526020600020905b815481529060010190602001808311612da757829003601f168201915b505050505081526020016002820160009054906101000a900473ffffffffffffffffffffffffffffffffffffffff1673ffffffffffffffffffffffffffffffffffffffff1673ffffffffffffffffffffffffffffffffffffffff168152602001600382015481526020016004820160009054906101000a900460030b60030b60030b81526020016004820160049054906101000a900460030b60030b60030b815260200160058201548152602001600682015481525050905080602001518160400151826060015183608001518460a001518560c001518660e00151869650975097509750975097509750975050919395979092949650565b8060018190555050565b600154600181905550565b610100604051908101604052806000815260200160608152602001600073ffffffffffffffffffffffffffffffffffffffff16815260200160008152602001600060030b8152602001600060030b815260200160008152602001600081525090565b60e06040519081016040528060008152602001600073ffffffffffffffffffffffffffffffffffffffff168152602001600073ffffffffffffffffffffffffffffffffffffffff168152602001600073ffffffffffffffffffffffffffffffffffffffff1681526020016000800b815260200160008152602001600081525090565b60e06040519081016040528060008152602001600073ffffffffffffffffffffffffffffffffffffffff168152602001606081526020016000800b8152602001600060030b815260200160008152602001600081525090565b828054600181600116156101000203166002900490600052602060002090601f016020900481019282601f1061305057805160ff191683800117855561307e565b8280016001018555821561307e579182015b8281111561307d578251825591602001919060010190613062565b5b50905061308b91906130fe565b5090565b60e06040519081016040528060008152602001600073ffffffffffffffffffffffffffffffffffffffff168152602001600073ffffffffffffffffffffffffffffffffffffffff168152602001600081526020016000800b8152602001600060030b8152602001600081525090565b61312091905b8082111561311c576000816000905550600101613104565b5090565b905600a165627a7a72305820bf93d31f136edf12adc029e2f8fa4d848e72a309a1a1e9f0b7ff3eec97886a6e0029",
  "source": "pragma solidity ^0.4.17;\n\nimport \"zeppelin-solidity/contracts/ownership/Ownable.sol\";\n\ncontract IncroSpon is Ownable{ \n    //string public name = 'Incro-Sponsor';\n    uint storedData;\n\n    Campaign[] public campaigns;\n    Sponsor[] public sponsors;\n    Participant[] public participants;\n    EventPayLog[] public eventpaylogs;\n\n    struct Campaign {\n        uint256 camp_id;        // 1\n        string name;            // 2  -- w\n        address started_by;     // 3  -- w\n        uint256 end_date;       // 4  -- w\n        int32 unit_goal;        // 5  \n        int32 unit_so_far;      // 6  \n        uint256 wei_paid_out;   // 7  \n        uint256 wei_in_escrow;  // 8  \n    }\n\n    struct Sponsor {\n        uint256 camp_id;        // 1\n        address addr_spon;      // 2\n        address addr_part;      // 3\n        address addr_pay_to;    // 4\n        int8 unit;              // 5\n        uint256 wei_per_unit;   // 6\n        uint256 wei_in_escrow;  // 7\n    }\n\n    struct Participant {\n        uint256 camp_id;        // 1\n        address addr_part;      // 2\n        string name_part;       // 3\n        int8 unit;              // 4\n        int32 unit_goal;        // 5\n        uint256 date_start;     // 6\n        uint256 date_end;       // 7\n    }\n\n    struct EventPayLog {\n        uint256 camp_id;        // 1\n        address addr_part;      // 2\n        address addr_spon;      // 3\n        uint256 date_event;     // 4\n        int8 unit;              // 5\n        int32 qty_unit;         // 6\n        uint256 wei_paid;       // 7\n    }\n\n\n    function testSet(uint x) public {\n        storedData = x;\n        // campaigns.push(Campaign(0,\"testSet push\", 0, 0, 0, 0, 0, 0));\n    }\n\n    function testGet() public view returns (uint) {\n        return storedData;\n    }\n\n    function testPay() public payable {\n        storedData = storedData;\n    }\n\n\n    function deposit(uint256 amount) payable public {\n        //msg.value represents the ether that the messages sender attached to a transaction message.\n        require(msg.value == amount);\n    }\n\n\n    function getBalance() public view returns (uint256) {\n        //this return's the contract's address\n        // doing address.balance would return any address's balance\n        return address(this).balance;\n    }\n\n\n    //One important property of smart contracts is that there is absolutely no way to withdraw ether from a contract other than through execution of some function that the contract exposes. There are no backdoors that can allow the contract author or deployer to withdraw ether without going through the contracts exposed functions. This is one fundamental reason why a well-written contract can be trusted to handle ether on behalf of usersthe users can see the code and, therefore, the means by which owned ether will be used by the contract.\n    function withdraw() external onlyOwner{\n        //always use transfer, don't use send when transferring ether out of a smart contract; because transfer will abort, send won't\n        msg.sender.transfer(address(this).balance);\n    }\n\n\n\n    function getCampaignsLen() view external returns(uint256){\n        return campaigns.length;\n    }\n\n\n    function getCampaign_rec( uint256 _camp_id ) public view returns(\n    string, address, uint256, int32, int32, uint256, uint256 \n    ) {\n        // require(_camp_id < campaigns.length);\n        Campaign memory cr = campaigns[_camp_id];\n        return ( cr.name, cr.started_by, cr.end_date, cr.unit_goal, cr.unit_so_far, cr.wei_paid_out, cr.wei_in_escrow );\n    }\n                                                      \n\n    function getCampaignBal_rec( uint256 _camp_id ) public view returns(\n    string, address, uint256, int32, int32, uint256, uint256 \n    ) {\n        // require(_camp_id < campaigns.length);\n        Campaign memory cr = campaigns[_camp_id];\n        return ( cr.name, cr.started_by, cr.end_date, cr.unit_goal, cr.unit_so_far, cr.wei_paid_out, cr.wei_in_escrow );\n    }\n\n\n    function getSponsorsLen() view external returns(uint256){\n        return sponsors.length;\n    }\n\n\n    //this function will return how many sponsors for a campaign\n    function getNumSponsorsForCampaign( uint256 _camp_id ) public view returns( uint256 )  {\n        require(_camp_id <= campaigns.length);\n        uint256 numMatches = 0;\n        for(uint256 i = 0; i<sponsors.length; i++)\n        {\n            if (sponsors[i].camp_id == _camp_id )  numMatches++;\n        }  \n        return numMatches;        \n    }\n\n\n    function getSponsorInCampaign_rec( uint256 _camp_id, uint256 _matchNum ) \n    public view returns( address, address, address, int8, uint256, uint256 ) {\n        //this will return a matching record for a sponsor, which is the _matchNum\n        // can find out the number of matching items by running the getNum function\n        require(_camp_id <= campaigns.length);\n        uint256 numMatches = 0;\n        Sponsor memory sr;\n        //maybe make this a while loop so that can exit if no match\n        for(uint256 i = 0; i < sponsors.length; i++)\n        {\n            if (sponsors[i].camp_id == _camp_id )  {\n                if (numMatches == _matchNum) {\n                    sr = sponsors[_camp_id];\n                    break;\n                }\n                numMatches++;\n            }\n        }    \n        return ( sr.addr_spon, sr.addr_part, sr.addr_pay_to, sr.unit, sr.wei_per_unit, sr.wei_in_escrow );\n    }\n    \n\n    function getParticipantsLen() view external returns(uint256){\n        return participants.length;\n    }\n\n\n    function getNumParticipantForCampaign( uint256 _camp_id ) view external returns( uint256 )  {\n        //this function will return how many participants for a campaign\n        require(_camp_id <= campaigns.length);\n        uint256 numMatches = 0;\n        for(uint256 i = 0; i < participants.length; i++)\n        {\n            if (participants[i].camp_id == _camp_id )  numMatches++;\n        }  \n        return numMatches;        \n    }\n\n\n    function getParticipantInCampaign_rec( uint256 _camp_id, uint256 _matchNum \n        ) \n    view external returns(  \n        uint256, address, string, int8, int32, uint256, uint256 ) {\n        //this will return a matching record for a participant, which is the _matchNum\n        //can find out the number of matching items by running the getNum function\n        // require(_camp_id <= campaigns.length);\n        uint256 numMatches = 0;\n        Participant memory pr;\n        for(uint256 i = 0; i < participants.length; i++)\n        {\n            if (participants[i].camp_id == _camp_id) \n            {\n                if (numMatches == _matchNum) {\n                    pr = participants[i];\n                    //i = participants.length + 1;\n                }\n                numMatches++;\n            }\n        }    \n\n        return ( pr.camp_id, pr.addr_part, pr.name_part, pr.unit, pr.unit_goal, pr.date_start, pr.date_end );\n    }\n\n\n\n    //the next two functions are needed when a participant is starting \n    //to run during an event\n    function getNumCampaignForParticipant( address _addr_part ) \n    public view returns( uint256 ) {\n        //for a given the participant who has called this, find out\n        //how many campaigns he is in\n        uint256 numMatches = 0;\n        for(uint256 i = 0; i < participants.length; i++)\n        {\n            if (participants[i].addr_part == _addr_part)  numMatches++;            \n        }  \n        return ( numMatches );\n    }\n\n\n    function getParticipantForParticipant_rec( address _addr_part, uint256 _matchNum ) \n    public view returns( uint256, address, string, int8, int32, uint256, uint256  ) {\n        //this will return a matching record for a matching part addr, which is the _matchNum\n        // can find out the number of matching items by running the getNum function\n        uint256 numMatches = 0;\n        Participant memory pr;\n        for(uint256 i = 0; i < participants.length; i++)\n        {\n            if (participants[i].addr_part == _addr_part )  {\n                if (numMatches == _matchNum) {\n                    pr = participants[i];\n                    //break;\n                }\n                numMatches++;\n            }\n        }    \n        return ( pr.camp_id, pr.addr_part, pr.name_part, pr.unit, pr.unit_goal, pr.date_start, pr.date_end );\n    }  //get particpant record that matches the participant\n\n\n\n    function getEventPayLogsLen() view external returns(uint256){\n        return eventpaylogs.length;\n    }\n\n\n    function getNumEventPayLogsForCampaign( uint256 _campID ) public view returns( uint256 )  {\n        //get number of matching event records for a campaign\n        require(_campID <= campaigns.length);\n        uint256 numMatches = 0;\n        for(uint256 i = 0; i < eventpaylogs.length; i++)\n        {\n            if ( eventpaylogs[i].camp_id == _campID )  numMatches++;\n        }  \n        return numMatches;        \n    }\n\n\n    function getEventPayLogsInCampaign_rec( uint256 _camp_id, uint256 _matchNum ) \n    public view returns( uint256, address, address, uint256, int8, int32, uint256 ) {\n        //this will return a matching record for a participant, which is the _matchNum\n        // can find out the number of matching items by running the getNum function\n        require(_camp_id <= campaigns.length);\n        uint256 numMatches = 0;\n        EventPayLog memory er;\n        for(uint256 i = 0; i < participants.length; i++)\n        {\n            if (eventpaylogs[i].camp_id == _camp_id )  {\n                numMatches++;\n                if (numMatches == _matchNum) {\n                    er = eventpaylogs[_camp_id];\n                    //break;\n                }\n            }\n        }    \n        return ( er.camp_id, er.addr_part, er.addr_spon, er.date_event, er.unit, er.qty_unit, er.wei_paid );\n    }\n\n\n    //functions to write to the contract\n    function setCampaign_rec(string _name, address _started_by, uint256 _end_date) external returns (uint256) {\n        uint256 _camp_id = campaigns.length;\n        //campaigns.length += 1;\n        int32 _unit_goal = 0;\n        int32 _unit_so_far = 0;     \n        uint256 _wei_paid_out = 0; \n        uint256 _wei_in_escrow = 0;\n        \n        campaigns.push(Campaign(_camp_id, _name, _started_by, _end_date, _unit_goal, _unit_so_far, _wei_paid_out, _wei_in_escrow));\n    }\n\n    function updRecvCampaign_rec(uint256 _camp_id, int32 _unit_goal_recv, uint256 _wei_in_escrow_recv) external returns (uint256) {\n        //uint256 _camp_id = campaigns.length;\n        //campaigns.length += 1;\n        //***  need to use safemath here to add to total\n        campaigns[_camp_id].unit_goal += _unit_goal_recv;\n        campaigns[_camp_id].wei_in_escrow += _wei_in_escrow_recv;\n    }\n\n\n    function updPayCampaign_rec(uint256 _camp_id, address _addr_send_to, uint256 _wei_in_escrow_pay) external returns (uint256) {\n        //uint256 _camp_id = campaigns.length;\n        //campaigns.length += 1;\n        //***  need to use safemath here to add to total\n        // campaigns[_camp_id].unit_goal += _unit_goal_recv;\n        _addr_send_to.transfer(_wei_in_escrow_pay);\n        campaigns[_camp_id].wei_in_escrow -= _wei_in_escrow_pay;\n    }\n\n\n\n    //functions to write to the contract\n    function setPart_rec(uint256 _camp_id,address _addr_part,string _name_part,int8 _unit,\n    int32 _unit_goal, uint256 _date_start, uint256 _date_end ) external returns (uint256) {\n        //uint256 _camp_id = campaigns.length;\n        //campaigns.length += 1;\n        \n        participants.push(Participant(_camp_id, _addr_part, _name_part, _unit, _unit_goal,_date_start, _date_end));\n    }\n\n\n    //functions to write to the contract\n    function setSponsor_rec(uint256 _camp_id,address _addr_spon, address _addr_part, address _addr_pay_to, int8 _unit,\n    uint256 _wei_per_unit, uint256 _wei_in_escrow) external returns (uint256) {\n        //uint256 _camp_id = campaigns.length;\n        //campaigns.length += 1;    \n\n        sponsors.push(Sponsor(_camp_id, _addr_spon, _addr_part, _addr_pay_to, _unit, _wei_per_unit, _wei_in_escrow));\n    }\n\n\n    function setEventLog_rec(uint256 _camp_id, address _addr_part, address _addr_spon, uint256 _date_event, int8 _unit,\n    int32 _qty_unit, uint256 _wei_paid ) external returns (uint256) {\n        //uint256 _camp_id = campaigns.length;\n        //campaigns.length += 1;\n        \n        eventpaylogs.push(EventPayLog(_camp_id, _addr_part, _addr_spon, _date_event, _unit, _qty_unit, _wei_paid));\n    }\n\n}\n\n\n",
  "sourcePath": "/Users/richardbudek/Documents/Data/Proj-Blockchain/git_location/IncroSpon/contracts/IncroSpon.sol",
  "compiler": {
    "name": "solc",
    "version": "0.4.24+commit.e67f0147.Emscripten.clang"
  },
  "schemaVersion": "2.0.0",
  "updatedAt": "2018-06-06T15:21:59.989Z"
}