{
  "contractName": "IncroSpon",
  "abi": [
    {
      "constant": true,
      "inputs": [
        {
          "name": "",
          "type": "uint256"
        }
      ],
      "name": "campaigns",
      "outputs": [
        {
          "name": "camp_id",
          "type": "uint256"
        },
        {
          "name": "name",
          "type": "string"
        },
        {
          "name": "started_by",
          "type": "address"
        },
        {
          "name": "end_date",
          "type": "uint256"
        },
        {
          "name": "unit_goal",
          "type": "int32"
        },
        {
          "name": "unit_so_far",
          "type": "int32"
        },
        {
          "name": "wei_paid_out",
          "type": "uint256"
        },
        {
          "name": "wei_in_escrow",
          "type": "uint256"
        }
      ],
      "payable": false,
      "stateMutability": "view",
      "type": "function"
    },
    {
      "constant": true,
      "inputs": [
        {
          "name": "",
          "type": "uint256"
        }
      ],
      "name": "participants",
      "outputs": [
        {
          "name": "camp_id",
          "type": "uint256"
        },
        {
          "name": "addr_part",
          "type": "address"
        },
        {
          "name": "name_part",
          "type": "string"
        },
        {
          "name": "unit",
          "type": "int8"
        },
        {
          "name": "unit_goal",
          "type": "int32"
        },
        {
          "name": "date_start",
          "type": "uint256"
        },
        {
          "name": "date_end",
          "type": "uint256"
        }
      ],
      "payable": false,
      "stateMutability": "view",
      "type": "function"
    },
    {
      "constant": true,
      "inputs": [
        {
          "name": "",
          "type": "uint256"
        }
      ],
      "name": "eventpaylogs",
      "outputs": [
        {
          "name": "camp_id",
          "type": "uint256"
        },
        {
          "name": "addr_part",
          "type": "address"
        },
        {
          "name": "addr_spon",
          "type": "address"
        },
        {
          "name": "date_event",
          "type": "uint256"
        },
        {
          "name": "unit",
          "type": "int8"
        },
        {
          "name": "qty_unit",
          "type": "int32"
        },
        {
          "name": "wei_paid",
          "type": "uint256"
        }
      ],
      "payable": false,
      "stateMutability": "view",
      "type": "function"
    },
    {
      "constant": true,
      "inputs": [],
      "name": "owner",
      "outputs": [
        {
          "name": "",
          "type": "address"
        }
      ],
      "payable": false,
      "stateMutability": "view",
      "type": "function"
    },
    {
      "constant": true,
      "inputs": [
        {
          "name": "",
          "type": "uint256"
        }
      ],
      "name": "sponsors",
      "outputs": [
        {
          "name": "camp_id",
          "type": "uint256"
        },
        {
          "name": "addr_spon",
          "type": "address"
        },
        {
          "name": "addr_part",
          "type": "address"
        },
        {
          "name": "addr_pay_to",
          "type": "address"
        },
        {
          "name": "unit",
          "type": "int8"
        },
        {
          "name": "wei_per_unit",
          "type": "uint256"
        },
        {
          "name": "wei_in_escrow",
          "type": "uint256"
        }
      ],
      "payable": false,
      "stateMutability": "view",
      "type": "function"
    },
    {
      "constant": false,
      "inputs": [
        {
          "name": "newOwner",
          "type": "address"
        }
      ],
      "name": "transferOwnership",
      "outputs": [],
      "payable": false,
      "stateMutability": "nonpayable",
      "type": "function"
    },
    {
      "anonymous": false,
      "inputs": [
        {
          "indexed": true,
          "name": "previousOwner",
          "type": "address"
        },
        {
          "indexed": true,
          "name": "newOwner",
          "type": "address"
        }
      ],
      "name": "OwnershipTransferred",
      "type": "event"
    },
    {
      "constant": false,
      "inputs": [
        {
          "name": "x",
          "type": "uint256"
        }
      ],
      "name": "testSet",
      "outputs": [],
      "payable": false,
      "stateMutability": "nonpayable",
      "type": "function"
    },
    {
      "constant": true,
      "inputs": [],
      "name": "testGet",
      "outputs": [
        {
          "name": "",
          "type": "uint256"
        }
      ],
      "payable": false,
      "stateMutability": "view",
      "type": "function"
    },
    {
      "constant": false,
      "inputs": [],
      "name": "testPay",
      "outputs": [],
      "payable": true,
      "stateMutability": "payable",
      "type": "function"
    },
    {
      "constant": true,
      "inputs": [],
      "name": "getCampaignsLen",
      "outputs": [
        {
          "name": "",
          "type": "uint256"
        }
      ],
      "payable": false,
      "stateMutability": "view",
      "type": "function"
    },
    {
      "constant": true,
      "inputs": [
        {
          "name": "_camp_id",
          "type": "uint256"
        }
      ],
      "name": "getCampaign_rec",
      "outputs": [
        {
          "name": "",
          "type": "string"
        },
        {
          "name": "",
          "type": "address"
        },
        {
          "name": "",
          "type": "uint256"
        },
        {
          "name": "",
          "type": "int32"
        },
        {
          "name": "",
          "type": "int32"
        },
        {
          "name": "",
          "type": "uint256"
        },
        {
          "name": "",
          "type": "uint256"
        }
      ],
      "payable": false,
      "stateMutability": "view",
      "type": "function"
    },
    {
      "constant": true,
      "inputs": [
        {
          "name": "_camp_id",
          "type": "uint256"
        }
      ],
      "name": "getCampaignBal_rec",
      "outputs": [
        {
          "name": "",
          "type": "string"
        },
        {
          "name": "",
          "type": "address"
        },
        {
          "name": "",
          "type": "uint256"
        },
        {
          "name": "",
          "type": "int32"
        },
        {
          "name": "",
          "type": "int32"
        },
        {
          "name": "",
          "type": "uint256"
        },
        {
          "name": "",
          "type": "uint256"
        }
      ],
      "payable": false,
      "stateMutability": "view",
      "type": "function"
    },
    {
      "constant": true,
      "inputs": [],
      "name": "getSponsorsLen",
      "outputs": [
        {
          "name": "",
          "type": "uint256"
        }
      ],
      "payable": false,
      "stateMutability": "view",
      "type": "function"
    },
    {
      "constant": true,
      "inputs": [
        {
          "name": "_camp_id",
          "type": "uint256"
        }
      ],
      "name": "getNumSponsorsForCampaign",
      "outputs": [
        {
          "name": "",
          "type": "uint256"
        }
      ],
      "payable": false,
      "stateMutability": "view",
      "type": "function"
    },
    {
      "constant": true,
      "inputs": [
        {
          "name": "_camp_id",
          "type": "uint256"
        },
        {
          "name": "_matchNum",
          "type": "uint256"
        }
      ],
      "name": "getSponsorInCampaign_rec",
      "outputs": [
        {
          "name": "",
          "type": "address"
        },
        {
          "name": "",
          "type": "address"
        },
        {
          "name": "",
          "type": "address"
        },
        {
          "name": "",
          "type": "int8"
        },
        {
          "name": "",
          "type": "uint256"
        },
        {
          "name": "",
          "type": "uint256"
        }
      ],
      "payable": false,
      "stateMutability": "view",
      "type": "function"
    },
    {
      "constant": true,
      "inputs": [],
      "name": "getParticipantsLen",
      "outputs": [
        {
          "name": "",
          "type": "uint256"
        }
      ],
      "payable": false,
      "stateMutability": "view",
      "type": "function"
    },
    {
      "constant": true,
      "inputs": [
        {
          "name": "_camp_id",
          "type": "uint256"
        }
      ],
      "name": "getNumParticipantForCampaign",
      "outputs": [
        {
          "name": "",
          "type": "uint256"
        }
      ],
      "payable": false,
      "stateMutability": "view",
      "type": "function"
    },
    {
      "constant": true,
      "inputs": [
        {
          "name": "_camp_id",
          "type": "uint256"
        },
        {
          "name": "_matchNum",
          "type": "uint256"
        }
      ],
      "name": "getParticipantInCampaign_rec",
      "outputs": [
        {
          "name": "",
          "type": "uint256"
        },
        {
          "name": "",
          "type": "address"
        },
        {
          "name": "",
          "type": "string"
        },
        {
          "name": "",
          "type": "int8"
        },
        {
          "name": "",
          "type": "int32"
        },
        {
          "name": "",
          "type": "uint256"
        },
        {
          "name": "",
          "type": "uint256"
        }
      ],
      "payable": false,
      "stateMutability": "view",
      "type": "function"
    },
    {
      "constant": true,
      "inputs": [
        {
          "name": "_addr_part",
          "type": "address"
        }
      ],
      "name": "getNumCampaignForParticipant",
      "outputs": [
        {
          "name": "",
          "type": "uint256"
        }
      ],
      "payable": false,
      "stateMutability": "view",
      "type": "function"
    },
    {
      "constant": true,
      "inputs": [
        {
          "name": "_addr_part",
          "type": "address"
        },
        {
          "name": "_matchNum",
          "type": "uint256"
        }
      ],
      "name": "getParticipantForParticipant_rec",
      "outputs": [
        {
          "name": "",
          "type": "address"
        },
        {
          "name": "",
          "type": "string"
        },
        {
          "name": "",
          "type": "int8"
        },
        {
          "name": "",
          "type": "int32"
        },
        {
          "name": "",
          "type": "uint256"
        },
        {
          "name": "",
          "type": "uint256"
        }
      ],
      "payable": false,
      "stateMutability": "view",
      "type": "function"
    },
    {
      "constant": true,
      "inputs": [],
      "name": "getEventPayLogsLen",
      "outputs": [
        {
          "name": "",
          "type": "uint256"
        }
      ],
      "payable": false,
      "stateMutability": "view",
      "type": "function"
    },
    {
      "constant": true,
      "inputs": [
        {
          "name": "_campID",
          "type": "uint256"
        }
      ],
      "name": "getNumEventPayLogsForCampaign",
      "outputs": [
        {
          "name": "",
          "type": "uint256"
        }
      ],
      "payable": false,
      "stateMutability": "view",
      "type": "function"
    },
    {
      "constant": true,
      "inputs": [
        {
          "name": "_camp_id",
          "type": "uint256"
        },
        {
          "name": "_matchNum",
          "type": "uint256"
        }
      ],
      "name": "getEventPayLogsInCampaign_rec",
      "outputs": [
        {
          "name": "",
          "type": "address"
        },
        {
          "name": "",
          "type": "address"
        },
        {
          "name": "",
          "type": "uint256"
        },
        {
          "name": "",
          "type": "int8"
        },
        {
          "name": "",
          "type": "int32"
        },
        {
          "name": "",
          "type": "uint256"
        }
      ],
      "payable": false,
      "stateMutability": "view",
      "type": "function"
    },
    {
      "constant": false,
      "inputs": [
        {
          "name": "_name",
          "type": "string"
        },
        {
          "name": "_started_by",
          "type": "address"
        },
        {
          "name": "_end_date",
          "type": "uint256"
        }
      ],
      "name": "setCampaign_rec",
      "outputs": [
        {
          "name": "",
          "type": "uint256"
        }
      ],
      "payable": false,
      "stateMutability": "nonpayable",
      "type": "function"
    },
    {
      "constant": false,
      "inputs": [
        {
          "name": "_camp_id",
          "type": "uint256"
        },
        {
          "name": "_addr_part",
          "type": "address"
        },
        {
          "name": "_name_part",
          "type": "string"
        },
        {
          "name": "_unit",
          "type": "int8"
        },
        {
          "name": "_unit_goal",
          "type": "int32"
        },
        {
          "name": "_date_start",
          "type": "uint256"
        },
        {
          "name": "_date_end",
          "type": "uint256"
        }
      ],
      "name": "setPart_rec",
      "outputs": [
        {
          "name": "",
          "type": "uint256"
        }
      ],
      "payable": false,
      "stateMutability": "nonpayable",
      "type": "function"
    }
  ],
  "bytecode": "0x6080604052336000806101000a81548173ffffffffffffffffffffffffffffffffffffffff021916908373ffffffffffffffffffffffffffffffffffffffff1602179055506128f5806100536000396000f300608060405260043610610149576000357c0100000000000000000000000000000000000000000000000000000000900463ffffffff168063141961bc1461014e5780633060dfbf1461025d57806335c1d349146103655780633d6307ce1461046d5780634235d313146104985780634a1cb28a146104ef5780634dea3609146105e7578063522d8d89146106b65780635d91bb82146107d75780636b0f3675146108025780636dfd5a97146108435780637a431b701461086e5780638824eba7146109155780638da5cb5b146109405780638deb0a3d1461099757806393066b4c146109d85780639720b17c14610acd578063a52f099414610b9f578063aa4532a814610c18578063d8c12e0b14610c59578063e896958714610c84578063f2fde38b14610d96578063f8c49dfe14610dd9578063fae3993014610ee1578063fb70bc4914610f0e575b600080fd5b34801561015a57600080fd5b5061017960048036038101908080359060200190929190505050610f18565b60405180898152602001806020018873ffffffffffffffffffffffffffffffffffffffff1673ffffffffffffffffffffffffffffffffffffffff1681526020018781526020018660030b60030b81526020018560030b60030b8152602001848152602001838152602001828103825289818151815260200191508051906020019080838360005b8381101561021b578082015181840152602081019050610200565b50505050905090810190601f1680156102485780820380516001836020036101000a031916815260200191505b50995050505050505050505060405180910390f35b34801561026957600080fd5b5061028860048036038101908080359060200190929190505050611041565b60405180806020018873ffffffffffffffffffffffffffffffffffffffff1673ffffffffffffffffffffffffffffffffffffffff1681526020018781526020018660030b60030b81526020018560030b60030b8152602001848152602001838152602001828103825289818151815260200191508051906020019080838360005b83811015610324578082015181840152602081019050610309565b50505050905090810190601f1680156103515780820380516001836020036101000a031916815260200191505b509850505050505050505060405180910390f35b34801561037157600080fd5b506103906004803603810190808035906020019092919050505061121a565b604051808881526020018773ffffffffffffffffffffffffffffffffffffffff1673ffffffffffffffffffffffffffffffffffffffff168152602001806020018660000b60000b81526020018560030b60030b8152602001848152602001838152602001828103825287818151815260200191508051906020019080838360005b8381101561042c578082015181840152602081019050610411565b50505050905090810190601f1680156104595780820380516001836020036101000a031916815260200191505b509850505050505050505060405180910390f35b34801561047957600080fd5b5061048261133d565b6040518082815260200191505060405180910390f35b3480156104a457600080fd5b506104d9600480360381019080803573ffffffffffffffffffffffffffffffffffffffff16906020019092919050505061134a565b6040518082815260200191505060405180910390f35b3480156104fb57600080fd5b5061052460048036038101908080359060200190929190803590602001909291905050506113f8565b604051808773ffffffffffffffffffffffffffffffffffffffff1673ffffffffffffffffffffffffffffffffffffffff1681526020018673ffffffffffffffffffffffffffffffffffffffff1673ffffffffffffffffffffffffffffffffffffffff1681526020018573ffffffffffffffffffffffffffffffffffffffff1673ffffffffffffffffffffffffffffffffffffffff1681526020018460000b60000b8152602001838152602001828152602001965050505050505060405180910390f35b3480156105f357600080fd5b5061061260048036038101908080359060200190929190505050611621565b604051808881526020018773ffffffffffffffffffffffffffffffffffffffff1673ffffffffffffffffffffffffffffffffffffffff1681526020018673ffffffffffffffffffffffffffffffffffffffff1673ffffffffffffffffffffffffffffffffffffffff1681526020018581526020018460000b60000b81526020018360030b60030b815260200182815260200197505050505050505060405180910390f35b3480156106c257600080fd5b50610701600480360381019080803573ffffffffffffffffffffffffffffffffffffffff169060200190929190803590602001909291905050506116cc565b604051808773ffffffffffffffffffffffffffffffffffffffff1673ffffffffffffffffffffffffffffffffffffffff168152602001806020018660000b60000b81526020018560030b60030b8152602001848152602001838152602001828103825287818151815260200191508051906020019080838360005b8381101561079757808201518184015260208101905061077c565b50505050905090810190601f1680156107c45780820380516001836020036101000a031916815260200191505b5097505050505050505060405180910390f35b3480156107e357600080fd5b506107ec611943565b6040518082815260200191505060405180910390f35b34801561080e57600080fd5b5061082d60048036038101908080359060200190929190505050611950565b6040518082815260200191505060405180910390f35b34801561084f57600080fd5b506108586119c7565b6040518082815260200191505060405180910390f35b34801561087a57600080fd5b506108ff60048036038101908080359060200190929190803573ffffffffffffffffffffffffffffffffffffffff169060200190929190803590602001908201803590602001919091929391929390803560000b9060200190929190803560030b906020019092919080359060200190929190803590602001909291905050506119d4565b6040518082815260200191505060405180910390f35b34801561092157600080fd5b5061092a611b64565b6040518082815260200191505060405180910390f35b34801561094c57600080fd5b50610955611b6e565b604051808273ffffffffffffffffffffffffffffffffffffffff1673ffffffffffffffffffffffffffffffffffffffff16815260200191505060405180910390f35b3480156109a357600080fd5b506109c260048036038101908080359060200190929190505050611b93565b6040518082815260200191505060405180910390f35b3480156109e457600080fd5b50610a0360048036038101908080359060200190929190505050611c0a565b604051808881526020018773ffffffffffffffffffffffffffffffffffffffff1673ffffffffffffffffffffffffffffffffffffffff1681526020018673ffffffffffffffffffffffffffffffffffffffff1673ffffffffffffffffffffffffffffffffffffffff1681526020018573ffffffffffffffffffffffffffffffffffffffff1673ffffffffffffffffffffffffffffffffffffffff1681526020018460000b60000b815260200183815260200182815260200197505050505050505060405180910390f35b348015610ad957600080fd5b50610b026004803603810190808035906020019092919080359060200190929190505050611cc8565b604051808773ffffffffffffffffffffffffffffffffffffffff1673ffffffffffffffffffffffffffffffffffffffff1681526020018673ffffffffffffffffffffffffffffffffffffffff1673ffffffffffffffffffffffffffffffffffffffff1681526020018581526020018460000b60000b81526020018360030b60030b8152602001828152602001965050505050505060405180910390f35b348015610bab57600080fd5b50610c02600480360381019080803590602001908201803590602001919091929391929390803573ffffffffffffffffffffffffffffffffffffffff16906020019092919080359060200190929190505050611eb8565b6040518082815260200191505060405180910390f35b348015610c2457600080fd5b50610c436004803603810190808035906020019092919050505061207f565b6040518082815260200191505060405180910390f35b348015610c6557600080fd5b50610c6e6120f7565b6040518082815260200191505060405180910390f35b348015610c9057600080fd5b50610cb96004803603810190808035906020019092919080359060200190929190505050612104565b604051808881526020018773ffffffffffffffffffffffffffffffffffffffff1673ffffffffffffffffffffffffffffffffffffffff168152602001806020018660000b60000b81526020018560030b60030b8152602001848152602001838152602001828103825287818151815260200191508051906020019080838360005b83811015610d55578082015181840152602081019050610d3a565b50505050905090810190601f168015610d825780820380516001836020036101000a031916815260200191505b509850505050505050505060405180910390f35b348015610da257600080fd5b50610dd7600480360381019080803573ffffffffffffffffffffffffffffffffffffffff169060200190929190505050612335565b005b348015610de557600080fd5b50610e046004803603810190808035906020019092919050505061248a565b60405180806020018873ffffffffffffffffffffffffffffffffffffffff1673ffffffffffffffffffffffffffffffffffffffff1681526020018781526020018660030b60030b81526020018560030b60030b8152602001848152602001838152602001828103825289818151815260200191508051906020019080838360005b83811015610ea0578082015181840152602081019050610e85565b50505050905090810190601f168015610ecd5780820380516001836020036101000a031916815260200191505b509850505050505050505060405180910390f35b348015610eed57600080fd5b50610f0c60048036038101908080359060200190929190505050612663565b005b610f1661266d565b005b600281815481101515610f2757fe5b9060005260206000209060070201600091509050806000015490806001018054600181600116156101000203166002900480601f016020809104026020016040519081016040528092919081815260200182805460018160011615610100020316600290048015610fd95780601f10610fae57610100808354040283529160200191610fd9565b820191906000526020600020905b815481529060010190602001808311610fbc57829003601f168201915b5050505050908060020160009054906101000a900473ffffffffffffffffffffffffffffffffffffffff16908060030154908060040160009054906101000a900460030b908060040160049054906101000a900460030b908060050154908060060154905088565b6060600080600080600080611054612678565b60028981548110151561106357fe5b9060005260206000209060070201610100604051908101604052908160008201548152602001600182018054600181600116156101000203166002900480601f0160208091040260200160405190810160405280929190818152602001828054600181600116156101000203166002900480156111215780601f106110f657610100808354040283529160200191611121565b820191906000526020600020905b81548152906001019060200180831161110457829003601f168201915b505050505081526020016002820160009054906101000a900473ffffffffffffffffffffffffffffffffffffffff1673ffffffffffffffffffffffffffffffffffffffff1673ffffffffffffffffffffffffffffffffffffffff168152602001600382015481526020016004820160009054906101000a900460030b60030b60030b81526020016004820160049054906101000a900460030b60030b60030b815260200160058201548152602001600682015481525050905080602001518160400151826060015183608001518460a001518560c001518660e00151869650975097509750975097509750975050919395979092949650565b60048181548110151561122957fe5b90600052602060002090600602016000915090508060000154908060010160009054906101000a900473ffffffffffffffffffffffffffffffffffffffff1690806002018054600181600116156101000203166002900480601f0160208091040260200160405190810160405280929190818152602001828054600181600116156101000203166002900480156113015780601f106112d657610100808354040283529160200191611301565b820191906000526020600020905b8154815290600101906020018083116112e457829003601f168201915b5050505050908060030160009054906101000a900460000b908060030160019054906101000a900460030b908060040154908060050154905087565b6000600280549050905090565b6000806000809150600090505b6004805490508110156113ee578373ffffffffffffffffffffffffffffffffffffffff1660048281548110151561138a57fe5b906000526020600020906006020160010160009054906101000a900473ffffffffffffffffffffffffffffffffffffffff1673ffffffffffffffffffffffffffffffffffffffff1614156113e15781806001019250505b8080600101915050611357565b8192505050919050565b600080600080600080600061140b6126da565b60006002805490508b1115151561142157600080fd5b60009250600090505b6003805490508110156115ea578a60038281548110151561144757fe5b90600052602060002090600602016000015414156115dd578280600101935050898314156115dc5760038b81548110151561147e57fe5b906000526020600020906006020160e06040519081016040529081600082015481526020016001820160009054906101000a900473ffffffffffffffffffffffffffffffffffffffff1673ffffffffffffffffffffffffffffffffffffffff1673ffffffffffffffffffffffffffffffffffffffff1681526020016002820160009054906101000a900473ffffffffffffffffffffffffffffffffffffffff1673ffffffffffffffffffffffffffffffffffffffff1673ffffffffffffffffffffffffffffffffffffffff1681526020016003820160009054906101000a900473ffffffffffffffffffffffffffffffffffffffff1673ffffffffffffffffffffffffffffffffffffffff1673ffffffffffffffffffffffffffffffffffffffff1681526020016003820160149054906101000a900460000b60000b60000b81526020016004820154815260200160058201548152505091506115ea565b5b808060010191505061142a565b81602001518260400151836060015184608001518560a001518660c001519850985098509850985098505050509295509295509295565b60058181548110151561163057fe5b90600052602060002090600602016000915090508060000154908060010160009054906101000a900473ffffffffffffffffffffffffffffffffffffffff16908060020160009054906101000a900473ffffffffffffffffffffffffffffffffffffffff16908060030154908060040160009054906101000a900460000b908060040160019054906101000a900460030b908060050154905087565b6000606060008060008060006116e061275c565b6000809250600090505b600480549050811015611909578a73ffffffffffffffffffffffffffffffffffffffff1660048281548110151561171d57fe5b906000526020600020906006020160010160009054906101000a900473ffffffffffffffffffffffffffffffffffffffff1673ffffffffffffffffffffffffffffffffffffffff1614156118fc578280600101935050898314156118fb5760048181548110151561178a57fe5b906000526020600020906006020160e06040519081016040529081600082015481526020016001820160009054906101000a900473ffffffffffffffffffffffffffffffffffffffff1673ffffffffffffffffffffffffffffffffffffffff1673ffffffffffffffffffffffffffffffffffffffff168152602001600282018054600181600116156101000203166002900480601f01602080910402602001604051908101604052809291908181526020018280546001816001161561010002031660029004801561189d5780601f106118725761010080835404028352916020019161189d565b820191906000526020600020905b81548152906001019060200180831161188057829003601f168201915b505050505081526020016003820160009054906101000a900460000b60000b60000b81526020016003820160019054906101000a900460030b60030b60030b8152602001600482015481526020016005820154815250509150611909565b5b80806001019150506116ea565b81602001518260400151836060015184608001518560a001518660c001518494509850985098509850985098505050509295509295509295565b6000600480549050905090565b6000806000600280549050841115151561196957600080fd5b60009150600090505b6004805490508110156119bd578360048281548110151561198f57fe5b90600052602060002090600602016000015414156119b05781806001019250505b8080600101915050611972565b8192505050919050565b6000600380549050905090565b6000600460e0604051908101604052808b81526020018a73ffffffffffffffffffffffffffffffffffffffff16815260200189898080601f01602080910402602001604051908101604052809392919081815260200183838082843782019150505050505081526020018760000b81526020018660030b815260200185815260200184815250908060018154018082558091505090600182039060005260206000209060060201600090919290919091506000820151816000015560208201518160010160006101000a81548173ffffffffffffffffffffffffffffffffffffffff021916908373ffffffffffffffffffffffffffffffffffffffff1602179055506040820151816002019080519060200190611af29291906127b5565b5060608201518160030160006101000a81548160ff021916908360000b60ff16021790555060808201518160030160016101000a81548163ffffffff021916908360030b63ffffffff16021790555060a0820151816004015560c0820151816005015550505098975050505050505050565b6000600154905090565b6000809054906101000a900473ffffffffffffffffffffffffffffffffffffffff1681565b60008060006002805490508411151515611bac57600080fd5b60009150600090505b600580549050811015611c005783600582815481101515611bd257fe5b9060005260206000209060060201600001541415611bf35781806001019250505b8080600101915050611bb5565b8192505050919050565b600381815481101515611c1957fe5b90600052602060002090600602016000915090508060000154908060010160009054906101000a900473ffffffffffffffffffffffffffffffffffffffff16908060020160009054906101000a900473ffffffffffffffffffffffffffffffffffffffff16908060030160009054906101000a900473ffffffffffffffffffffffffffffffffffffffff16908060030160149054906101000a900460000b908060040154908060050154905087565b6000806000806000806000611cdb612835565b60006002805490508b11151515611cf157600080fd5b60009250600090505b600480549050811015611e81578a600582815481101515611d1757fe5b9060005260206000209060060201600001541415611e7457828060010193505089831415611e735760058b815481101515611d4e57fe5b906000526020600020906006020160e06040519081016040529081600082015481526020016001820160009054906101000a900473ffffffffffffffffffffffffffffffffffffffff1673ffffffffffffffffffffffffffffffffffffffff1673ffffffffffffffffffffffffffffffffffffffff1681526020016002820160009054906101000a900473ffffffffffffffffffffffffffffffffffffffff1673ffffffffffffffffffffffffffffffffffffffff1673ffffffffffffffffffffffffffffffffffffffff168152602001600382015481526020016004820160009054906101000a900460000b60000b60000b81526020016004820160019054906101000a900460030b60030b60030b81526020016005820154815250509150611e81565b5b8080600101915050611cfa565b81602001518260400151836060015184608001518560a001518660c001519850985098509850985098505050509295509295509295565b6000806000806000806002805490509450600093506000925060009150600090506002610100604051908101604052808781526020018c8c8080601f01602080910402602001604051908101604052809392919081815260200183838082843782019150505050505081526020018a73ffffffffffffffffffffffffffffffffffffffff1681526020018981526020018660030b81526020018560030b81526020018481526020018381525090806001815401808255809150509060018203906000526020600020906007020160009091929091909150600082015181600001556020820151816001019080519060200190611fb59291906127b5565b5060408201518160020160006101000a81548173ffffffffffffffffffffffffffffffffffffffff021916908373ffffffffffffffffffffffffffffffffffffffff1602179055506060820151816003015560808201518160040160006101000a81548163ffffffff021916908360030b63ffffffff16021790555060a08201518160040160046101000a81548163ffffffff021916908360030b63ffffffff16021790555060c0820151816005015560e082015181600601555050505050505050949350505050565b6000806000600280549050841115151561209857600080fd5b60009150600090505b600380549050811115156120ed57836003828154811015156120bf57fe5b90600052602060002090600602016000015414156120e05781806001019250505b80806001019150506120a1565b8192505050919050565b6000600580549050905090565b6000806060600080600080600061211961275c565b6000809250600090505b6004805490508110156122f2578b60048281548110151561214057fe5b90600052602060002090600602016000015414156122e5578a8314156122dc5760048181548110151561216f57fe5b906000526020600020906006020160e06040519081016040529081600082015481526020016001820160009054906101000a900473ffffffffffffffffffffffffffffffffffffffff1673ffffffffffffffffffffffffffffffffffffffff1673ffffffffffffffffffffffffffffffffffffffff168152602001600282018054600181600116156101000203166002900480601f0160208091040260200160405190810160405280929190818152602001828054600181600116156101000203166002900480156122825780601f1061225757610100808354040283529160200191612282565b820191906000526020600020905b81548152906001019060200180831161226557829003601f168201915b505050505081526020016003820160009054906101000a900460000b60000b60000b81526020016003820160019054906101000a900460030b60030b60030b81526020016004820154815260200160058201548152505091505b82806001019350505b8080600101915050612123565b816000015182602001518360400151846060015185608001518660a001518760c00151849450995099509950995099509950995050505092959891949750929550565b6000809054906101000a900473ffffffffffffffffffffffffffffffffffffffff1673ffffffffffffffffffffffffffffffffffffffff163373ffffffffffffffffffffffffffffffffffffffff1614151561239057600080fd5b600073ffffffffffffffffffffffffffffffffffffffff168173ffffffffffffffffffffffffffffffffffffffff16141515156123cc57600080fd5b8073ffffffffffffffffffffffffffffffffffffffff166000809054906101000a900473ffffffffffffffffffffffffffffffffffffffff1673ffffffffffffffffffffffffffffffffffffffff167f8be0079c531659141344cd1fd0a4f28419497f9722a3daafe3b4186f6b6457e060405160405180910390a3806000806101000a81548173ffffffffffffffffffffffffffffffffffffffff021916908373ffffffffffffffffffffffffffffffffffffffff16021790555050565b606060008060008060008061249d612678565b6002898154811015156124ac57fe5b9060005260206000209060070201610100604051908101604052908160008201548152602001600182018054600181600116156101000203166002900480601f01602080910402602001604051908101604052809291908181526020018280546001816001161561010002031660029004801561256a5780601f1061253f5761010080835404028352916020019161256a565b820191906000526020600020905b81548152906001019060200180831161254d57829003601f168201915b505050505081526020016002820160009054906101000a900473ffffffffffffffffffffffffffffffffffffffff1673ffffffffffffffffffffffffffffffffffffffff1673ffffffffffffffffffffffffffffffffffffffff168152602001600382015481526020016004820160009054906101000a900460030b60030b60030b81526020016004820160049054906101000a900460030b60030b60030b815260200160058201548152602001600682015481525050905080602001518160400151826060015183608001518460a001518560c001518660e00151869650975097509750975097509750975050919395979092949650565b8060018190555050565b600154600181905550565b610100604051908101604052806000815260200160608152602001600073ffffffffffffffffffffffffffffffffffffffff16815260200160008152602001600060030b8152602001600060030b815260200160008152602001600081525090565b60e06040519081016040528060008152602001600073ffffffffffffffffffffffffffffffffffffffff168152602001600073ffffffffffffffffffffffffffffffffffffffff168152602001600073ffffffffffffffffffffffffffffffffffffffff1681526020016000800b815260200160008152602001600081525090565b60e06040519081016040528060008152602001600073ffffffffffffffffffffffffffffffffffffffff168152602001606081526020016000800b8152602001600060030b815260200160008152602001600081525090565b828054600181600116156101000203166002900490600052602060002090601f016020900481019282601f106127f657805160ff1916838001178555612824565b82800160010185558215612824579182015b82811115612823578251825591602001919060010190612808565b5b50905061283191906128a4565b5090565b60e06040519081016040528060008152602001600073ffffffffffffffffffffffffffffffffffffffff168152602001600073ffffffffffffffffffffffffffffffffffffffff168152602001600081526020016000800b8152602001600060030b8152602001600081525090565b6128c691905b808211156128c25760008160009055506001016128aa565b5090565b905600a165627a7a723058200aa72e56e8dbc6a9a6dcfe9cbb5d7620cd3ef250f1b1b0e1aba0eb8938755e8d0029",
  "source": "pragma solidity ^0.4.17;\n\nimport \"zeppelin-solidity/contracts/ownership/Ownable.sol\";\n\ncontract IncroSpon is Ownable{ \n    //string public name = 'Incro-Sponsor';\n    uint storedData;\n\n    Campaign[] public campaigns;\n    Sponsor[] public sponsors;\n    Participant[] public participants;\n    EventPayLog[] public eventpaylogs;\n\n    struct Campaign {\n        uint256 camp_id;        // 1\n        string name;            // 2  -- w\n        address started_by;     // 3  -- w\n        uint256 end_date;       // 4  -- w\n        int32 unit_goal;        // 5  \n        int32 unit_so_far;      // 6  \n        uint256 wei_paid_out;   // 7  \n        uint256 wei_in_escrow;  // 8  \n    }\n\n    struct Sponsor {\n        uint256 camp_id;        // 1\n        address addr_spon;      // 2\n        address addr_part;      // 3\n        address addr_pay_to;    // 4\n        int8 unit;              // 5\n        uint256 wei_per_unit;   // 6\n        uint256 wei_in_escrow;  // 7\n    }\n\n    struct Participant {\n        uint256 camp_id;        // 1\n        address addr_part;      // 2\n        string name_part;       // 3\n        int8 unit;              // 4\n        int32 unit_goal;        // 5\n        uint256 date_start;     // 6\n        uint256 date_end;       // 7\n    }\n\n    struct EventPayLog {\n        uint256 camp_id;        // 1\n        address addr_part;      // 2\n        address addr_spon;      // 3\n        uint256 date_event;     // 4\n        int8 unit;              // 5\n        int32 qty_unit;         // 6\n        uint256 wei_paid;       // 7\n    }\n\n\n    function testSet(uint x) public {\n        storedData = x;\n        // campaigns.push(Campaign(0,\"testSet push\", 0, 0, 0, 0, 0, 0));\n   }\n\n    function testGet() public view returns (uint) {\n        return storedData;\n    }\n\n    function testPay() public payable {\n        storedData = storedData;\n    }\n\n    function getCampaignsLen() view external returns(uint256){\n        return campaigns.length;\n    }\n\n\n    function getCampaign_rec( uint256 _camp_id ) public view returns(\n    string, address, uint256, int32, int32, uint256, uint256 \n    ) {\n        // require(_camp_id < campaigns.length);\n        Campaign memory cr = campaigns[_camp_id];\n        return ( cr.name, cr.started_by, cr.end_date, cr.unit_goal, cr.unit_so_far, cr.wei_paid_out, cr.wei_in_escrow );\n    }\n\n\n    function getCampaignBal_rec( uint256 _camp_id ) public view returns(\n    string, address, uint256, int32, int32, uint256, uint256 \n    ) {\n        // require(_camp_id < campaigns.length);\n        Campaign memory cr = campaigns[_camp_id];\n        return ( cr.name, cr.started_by, cr.end_date, cr.unit_goal, cr.unit_so_far, cr.wei_paid_out, cr.wei_in_escrow );\n    }\n\n\n    function getSponsorsLen() view external returns(uint256){\n        return sponsors.length;\n    }\n\n\n    //this function will return how many sponsors for a campaign\n    function getNumSponsorsForCampaign( uint256 _camp_id ) public view returns( uint256 )  {\n        require(_camp_id <= campaigns.length);\n        uint256 numMatches = 0;\n        for(uint256 i = 0; i<=sponsors.length; i++)\n        {\n            if (sponsors[i].camp_id == _camp_id )  numMatches++;\n        }  \n        return numMatches;        \n    }\n\n\n    function getSponsorInCampaign_rec( uint256 _camp_id, uint256 _matchNum ) \n    public view returns( address, address, address, int8, uint256, uint256 ) {\n        //this will return a matching record for a sponsor, which is the _matchNum\n        // can find out the number of matching items by running the getNum function\n        require(_camp_id <= campaigns.length);\n        uint256 numMatches = 0;\n        Sponsor memory sr;\n        //maybe make this a while loop so that can exit if no match\n        for(uint256 i = 0; i < sponsors.length; i++)\n        {\n            if (sponsors[i].camp_id == _camp_id )  {\n                numMatches++;\n                if (numMatches == _matchNum) {\n                    sr = sponsors[_camp_id];\n                    break;\n                }\n            }\n        }    \n        return ( sr.addr_spon, sr.addr_part, sr.addr_pay_to, sr.unit, sr.wei_per_unit, sr.wei_in_escrow );\n    }\n    \n\n    function getParticipantsLen() view external returns(uint256){\n        return participants.length;\n    }\n\n\n    function getNumParticipantForCampaign( uint256 _camp_id ) view external returns( uint256 )  {\n        //this function will return how many participants for a campaign\n        require(_camp_id <= campaigns.length);\n        uint256 numMatches = 0;\n        for(uint256 i = 0; i < participants.length; i++)\n        {\n            if (participants[i].camp_id == _camp_id )  numMatches++;\n        }  \n        return numMatches;        \n    }\n\n\n    function getParticipantInCampaign_rec( uint256 _camp_id, uint256 _matchNum \n        ) \n    view external returns(  \n        uint256, address, string, int8, int32, uint256, uint256 ) {\n        //this will return a matching record for a participant, which is the _matchNum\n        //can find out the number of matching items by running the getNum function\n        // require(_camp_id <= campaigns.length);\n        uint256 numMatches = 0;\n        Participant memory pr;\n        for(uint256 i = 0; i < participants.length; i++)\n        {\n            if (participants[i].camp_id == _camp_id) \n            {\n                if (numMatches == _matchNum) {\n                    pr = participants[i];\n                    //i = participants.length + 1;\n                }\n                numMatches++;\n            }\n        }    \n\n        return ( pr.camp_id, pr.addr_part, pr.name_part, pr.unit, pr.unit_goal, pr.date_start, pr.date_end );\n    }\n\n\n    //the next two functions are needed when a participant is starting a \n    function getNumCampaignForParticipant( address _addr_part ) \n    public view returns( uint256 ) {\n        //for a given the participant who has called this, find out\n        //how many campaigns he is in\n        uint256 numMatches = 0;\n        for(uint256 i = 0; i < participants.length; i++)\n        {\n            if (participants[i].addr_part == _addr_part )  numMatches++;\n        }  \n        return ( numMatches );\n    }\n\n\n    function getParticipantForParticipant_rec( address _addr_part, uint256 _matchNum ) \n    public view returns(  address, string, int8, int32, uint256, uint256 ) {\n        //this will return a matching record for a matching part addr, which is the _matchNum\n        // can find out the number of matching items by running the getNum function\n        uint256 numMatches = 0;\n        Participant memory pr;\n        for(uint256 i = 0; i < participants.length; i++)\n        {\n            if (participants[i].addr_part == _addr_part )  {\n                numMatches++;\n                if (numMatches == _matchNum) {\n                    pr = participants[i];\n                    break;\n                }\n            }\n        }    \n        return ( pr.addr_part, pr.name_part, pr.unit, pr.unit_goal, pr.date_start, pr.date_end );\n    }  //get particpant record that matches the participant\n\n\n    function getEventPayLogsLen() view external returns(uint256){\n        return eventpaylogs.length;\n    }\n\n\n    function getNumEventPayLogsForCampaign( uint256 _campID ) public view returns( uint256 )  {\n        //get number of matching event records for a campaign\n        require(_campID <= campaigns.length);\n        uint256 numMatches = 0;\n        for(uint256 i = 0; i < eventpaylogs.length; i++)\n        {\n            if ( eventpaylogs[i].camp_id == _campID )  numMatches++;\n        }  \n        return numMatches;        \n    }\n\n\n    function getEventPayLogsInCampaign_rec( uint256 _camp_id, uint256 _matchNum ) \n    public view returns( address, address, uint256, int8, int32, uint256 ) {\n        //this will return a matching record for a participant, which is the _matchNum\n        // can find out the number of matching items by running the getNum function\n        require(_camp_id <= campaigns.length);\n        uint256 numMatches = 0;\n        EventPayLog memory er;\n        for(uint256 i = 0; i < participants.length; i++)\n        {\n            if (eventpaylogs[i].camp_id == _camp_id )  {\n                numMatches++;\n                if (numMatches == _matchNum) {\n                    er = eventpaylogs[_camp_id];\n                    break;\n                }\n            }\n        }    \n        return ( er.addr_part, er.addr_spon, er.date_event, er.unit, er.qty_unit, er.wei_paid );\n    }\n\n\n    //functions to write to the contract\n    function setCampaign_rec(string _name, address _started_by, uint256 _end_date) external returns (uint256) {\n        uint256 _camp_id = campaigns.length;\n        //campaigns.length += 1;\n        int32 _unit_goal = 0;\n        int32 _unit_so_far = 0;     \n        uint256 _wei_paid_out = 0; \n        uint256 _wei_in_escrow = 0;\n        \n        campaigns.push(Campaign(_camp_id, _name, _started_by, _end_date, _unit_goal, _unit_so_far, _wei_paid_out, _wei_in_escrow));\n    }\n\n\n    //functions to write to the contract\n    function setPart_rec(uint256 _camp_id,address _addr_part,string _name_part,int8 _unit,\n    int32 _unit_goal, uint256 _date_start, uint256 _date_end ) external returns (uint256) {\n        //uint256 _camp_id = campaigns.length;\n        //campaigns.length += 1;\n        \n        participants.push(Participant(_camp_id, _addr_part, _name_part, _unit, _unit_goal,_date_start, _date_end));\n    }\n\n}\n\n\n",
  "sourcePath": "/Users/richardbudek/Documents/Data/Proj-Blockchain/git_location/IncroSpon/contracts/IncroSpon.sol",
  "compiler": {
    "name": "solc",
    "version": "0.4.24+commit.e67f0147.Emscripten.clang"
  },
  "schemaVersion": "2.0.0",
  "updatedAt": "2018-06-05T08:24:01.327Z"
}