{
  "contractName": "IncroSpon",
  "abi": [
    {
      "constant": true,
      "inputs": [],
      "name": "owner",
      "outputs": [
        {
          "name": "",
          "type": "address"
        }
      ],
      "payable": false,
      "stateMutability": "view",
      "type": "function"
    },
    {
      "constant": false,
      "inputs": [
        {
          "name": "newOwner",
          "type": "address"
        }
      ],
      "name": "transferOwnership",
      "outputs": [],
      "payable": false,
      "stateMutability": "nonpayable",
      "type": "function"
    },
    {
      "anonymous": false,
      "inputs": [
        {
          "indexed": true,
          "name": "previousOwner",
          "type": "address"
        },
        {
          "indexed": true,
          "name": "newOwner",
          "type": "address"
        }
      ],
      "name": "OwnershipTransferred",
      "type": "event"
    },
    {
      "constant": true,
      "inputs": [],
      "name": "getCampaignsLen",
      "outputs": [
        {
          "name": "",
          "type": "uint256"
        }
      ],
      "payable": false,
      "stateMutability": "view",
      "type": "function"
    },
    {
      "constant": true,
      "inputs": [
        {
          "name": "_campID",
          "type": "uint256"
        }
      ],
      "name": "getCampaign_rec",
      "outputs": [
        {
          "name": "",
          "type": "string"
        },
        {
          "name": "",
          "type": "address"
        },
        {
          "name": "",
          "type": "uint256"
        },
        {
          "name": "",
          "type": "int32"
        },
        {
          "name": "",
          "type": "int32"
        },
        {
          "name": "",
          "type": "uint256"
        },
        {
          "name": "",
          "type": "uint256"
        }
      ],
      "payable": false,
      "stateMutability": "view",
      "type": "function"
    },
    {
      "constant": true,
      "inputs": [],
      "name": "getSponsorsLen",
      "outputs": [
        {
          "name": "",
          "type": "uint256"
        }
      ],
      "payable": false,
      "stateMutability": "view",
      "type": "function"
    },
    {
      "constant": true,
      "inputs": [
        {
          "name": "_campID",
          "type": "uint256"
        }
      ],
      "name": "getNumSponsorsForCampaign",
      "outputs": [
        {
          "name": "",
          "type": "uint256"
        }
      ],
      "payable": false,
      "stateMutability": "view",
      "type": "function"
    },
    {
      "constant": true,
      "inputs": [
        {
          "name": "_campID",
          "type": "uint256"
        }
      ],
      "name": "getSponsor_rec",
      "outputs": [
        {
          "name": "",
          "type": "string"
        },
        {
          "name": "",
          "type": "address"
        },
        {
          "name": "",
          "type": "uint256"
        },
        {
          "name": "",
          "type": "int32"
        },
        {
          "name": "",
          "type": "int32"
        },
        {
          "name": "",
          "type": "uint256"
        },
        {
          "name": "",
          "type": "uint256"
        }
      ],
      "payable": false,
      "stateMutability": "view",
      "type": "function"
    },
    {
      "constant": true,
      "inputs": [],
      "name": "getParticipantsLen",
      "outputs": [
        {
          "name": "",
          "type": "uint256"
        }
      ],
      "payable": false,
      "stateMutability": "view",
      "type": "function"
    },
    {
      "constant": true,
      "inputs": [
        {
          "name": "_campID",
          "type": "uint256"
        }
      ],
      "name": "getNumParticipantForCampaign",
      "outputs": [
        {
          "name": "",
          "type": "uint256"
        }
      ],
      "payable": false,
      "stateMutability": "view",
      "type": "function"
    },
    {
      "constant": true,
      "inputs": [],
      "name": "getEventRecsLen",
      "outputs": [
        {
          "name": "",
          "type": "uint256"
        }
      ],
      "payable": false,
      "stateMutability": "view",
      "type": "function"
    },
    {
      "constant": true,
      "inputs": [
        {
          "name": "_campID",
          "type": "uint256"
        }
      ],
      "name": "getNumEventsForCampaign",
      "outputs": [
        {
          "name": "",
          "type": "uint256"
        }
      ],
      "payable": false,
      "stateMutability": "view",
      "type": "function"
    }
  ],
  "bytecode": "0x6080604052336000806101000a81548173ffffffffffffffffffffffffffffffffffffffff021916908373ffffffffffffffffffffffffffffffffffffffff160217905550610c4b806100536000396000f3006080604052600436106100af576000357c0100000000000000000000000000000000000000000000000000000000900463ffffffff1680633171b5dd146100b45780633d6307ce146100f55780635d91bb82146101205780636b0f36751461014b5780636dfd5a971461018c57806380d3e1bf146101b75780638da5cb5b146102bf578063aa4532a814610316578063d6fcf8eb14610357578063f2fde38b14610382578063f8c49dfe146103c5575b600080fd5b3480156100c057600080fd5b506100df600480360381019080803590602001909291905050506104cd565b6040518082815260200191505060405180910390f35b34801561010157600080fd5b5061010a610545565b6040518082815260200191505060405180910390f35b34801561012c57600080fd5b50610135610552565b6040518082815260200191505060405180910390f35b34801561015757600080fd5b506101766004803603810190808035906020019092919050505061055f565b6040518082815260200191505060405180910390f35b34801561019857600080fd5b506101a16105d7565b6040518082815260200191505060405180910390f35b3480156101c357600080fd5b506101e2600480360381019080803590602001909291905050506105e4565b60405180806020018873ffffffffffffffffffffffffffffffffffffffff1673ffffffffffffffffffffffffffffffffffffffff1681526020018781526020018660030b60030b81526020018560030b60030b8152602001848152602001838152602001828103825289818151815260200191508051906020019080838360005b8381101561027e578082015181840152602081019050610263565b50505050905090810190601f1680156102ab5780820380516001836020036101000a031916815260200191505b509850505050505050505060405180910390f35b3480156102cb57600080fd5b506102d46107d1565b604051808273ffffffffffffffffffffffffffffffffffffffff1673ffffffffffffffffffffffffffffffffffffffff16815260200191505060405180910390f35b34801561032257600080fd5b50610341600480360381019080803590602001909291905050506107f6565b6040518082815260200191505060405180910390f35b34801561036357600080fd5b5061036c61086e565b6040518082815260200191505060405180910390f35b34801561038e57600080fd5b506103c3600480360381019080803573ffffffffffffffffffffffffffffffffffffffff16906020019092919050505061087b565b005b3480156103d157600080fd5b506103f0600480360381019080803590602001909291905050506109d0565b60405180806020018873ffffffffffffffffffffffffffffffffffffffff1673ffffffffffffffffffffffffffffffffffffffff1681526020018781526020018660030b60030b81526020018560030b60030b8152602001848152602001838152602001828103825289818151815260200191508051906020019080838360005b8381101561048c578082015181840152602081019050610471565b50505050905090810190601f1680156104b95780820380516001836020036101000a031916815260200191505b509850505050505050505060405180910390f35b600080600060018054905084111515156104e657600080fd5b60009150600090505b6004805490508111151561053b578360048281548110151561050d57fe5b906000526020600020906006020160000154141561052e5781806001019250505b80806001019150506104ef565b8192505050919050565b6000600180549050905090565b6000600380549050905090565b6000806000600180549050841115151561057857600080fd5b60009150600090505b600380549050811115156105cd578360038281548110151561059f57fe5b90600052602060002090600602016001015414156105c05781806001019250505b8080600101915050610581565b8192505050919050565b6000600280549050905090565b60606000806000806000806105f7610bbd565b600180549050891115151561060b57600080fd5b60018981548110151561061a57fe5b9060005260206000209060070201610100604051908101604052908160008201548152602001600182018054600181600116156101000203166002900480601f0160208091040260200160405190810160405280929190818152602001828054600181600116156101000203166002900480156106d85780601f106106ad576101008083540402835291602001916106d8565b820191906000526020600020905b8154815290600101906020018083116106bb57829003601f168201915b505050505081526020016002820160009054906101000a900473ffffffffffffffffffffffffffffffffffffffff1673ffffffffffffffffffffffffffffffffffffffff1673ffffffffffffffffffffffffffffffffffffffff168152602001600382015481526020016004820160009054906101000a900460030b60030b60030b81526020016004820160049054906101000a900460030b60030b60030b815260200160058201548152602001600682015481525050905080602001518160400151826060015183608001518460a001518560c001518660e00151869650975097509750975097509750975050919395979092949650565b6000809054906101000a900473ffffffffffffffffffffffffffffffffffffffff1681565b6000806000600180549050841115151561080f57600080fd5b60009150600090505b60028054905081111515610864578360028281548110151561083657fe5b90600052602060002090600602016001015414156108575781806001019250505b8080600101915050610818565b8192505050919050565b6000600480549050905090565b6000809054906101000a900473ffffffffffffffffffffffffffffffffffffffff1673ffffffffffffffffffffffffffffffffffffffff163373ffffffffffffffffffffffffffffffffffffffff161415156108d657600080fd5b600073ffffffffffffffffffffffffffffffffffffffff168173ffffffffffffffffffffffffffffffffffffffff161415151561091257600080fd5b8073ffffffffffffffffffffffffffffffffffffffff166000809054906101000a900473ffffffffffffffffffffffffffffffffffffffff1673ffffffffffffffffffffffffffffffffffffffff167f8be0079c531659141344cd1fd0a4f28419497f9722a3daafe3b4186f6b6457e060405160405180910390a3806000806101000a81548173ffffffffffffffffffffffffffffffffffffffff021916908373ffffffffffffffffffffffffffffffffffffffff16021790555050565b60606000806000806000806109e3610bbd565b60018054905089111515156109f757600080fd5b600189815481101515610a0657fe5b9060005260206000209060070201610100604051908101604052908160008201548152602001600182018054600181600116156101000203166002900480601f016020809104026020016040519081016040528092919081815260200182805460018160011615610100020316600290048015610ac45780601f10610a9957610100808354040283529160200191610ac4565b820191906000526020600020905b815481529060010190602001808311610aa757829003601f168201915b505050505081526020016002820160009054906101000a900473ffffffffffffffffffffffffffffffffffffffff1673ffffffffffffffffffffffffffffffffffffffff1673ffffffffffffffffffffffffffffffffffffffff168152602001600382015481526020016004820160009054906101000a900460030b60030b60030b81526020016004820160049054906101000a900460030b60030b60030b815260200160058201548152602001600682015481525050905080602001518160400151826060015183608001518460a001518560c001518660e00151869650975097509750975097509750975050919395979092949650565b610100604051908101604052806000815260200160608152602001600073ffffffffffffffffffffffffffffffffffffffff16815260200160008152602001600060030b8152602001600060030b8152602001600081526020016000815250905600a165627a7a72305820c965126d9d32708740a92439f2bdaff00e08a77151d11866ed2a5dce61c8b3e20029",
  "source": "pragma solidity ^0.4.17;\n\nimport 'zeppelin-solidity/contracts/ownership/Ownable.sol';\n\ncontract IncroSpon is Ownable{ //is ERC721Token, Ownable {\n    //string public name = 'Incro-Sponsor';\n\n    Campaign[] campaigns;\n    Sponsor[] sponsors;\n    Participant[] participants;\n    EventRec[] eventrecs;\n\n    struct Campaign {\n        uint256 camp_id;        // 1\n        string name;            // 2\n        address started_by;     // 3\n        uint256 end_date;       // 4\n        int32 unit_goal;        // 5\n        int32 unit_so_far;      // 6\n        uint256 wei_paid_out;   // 7\n        uint256 wei_in_escrow;  // 8\n    }\n\n    struct Sponsor {\n        address addr_spon;      // 1\n        uint256 camp_id;        // 2\n        address addr_part;      // 3\n        address addr_pay_to;    // 4\n        int8 unit;              // 5\n        uint256 wei_per_unit;   // 6\n        uint256 wei_in_escrow;  // 7\n    }\n\n    struct Participant {\n        address addr_part;      // 1\n        uint256 camp_id;        // 2\n        string name_part;       // 3\n        int8 unit;              // 4\n        int32 unit_goal;        // 5\n        uint256 date_start;     // 6\n        uint256 date_end;       // 7\n    }\n\n    struct EventRec {\n        uint256 camp_id;        // 1\n        address addr_part;      // 2\n        address addr_spon;      // 3\n        uint256 date_event;     // 4\n        int8 unit;              // 5\n        int32 qty_unit;         // 6\n        uint256 wei_paid;       // 7\n    }\n\n\n    function getCampaignsLen() view external returns(uint256){\n        return campaigns.length;\n    }\n\n\n    function getCampaign_rec( uint256 _campID ) public view returns( string, address, uint256, int32, int32, uint256, uint256 ) {\n        require( _campID <= campaigns.length );\n        Campaign memory cr = campaigns[_campID];\n        return ( cr.name, cr.started_by, cr.end_date, cr.unit_goal, cr.unit_so_far, cr.wei_paid_out, cr.wei_in_escrow );\n    }\n\n\n\n    // function setCampaign_rec( string _mfg, string _sn) external returns(uint256 _recNum){\n        //having problems with require ... getting rpc error\n        // require( msg.sender == storeOwner );\n        // require( (bytes(_mfg).length<=50) && (bytes(_sn).length<=50) );\n        // uint256 recNum = nextRecNum++;\n        //next line returns a pointer to the location to write to\n        //it should automatically generate a new address based on the mapping\n\n        //try now with constructor\n        // bikeRecAll[recNum] = bikeRec( msg.sender, _mfg, _sn );\n        // return recNum;\n    // }   \n\n\n    function getSponsorsLen() view external returns(uint256){\n        return sponsors.length;\n    }\n\n    //this function will return how many sponsors for a campaign\n    function getNumSponsorsForCampaign( uint256 _campID ) public view returns( uint256 )  {\n        require( _campID <= campaigns.length );\n        uint256 numMatches = 0;\n        for(uint256 i=0; i<= sponsors.length; i++)\n        {\n            if (sponsors[i].camp_id == _campID )  numMatches++;\n        }  \n        return numMatches;        \n    }\n\n    function getSponsor_rec( uint256 _campID ) public view returns( string, address, uint256, int32, int32, uint256, uint256 ) {\n        require( _campID <= campaigns.length );\n        Campaign memory cr = campaigns[_campID];\n        return ( cr.name, cr.started_by, cr.end_date, cr.unit_goal, cr.unit_so_far, cr.wei_paid_out, cr.wei_in_escrow );\n    }\n    \n\n    function getParticipantsLen() view external returns(uint256){\n        return participants.length;\n    }\n\n\n    function getNumParticipantForCampaign( uint256 _campID ) public view returns( uint256 )  {\n        //this function will return how many participants for a campaign\n        require( _campID <= campaigns.length );\n        uint256 numMatches = 0;\n        for(uint256 i=0; i<=participants.length; i++)\n        {\n            if (participants[i].camp_id == _campID )  numMatches++;\n        }  \n        return numMatches;        \n    }\n\n\n    function getEventRecsLen() view external returns(uint256){\n        return eventrecs.length;\n    }\n\n\n    function getNumEventsForCampaign( uint256 _campID ) public view returns( uint256 )  {\n        //get number of matching event records for a campaign\n        require( _campID <= campaigns.length );\n        uint256 numMatches = 0;\n        for(uint256 i=0; i<= eventrecs.length; i++)\n        {\n            if ( eventrecs[i].camp_id == _campID )  numMatches++;\n        }  \n        return numMatches;        \n    }\n\n\n}\n",
  "sourcePath": "/Users/richardbudek/Documents/Data/Proj-Blockchain/git_location/IncroSpon/contracts/IncroSpon.sol",
  "compiler": {
    "name": "solc",
    "version": "0.4.24+commit.e67f0147.Emscripten.clang"
  },
  "schemaVersion": "2.0.0",
  "updatedAt": "2018-06-02T03:36:07.325Z"
}