{
  "contractName": "IncroSpon",
  "abi": [
    {
      "constant": true,
      "inputs": [
        {
          "name": "",
          "type": "uint256"
        }
      ],
      "name": "campaigns",
      "outputs": [
        {
          "name": "camp_id",
          "type": "uint256"
        },
        {
          "name": "name",
          "type": "string"
        },
        {
          "name": "started_by",
          "type": "address"
        },
        {
          "name": "end_date",
          "type": "uint256"
        },
        {
          "name": "unit_goal",
          "type": "int32"
        },
        {
          "name": "unit_so_far",
          "type": "int32"
        },
        {
          "name": "wei_paid_out",
          "type": "uint256"
        },
        {
          "name": "wei_in_escrow",
          "type": "uint256"
        }
      ],
      "payable": false,
      "stateMutability": "view",
      "type": "function"
    },
    {
      "constant": true,
      "inputs": [
        {
          "name": "",
          "type": "uint256"
        }
      ],
      "name": "participants",
      "outputs": [
        {
          "name": "camp_id",
          "type": "uint256"
        },
        {
          "name": "addr_part",
          "type": "address"
        },
        {
          "name": "name_part",
          "type": "string"
        },
        {
          "name": "unit",
          "type": "int8"
        },
        {
          "name": "unit_goal",
          "type": "int32"
        },
        {
          "name": "date_start",
          "type": "uint256"
        },
        {
          "name": "date_end",
          "type": "uint256"
        }
      ],
      "payable": false,
      "stateMutability": "view",
      "type": "function"
    },
    {
      "constant": true,
      "inputs": [
        {
          "name": "",
          "type": "uint256"
        }
      ],
      "name": "eventpaylogs",
      "outputs": [
        {
          "name": "camp_id",
          "type": "uint256"
        },
        {
          "name": "addr_part",
          "type": "address"
        },
        {
          "name": "addr_spon",
          "type": "address"
        },
        {
          "name": "date_event",
          "type": "uint256"
        },
        {
          "name": "unit",
          "type": "int8"
        },
        {
          "name": "qty_unit",
          "type": "int32"
        },
        {
          "name": "wei_paid",
          "type": "uint256"
        }
      ],
      "payable": false,
      "stateMutability": "view",
      "type": "function"
    },
    {
      "constant": true,
      "inputs": [],
      "name": "owner",
      "outputs": [
        {
          "name": "",
          "type": "address"
        }
      ],
      "payable": false,
      "stateMutability": "view",
      "type": "function"
    },
    {
      "constant": true,
      "inputs": [
        {
          "name": "",
          "type": "uint256"
        }
      ],
      "name": "sponsors",
      "outputs": [
        {
          "name": "camp_id",
          "type": "uint256"
        },
        {
          "name": "addr_spon",
          "type": "address"
        },
        {
          "name": "addr_part",
          "type": "address"
        },
        {
          "name": "addr_pay_to",
          "type": "address"
        },
        {
          "name": "unit",
          "type": "int8"
        },
        {
          "name": "wei_per_unit",
          "type": "uint256"
        },
        {
          "name": "wei_in_escrow",
          "type": "uint256"
        }
      ],
      "payable": false,
      "stateMutability": "view",
      "type": "function"
    },
    {
      "constant": false,
      "inputs": [
        {
          "name": "newOwner",
          "type": "address"
        }
      ],
      "name": "transferOwnership",
      "outputs": [],
      "payable": false,
      "stateMutability": "nonpayable",
      "type": "function"
    },
    {
      "anonymous": false,
      "inputs": [
        {
          "indexed": true,
          "name": "previousOwner",
          "type": "address"
        },
        {
          "indexed": true,
          "name": "newOwner",
          "type": "address"
        }
      ],
      "name": "OwnershipTransferred",
      "type": "event"
    },
    {
      "constant": true,
      "inputs": [],
      "name": "getCampaignsLen",
      "outputs": [
        {
          "name": "",
          "type": "uint256"
        }
      ],
      "payable": false,
      "stateMutability": "view",
      "type": "function"
    },
    {
      "constant": true,
      "inputs": [
        {
          "name": "_camp_id",
          "type": "uint256"
        }
      ],
      "name": "getCampaign_rec",
      "outputs": [
        {
          "name": "",
          "type": "string"
        },
        {
          "name": "",
          "type": "address"
        },
        {
          "name": "",
          "type": "uint256"
        },
        {
          "name": "",
          "type": "int32"
        },
        {
          "name": "",
          "type": "int32"
        },
        {
          "name": "",
          "type": "uint256"
        },
        {
          "name": "",
          "type": "uint256"
        }
      ],
      "payable": false,
      "stateMutability": "view",
      "type": "function"
    },
    {
      "constant": true,
      "inputs": [],
      "name": "getSponsorsLen",
      "outputs": [
        {
          "name": "",
          "type": "uint256"
        }
      ],
      "payable": false,
      "stateMutability": "view",
      "type": "function"
    },
    {
      "constant": true,
      "inputs": [
        {
          "name": "_camp_id",
          "type": "uint256"
        }
      ],
      "name": "getNumSponsorsForCampaign",
      "outputs": [
        {
          "name": "",
          "type": "uint256"
        }
      ],
      "payable": false,
      "stateMutability": "view",
      "type": "function"
    },
    {
      "constant": true,
      "inputs": [
        {
          "name": "_camp_id",
          "type": "uint256"
        },
        {
          "name": "_matchNum",
          "type": "uint256"
        }
      ],
      "name": "getSponsorInCampaign_rec",
      "outputs": [
        {
          "name": "",
          "type": "address"
        },
        {
          "name": "",
          "type": "address"
        },
        {
          "name": "",
          "type": "address"
        },
        {
          "name": "",
          "type": "int8"
        },
        {
          "name": "",
          "type": "uint256"
        },
        {
          "name": "",
          "type": "uint256"
        }
      ],
      "payable": false,
      "stateMutability": "view",
      "type": "function"
    },
    {
      "constant": true,
      "inputs": [],
      "name": "getParticipantsLen",
      "outputs": [
        {
          "name": "",
          "type": "uint256"
        }
      ],
      "payable": false,
      "stateMutability": "view",
      "type": "function"
    },
    {
      "constant": true,
      "inputs": [
        {
          "name": "_camp_id",
          "type": "uint256"
        }
      ],
      "name": "getNumParticipantForCampaign",
      "outputs": [
        {
          "name": "",
          "type": "uint256"
        }
      ],
      "payable": false,
      "stateMutability": "view",
      "type": "function"
    },
    {
      "constant": true,
      "inputs": [
        {
          "name": "_camp_id",
          "type": "uint256"
        },
        {
          "name": "_matchNum",
          "type": "uint256"
        }
      ],
      "name": "getParticipantInCampaign_rec",
      "outputs": [
        {
          "name": "",
          "type": "address"
        },
        {
          "name": "",
          "type": "string"
        },
        {
          "name": "",
          "type": "int8"
        },
        {
          "name": "",
          "type": "int32"
        },
        {
          "name": "",
          "type": "uint256"
        },
        {
          "name": "",
          "type": "uint256"
        }
      ],
      "payable": false,
      "stateMutability": "view",
      "type": "function"
    },
    {
      "constant": true,
      "inputs": [
        {
          "name": "_addr_part",
          "type": "address"
        }
      ],
      "name": "getNumCampaignForParticipant",
      "outputs": [
        {
          "name": "",
          "type": "uint256"
        }
      ],
      "payable": false,
      "stateMutability": "view",
      "type": "function"
    },
    {
      "constant": true,
      "inputs": [
        {
          "name": "_addr_part",
          "type": "address"
        },
        {
          "name": "_matchNum",
          "type": "uint256"
        }
      ],
      "name": "getParticipantForParticipant_rec",
      "outputs": [
        {
          "name": "",
          "type": "address"
        },
        {
          "name": "",
          "type": "string"
        },
        {
          "name": "",
          "type": "int8"
        },
        {
          "name": "",
          "type": "int32"
        },
        {
          "name": "",
          "type": "uint256"
        },
        {
          "name": "",
          "type": "uint256"
        }
      ],
      "payable": false,
      "stateMutability": "view",
      "type": "function"
    },
    {
      "constant": true,
      "inputs": [],
      "name": "getEventPayLogsLen",
      "outputs": [
        {
          "name": "",
          "type": "uint256"
        }
      ],
      "payable": false,
      "stateMutability": "view",
      "type": "function"
    },
    {
      "constant": true,
      "inputs": [
        {
          "name": "_campID",
          "type": "uint256"
        }
      ],
      "name": "getNumEventPayLogsForCampaign",
      "outputs": [
        {
          "name": "",
          "type": "uint256"
        }
      ],
      "payable": false,
      "stateMutability": "view",
      "type": "function"
    },
    {
      "constant": true,
      "inputs": [
        {
          "name": "_camp_id",
          "type": "uint256"
        },
        {
          "name": "_matchNum",
          "type": "uint256"
        }
      ],
      "name": "getEventPayLogsInCampaign_rec",
      "outputs": [
        {
          "name": "",
          "type": "address"
        },
        {
          "name": "",
          "type": "address"
        },
        {
          "name": "",
          "type": "uint256"
        },
        {
          "name": "",
          "type": "int8"
        },
        {
          "name": "",
          "type": "int32"
        },
        {
          "name": "",
          "type": "uint256"
        }
      ],
      "payable": false,
      "stateMutability": "view",
      "type": "function"
    },
    {
      "constant": false,
      "inputs": [
        {
          "name": "_name",
          "type": "string"
        },
        {
          "name": "_started_by",
          "type": "address"
        },
        {
          "name": "_end_date",
          "type": "uint256"
        }
      ],
      "name": "setCampaign_rec",
      "outputs": [
        {
          "name": "",
          "type": "uint256"
        }
      ],
      "payable": false,
      "stateMutability": "nonpayable",
      "type": "function"
    }
  ],
  "bytecode": "0x6080604052336000806101000a81548173ffffffffffffffffffffffffffffffffffffffff021916908373ffffffffffffffffffffffffffffffffffffffff160217905550612348806100536000396000f300608060405260043610610112576000357c0100000000000000000000000000000000000000000000000000000000900463ffffffff168063141961bc1461011757806335c1d349146102265780633d6307ce1461032e5780634235d313146103595780634a1cb28a146103b05780634dea3609146104a8578063522d8d89146105775780635d91bb82146106985780636b0f3675146106c35780636dfd5a97146107045780638da5cb5b1461072f5780638deb0a3d1461078657806393066b4c146107c75780639720b17c146108bc578063a52f09941461098e578063aa4532a814610a07578063d8c12e0b14610a48578063e896958714610a73578063f2fde38b14610b7e578063f8c49dfe14610bc1575b600080fd5b34801561012357600080fd5b5061014260048036038101908080359060200190929190505050610cc9565b60405180898152602001806020018873ffffffffffffffffffffffffffffffffffffffff1673ffffffffffffffffffffffffffffffffffffffff1681526020018781526020018660030b60030b81526020018560030b60030b8152602001848152602001838152602001828103825289818151815260200191508051906020019080838360005b838110156101e45780820151818401526020810190506101c9565b50505050905090810190601f1680156102115780820380516001836020036101000a031916815260200191505b50995050505050505050505060405180910390f35b34801561023257600080fd5b5061025160048036038101908080359060200190929190505050610df2565b604051808881526020018773ffffffffffffffffffffffffffffffffffffffff1673ffffffffffffffffffffffffffffffffffffffff168152602001806020018660000b60000b81526020018560030b60030b8152602001848152602001838152602001828103825287818151815260200191508051906020019080838360005b838110156102ed5780820151818401526020810190506102d2565b50505050905090810190601f16801561031a5780820380516001836020036101000a031916815260200191505b509850505050505050505060405180910390f35b34801561033a57600080fd5b50610343610f15565b6040518082815260200191505060405180910390f35b34801561036557600080fd5b5061039a600480360381019080803573ffffffffffffffffffffffffffffffffffffffff169060200190929190505050610f22565b6040518082815260200191505060405180910390f35b3480156103bc57600080fd5b506103e56004803603810190808035906020019092919080359060200190929190505050610fd1565b604051808773ffffffffffffffffffffffffffffffffffffffff1673ffffffffffffffffffffffffffffffffffffffff1681526020018673ffffffffffffffffffffffffffffffffffffffff1673ffffffffffffffffffffffffffffffffffffffff1681526020018573ffffffffffffffffffffffffffffffffffffffff1673ffffffffffffffffffffffffffffffffffffffff1681526020018460000b60000b8152602001838152602001828152602001965050505050505060405180910390f35b3480156104b457600080fd5b506104d3600480360381019080803590602001909291905050506111fb565b604051808881526020018773ffffffffffffffffffffffffffffffffffffffff1673ffffffffffffffffffffffffffffffffffffffff1681526020018673ffffffffffffffffffffffffffffffffffffffff1673ffffffffffffffffffffffffffffffffffffffff1681526020018581526020018460000b60000b81526020018360030b60030b815260200182815260200197505050505050505060405180910390f35b34801561058357600080fd5b506105c2600480360381019080803573ffffffffffffffffffffffffffffffffffffffff169060200190929190803590602001909291905050506112a6565b604051808773ffffffffffffffffffffffffffffffffffffffff1673ffffffffffffffffffffffffffffffffffffffff168152602001806020018660000b60000b81526020018560030b60030b8152602001848152602001838152602001828103825287818151815260200191508051906020019080838360005b8381101561065857808201518184015260208101905061063d565b50505050905090810190601f1680156106855780820380516001836020036101000a031916815260200191505b5097505050505050505060405180910390f35b3480156106a457600080fd5b506106ad61151e565b6040518082815260200191505060405180910390f35b3480156106cf57600080fd5b506106ee6004803603810190808035906020019092919050505061152b565b6040518082815260200191505060405180910390f35b34801561071057600080fd5b506107196115a3565b6040518082815260200191505060405180910390f35b34801561073b57600080fd5b506107446115b0565b604051808273ffffffffffffffffffffffffffffffffffffffff1673ffffffffffffffffffffffffffffffffffffffff16815260200191505060405180910390f35b34801561079257600080fd5b506107b1600480360381019080803590602001909291905050506115d5565b6040518082815260200191505060405180910390f35b3480156107d357600080fd5b506107f26004803603810190808035906020019092919050505061164d565b604051808881526020018773ffffffffffffffffffffffffffffffffffffffff1673ffffffffffffffffffffffffffffffffffffffff1681526020018673ffffffffffffffffffffffffffffffffffffffff1673ffffffffffffffffffffffffffffffffffffffff1681526020018573ffffffffffffffffffffffffffffffffffffffff1673ffffffffffffffffffffffffffffffffffffffff1681526020018460000b60000b815260200183815260200182815260200197505050505050505060405180910390f35b3480156108c857600080fd5b506108f1600480360381019080803590602001909291908035906020019092919050505061170b565b604051808773ffffffffffffffffffffffffffffffffffffffff1673ffffffffffffffffffffffffffffffffffffffff1681526020018673ffffffffffffffffffffffffffffffffffffffff1673ffffffffffffffffffffffffffffffffffffffff1681526020018581526020018460000b60000b81526020018360030b60030b8152602001828152602001965050505050505060405180910390f35b34801561099a57600080fd5b506109f1600480360381019080803590602001908201803590602001919091929391929390803573ffffffffffffffffffffffffffffffffffffffff169060200190929190803590602001909291905050506118fc565b6040518082815260200191505060405180910390f35b348015610a1357600080fd5b50610a3260048036038101908080359060200190929190505050611ac3565b6040518082815260200191505060405180910390f35b348015610a5457600080fd5b50610a5d611b3b565b6040518082815260200191505060405180910390f35b348015610a7f57600080fd5b50610aa86004803603810190808035906020019092919080359060200190929190505050611b48565b604051808773ffffffffffffffffffffffffffffffffffffffff1673ffffffffffffffffffffffffffffffffffffffff168152602001806020018660000b60000b81526020018560030b60030b8152602001848152602001838152602001828103825287818151815260200191508051906020019080838360005b83811015610b3e578082015181840152602081019050610b23565b50505050905090810190601f168015610b6b5780820380516001836020036101000a031916815260200191505b5097505050505050505060405180910390f35b348015610b8a57600080fd5b50610bbf600480360381019080803573ffffffffffffffffffffffffffffffffffffffff169060200190929190505050611d89565b005b348015610bcd57600080fd5b50610bec60048036038101908080359060200190929190505050611ede565b60405180806020018873ffffffffffffffffffffffffffffffffffffffff1673ffffffffffffffffffffffffffffffffffffffff1681526020018781526020018660030b60030b81526020018560030b60030b8152602001848152602001838152602001828103825289818151815260200191508051906020019080838360005b83811015610c88578082015181840152602081019050610c6d565b50505050905090810190601f168015610cb55780820380516001836020036101000a031916815260200191505b509850505050505050505060405180910390f35b600181815481101515610cd857fe5b9060005260206000209060070201600091509050806000015490806001018054600181600116156101000203166002900480601f016020809104026020016040519081016040528092919081815260200182805460018160011615610100020316600290048015610d8a5780601f10610d5f57610100808354040283529160200191610d8a565b820191906000526020600020905b815481529060010190602001808311610d6d57829003601f168201915b5050505050908060020160009054906101000a900473ffffffffffffffffffffffffffffffffffffffff16908060030154908060040160009054906101000a900460030b908060040160049054906101000a900460030b908060050154908060060154905088565b600381815481101515610e0157fe5b90600052602060002090600602016000915090508060000154908060010160009054906101000a900473ffffffffffffffffffffffffffffffffffffffff1690806002018054600181600116156101000203166002900480601f016020809104026020016040519081016040528092919081815260200182805460018160011615610100020316600290048015610ed95780601f10610eae57610100808354040283529160200191610ed9565b820191906000526020600020905b815481529060010190602001808311610ebc57829003601f168201915b5050505050908060030160009054906101000a900460000b908060030160019054906101000a900460030b908060040154908060050154905087565b6000600180549050905090565b6000806000809150600090505b60038054905081111515610fc7578373ffffffffffffffffffffffffffffffffffffffff16600382815481101515610f6357fe5b906000526020600020906006020160010160009054906101000a900473ffffffffffffffffffffffffffffffffffffffff1673ffffffffffffffffffffffffffffffffffffffff161415610fba5781806001019250505b8080600101915050610f2f565b8192505050919050565b6000806000806000806000610fe46120cb565b60006001805490508b11151515610ffa57600080fd5b60009250600090505b600280549050811115156111c4578a60028281548110151561102157fe5b90600052602060002090600602016000015414156111b7578280600101935050898314156111b65760028b81548110151561105857fe5b906000526020600020906006020160e06040519081016040529081600082015481526020016001820160009054906101000a900473ffffffffffffffffffffffffffffffffffffffff1673ffffffffffffffffffffffffffffffffffffffff1673ffffffffffffffffffffffffffffffffffffffff1681526020016002820160009054906101000a900473ffffffffffffffffffffffffffffffffffffffff1673ffffffffffffffffffffffffffffffffffffffff1673ffffffffffffffffffffffffffffffffffffffff1681526020016003820160009054906101000a900473ffffffffffffffffffffffffffffffffffffffff1673ffffffffffffffffffffffffffffffffffffffff1673ffffffffffffffffffffffffffffffffffffffff1681526020016003820160149054906101000a900460000b60000b60000b81526020016004820154815260200160058201548152505091506111c4565b5b8080600101915050611003565b81602001518260400151836060015184608001518560a001518660c001519850985098509850985098505050509295509295509295565b60048181548110151561120a57fe5b90600052602060002090600602016000915090508060000154908060010160009054906101000a900473ffffffffffffffffffffffffffffffffffffffff16908060020160009054906101000a900473ffffffffffffffffffffffffffffffffffffffff16908060030154908060040160009054906101000a900460000b908060040160019054906101000a900460030b908060050154905087565b6000606060008060008060006112ba61214d565b6000809250600090505b600380549050811115156114e4578a73ffffffffffffffffffffffffffffffffffffffff166003828154811015156112f857fe5b906000526020600020906006020160010160009054906101000a900473ffffffffffffffffffffffffffffffffffffffff1673ffffffffffffffffffffffffffffffffffffffff1614156114d7578280600101935050898314156114d65760038181548110151561136557fe5b906000526020600020906006020160e06040519081016040529081600082015481526020016001820160009054906101000a900473ffffffffffffffffffffffffffffffffffffffff1673ffffffffffffffffffffffffffffffffffffffff1673ffffffffffffffffffffffffffffffffffffffff168152602001600282018054600181600116156101000203166002900480601f0160208091040260200160405190810160405280929190818152602001828054600181600116156101000203166002900480156114785780601f1061144d57610100808354040283529160200191611478565b820191906000526020600020905b81548152906001019060200180831161145b57829003601f168201915b505050505081526020016003820160009054906101000a900460000b60000b60000b81526020016003820160019054906101000a900460030b60030b60030b81526020016004820154815260200160058201548152505091506114e4565b5b80806001019150506112c4565b81602001518260400151836060015184608001518560a001518660c001518494509850985098509850985098505050509295509295509295565b6000600380549050905090565b6000806000600180549050841115151561154457600080fd5b60009150600090505b60038054905081111515611599578360038281548110151561156b57fe5b906000526020600020906006020160000154141561158c5781806001019250505b808060010191505061154d565b8192505050919050565b6000600280549050905090565b6000809054906101000a900473ffffffffffffffffffffffffffffffffffffffff1681565b600080600060018054905084111515156115ee57600080fd5b60009150600090505b60048054905081111515611643578360048281548110151561161557fe5b90600052602060002090600602016000015414156116365781806001019250505b80806001019150506115f7565b8192505050919050565b60028181548110151561165c57fe5b90600052602060002090600602016000915090508060000154908060010160009054906101000a900473ffffffffffffffffffffffffffffffffffffffff16908060020160009054906101000a900473ffffffffffffffffffffffffffffffffffffffff16908060030160009054906101000a900473ffffffffffffffffffffffffffffffffffffffff16908060030160149054906101000a900460000b908060040154908060050154905087565b600080600080600080600061171e6121a6565b60006001805490508b1115151561173457600080fd5b60009250600090505b600380549050811115156118c5578a60048281548110151561175b57fe5b90600052602060002090600602016000015414156118b8578280600101935050898314156118b75760048b81548110151561179257fe5b906000526020600020906006020160e06040519081016040529081600082015481526020016001820160009054906101000a900473ffffffffffffffffffffffffffffffffffffffff1673ffffffffffffffffffffffffffffffffffffffff1673ffffffffffffffffffffffffffffffffffffffff1681526020016002820160009054906101000a900473ffffffffffffffffffffffffffffffffffffffff1673ffffffffffffffffffffffffffffffffffffffff1673ffffffffffffffffffffffffffffffffffffffff168152602001600382015481526020016004820160009054906101000a900460000b60000b60000b81526020016004820160019054906101000a900460030b60030b60030b815260200160058201548152505091506118c5565b5b808060010191505061173d565b81602001518260400151836060015184608001518560a001518660c001519850985098509850985098505050509295509295509295565b6000806000806000806001805490509450600093506000925060009150600090506001610100604051908101604052808781526020018c8c8080601f01602080910402602001604051908101604052809392919081815260200183838082843782019150505050505081526020018a73ffffffffffffffffffffffffffffffffffffffff1681526020018981526020018660030b81526020018560030b815260200184815260200183815250908060018154018082558091505090600182039060005260206000209060070201600090919290919091506000820151816000015560208201518160010190805190602001906119f9929190612215565b5060408201518160020160006101000a81548173ffffffffffffffffffffffffffffffffffffffff021916908373ffffffffffffffffffffffffffffffffffffffff1602179055506060820151816003015560808201518160040160006101000a81548163ffffffff021916908360030b63ffffffff16021790555060a08201518160040160046101000a81548163ffffffff021916908360030b63ffffffff16021790555060c0820151816005015560e082015181600601555050505050505050949350505050565b60008060006001805490508411151515611adc57600080fd5b60009150600090505b60028054905081111515611b315783600282815481101515611b0357fe5b9060005260206000209060060201600001541415611b245781806001019250505b8080600101915050611ae5565b8192505050919050565b6000600480549050905090565b600060606000806000806000611b5c61214d565b60006001805490508b11151515611b7257600080fd5b60009250600090505b60038054905081111515611d4f578a600382815481101515611b9957fe5b9060005260206000209060060201600001541415611d4257828060010193505089831415611d415760038b815481101515611bd057fe5b906000526020600020906006020160e06040519081016040529081600082015481526020016001820160009054906101000a900473ffffffffffffffffffffffffffffffffffffffff1673ffffffffffffffffffffffffffffffffffffffff1673ffffffffffffffffffffffffffffffffffffffff168152602001600282018054600181600116156101000203166002900480601f016020809104026020016040519081016040528092919081815260200182805460018160011615610100020316600290048015611ce35780601f10611cb857610100808354040283529160200191611ce3565b820191906000526020600020905b815481529060010190602001808311611cc657829003601f168201915b505050505081526020016003820160009054906101000a900460000b60000b60000b81526020016003820160019054906101000a900460030b60030b60030b8152602001600482015481526020016005820154815250509150611d4f565b5b8080600101915050611b7b565b81602001518260400151836060015184608001518560a001518660c001518494509850985098509850985098505050509295509295509295565b6000809054906101000a900473ffffffffffffffffffffffffffffffffffffffff1673ffffffffffffffffffffffffffffffffffffffff163373ffffffffffffffffffffffffffffffffffffffff16141515611de457600080fd5b600073ffffffffffffffffffffffffffffffffffffffff168173ffffffffffffffffffffffffffffffffffffffff1614151515611e2057600080fd5b8073ffffffffffffffffffffffffffffffffffffffff166000809054906101000a900473ffffffffffffffffffffffffffffffffffffffff1673ffffffffffffffffffffffffffffffffffffffff167f8be0079c531659141344cd1fd0a4f28419497f9722a3daafe3b4186f6b6457e060405160405180910390a3806000806101000a81548173ffffffffffffffffffffffffffffffffffffffff021916908373ffffffffffffffffffffffffffffffffffffffff16021790555050565b6060600080600080600080611ef1612295565b6001805490508911151515611f0557600080fd5b600189815481101515611f1457fe5b9060005260206000209060070201610100604051908101604052908160008201548152602001600182018054600181600116156101000203166002900480601f016020809104026020016040519081016040528092919081815260200182805460018160011615610100020316600290048015611fd25780601f10611fa757610100808354040283529160200191611fd2565b820191906000526020600020905b815481529060010190602001808311611fb557829003601f168201915b505050505081526020016002820160009054906101000a900473ffffffffffffffffffffffffffffffffffffffff1673ffffffffffffffffffffffffffffffffffffffff1673ffffffffffffffffffffffffffffffffffffffff168152602001600382015481526020016004820160009054906101000a900460030b60030b60030b81526020016004820160049054906101000a900460030b60030b60030b815260200160058201548152602001600682015481525050905080602001518160400151826060015183608001518460a001518560c001518660e00151869650975097509750975097509750975050919395979092949650565b60e06040519081016040528060008152602001600073ffffffffffffffffffffffffffffffffffffffff168152602001600073ffffffffffffffffffffffffffffffffffffffff168152602001600073ffffffffffffffffffffffffffffffffffffffff1681526020016000800b815260200160008152602001600081525090565b60e06040519081016040528060008152602001600073ffffffffffffffffffffffffffffffffffffffff168152602001606081526020016000800b8152602001600060030b815260200160008152602001600081525090565b60e06040519081016040528060008152602001600073ffffffffffffffffffffffffffffffffffffffff168152602001600073ffffffffffffffffffffffffffffffffffffffff168152602001600081526020016000800b8152602001600060030b8152602001600081525090565b828054600181600116156101000203166002900490600052602060002090601f016020900481019282601f1061225657805160ff1916838001178555612284565b82800160010185558215612284579182015b82811115612283578251825591602001919060010190612268565b5b50905061229191906122f7565b5090565b610100604051908101604052806000815260200160608152602001600073ffffffffffffffffffffffffffffffffffffffff16815260200160008152602001600060030b8152602001600060030b815260200160008152602001600081525090565b61231991905b808211156123155760008160009055506001016122fd565b5090565b905600a165627a7a723058203cc3aa55716eac0ed08915902d863730ae4d4487f4912e2f93a89dcb8fcd74d50029",
  "source": "pragma solidity ^0.4.17;\n\nimport \"zeppelin-solidity/contracts/ownership/Ownable.sol\";\n\ncontract IncroSpon is Ownable{ \n    //string public name = 'Incro-Sponsor';\n\n    Campaign[] public campaigns;\n    Sponsor[] public sponsors;\n    Participant[] public participants;\n    EventPayLog[] public eventpaylogs;\n\n    struct Campaign {\n        uint256 camp_id;        // 1\n        string name;            // 2  -- w\n        address started_by;     // 3  -- w\n        uint256 end_date;       // 4  -- w\n        int32 unit_goal;        // 5  \n        int32 unit_so_far;      // 6  \n        uint256 wei_paid_out;   // 7  \n        uint256 wei_in_escrow;  // 8  \n    }\n\n    struct Sponsor {\n        uint256 camp_id;        // 1\n        address addr_spon;      // 2\n        address addr_part;      // 3\n        address addr_pay_to;    // 4\n        int8 unit;              // 5\n        uint256 wei_per_unit;   // 6\n        uint256 wei_in_escrow;  // 7\n    }\n\n    struct Participant {\n        uint256 camp_id;        // 1\n        address addr_part;      // 2\n        string name_part;       // 3\n        int8 unit;              // 4\n        int32 unit_goal;        // 5\n        uint256 date_start;     // 6\n        uint256 date_end;       // 7\n    }\n\n    struct EventPayLog {\n        uint256 camp_id;        // 1\n        address addr_part;      // 2\n        address addr_spon;      // 3\n        uint256 date_event;     // 4\n        int8 unit;              // 5\n        int32 qty_unit;         // 6\n        uint256 wei_paid;       // 7\n    }\n\n\n    function getCampaignsLen() view external returns(uint256){\n        return campaigns.length;\n    }\n\n\n    function getCampaign_rec( uint256 _camp_id ) public view returns( string, address, uint256, int32, int32, uint256, uint256 ) {\n        require(_camp_id <= campaigns.length);\n        Campaign memory cr = campaigns[_camp_id];\n        return ( cr.name, cr.started_by, cr.end_date, cr.unit_goal, cr.unit_so_far, cr.wei_paid_out, cr.wei_in_escrow );\n    }\n\n\n\n    // function setCampaign_rec( string _mfg, string _sn) external returns(uint256 _recNum){\n        //having problems with require ... getting rpc error\n        // require( msg.sender == storeOwner );\n        // require( (bytes(_mfg).length<=50) && (bytes(_sn).length<=50) );\n        // uint256 recNum = nextRecNum++;\n        //next line returns a pointer to the location to write to\n        //it should automatically generate a new address based on the mapping\n\n        //try now with constructor\n        // bikeRecAll[recNum] = bikeRec( msg.sender, _mfg, _sn );\n        // return recNum;\n    // }   \n\n\n    function getSponsorsLen() view external returns(uint256){\n        return sponsors.length;\n    }\n\n\n    //this function will return how many sponsors for a campaign\n    function getNumSponsorsForCampaign( uint256 _camp_id ) public view returns( uint256 )  {\n        require(_camp_id <= campaigns.length);\n        uint256 numMatches = 0;\n        for(uint256 i = 0; i<=sponsors.length; i++)\n        {\n            if (sponsors[i].camp_id == _camp_id )  numMatches++;\n        }  \n        return numMatches;        \n    }\n\n\n    function getSponsorInCampaign_rec( uint256 _camp_id, uint256 _matchNum ) \n    public view returns( address, address, address, int8, uint256, uint256 ) {\n        //this will return a matching record for a sponsor, which is the _matchNum\n        // can find out the number of matching items by running the getNum function\n        require(_camp_id <= campaigns.length);\n        uint256 numMatches = 0;\n        Sponsor memory sr;\n        //maybe make this a while loop so that can exit if no match\n        for(uint256 i = 0; i <= sponsors.length; i++)\n        {\n            if (sponsors[i].camp_id == _camp_id )  {\n                numMatches++;\n                if (numMatches == _matchNum) {\n                    sr = sponsors[_camp_id];\n                    break;\n                }\n            }\n        }    \n        return ( sr.addr_spon, sr.addr_part, sr.addr_pay_to, sr.unit, sr.wei_per_unit, sr.wei_in_escrow );\n    }\n    \n\n    function getParticipantsLen() view external returns(uint256){\n        return participants.length;\n    }\n\n\n    function getNumParticipantForCampaign( uint256 _camp_id ) public view returns( uint256 )  {\n        //this function will return how many participants for a campaign\n        require(_camp_id <= campaigns.length);\n        uint256 numMatches = 0;\n        for(uint256 i = 0; i<=participants.length; i++)\n        {\n            if (participants[i].camp_id == _camp_id )  numMatches++;\n        }  \n        return numMatches;        \n    }\n\n\n    function getParticipantInCampaign_rec( uint256 _camp_id, uint256 _matchNum ) \n    public view returns(  address, string, int8, int32, uint256, uint256 ) {\n        //this will return a matching record for a participant, which is the _matchNum\n        // can find out the number of matching items by running the getNum function\n        require(_camp_id <= campaigns.length);\n        uint256 numMatches = 0;\n        Participant memory pr;\n        for(uint256 i = 0; i <= participants.length; i++)\n        {\n            if (participants[i].camp_id == _camp_id )  {\n                numMatches++;\n                if (numMatches == _matchNum) {\n                    pr = participants[_camp_id];\n                    break;\n                }\n            }\n        }    \n        return ( pr.addr_part, pr.name_part, pr.unit, pr.unit_goal, pr.date_start, pr.date_end );\n    }\n\n\n    //the next two functions are needed when a participant is starting a \n    function getNumCampaignForParticipant( address _addr_part ) \n    public view returns( uint256 ) {\n        //for a given the participant who has called this, find out\n        //how many campaigns he is in\n        uint256 numMatches = 0;\n        for(uint256 i = 0; i<=participants.length; i++)\n        {\n            if (participants[i].addr_part == _addr_part )  numMatches++;\n        }  \n        return ( numMatches );\n    }\n\n\n    function getParticipantForParticipant_rec( address _addr_part, uint256 _matchNum ) \n    public view returns(  address, string, int8, int32, uint256, uint256 ) {\n        //this will return a matching record for a matching part addr, which is the _matchNum\n        // can find out the number of matching items by running the getNum function\n        uint256 numMatches = 0;\n        Participant memory pr;\n        for(uint256 i = 0; i <= participants.length; i++)\n        {\n            if (participants[i].addr_part == _addr_part )  {\n                numMatches++;\n                if (numMatches == _matchNum) {\n                    pr = participants[i];\n                    break;\n                }\n            }\n        }    \n        return ( pr.addr_part, pr.name_part, pr.unit, pr.unit_goal, pr.date_start, pr.date_end );\n    }  //get particpant record that matches the participant\n\n\n    function getEventPayLogsLen() view external returns(uint256){\n        return eventpaylogs.length;\n    }\n\n\n    function getNumEventPayLogsForCampaign( uint256 _campID ) public view returns( uint256 )  {\n        //get number of matching event records for a campaign\n        require(_campID <= campaigns.length);\n        uint256 numMatches = 0;\n        for(uint256 i = 0; i <= eventpaylogs.length; i++)\n        {\n            if ( eventpaylogs[i].camp_id == _campID )  numMatches++;\n        }  \n        return numMatches;        \n    }\n\n\n    function getEventPayLogsInCampaign_rec( uint256 _camp_id, uint256 _matchNum ) \n    public view returns( address, address, uint256, int8, int32, uint256 ) {\n        //this will return a matching record for a participant, which is the _matchNum\n        // can find out the number of matching items by running the getNum function\n        require(_camp_id <= campaigns.length);\n        uint256 numMatches = 0;\n        EventPayLog memory er;\n        for(uint256 i = 0; i <= participants.length; i++)\n        {\n            if (eventpaylogs[i].camp_id == _camp_id )  {\n                numMatches++;\n                if (numMatches == _matchNum) {\n                    er = eventpaylogs[_camp_id];\n                    break;\n                }\n            }\n        }    \n        return ( er.addr_part, er.addr_spon, er.date_event, er.unit, er.qty_unit, er.wei_paid );\n    }\n\n\n    //functions to write to the contract\n    function setCampaign_rec(string _name, address _started_by, uint256 _end_date) external returns (uint256) {\n        uint256 _camp_id = campaigns.length;\n        int32 _unit_goal = 0;\n        int32 _unit_so_far = 0;     \n        uint256 _wei_paid_out = 0; \n        uint256 _wei_in_escrow = 0;\n        campaigns.push(Campaign(_camp_id, _name, _started_by, _end_date, _unit_goal, _unit_so_far, _wei_paid_out, _wei_in_escrow));\n    }\n}\n\n\n",
  "sourcePath": "/Users/richardbudek/Documents/Data/Proj-Blockchain/git_location/IncroSpon/contracts/IncroSpon.sol",
  "compiler": {
    "name": "solc",
    "version": "0.4.24+commit.e67f0147.Emscripten.clang"
  },
  "schemaVersion": "2.0.0",
  "updatedAt": "2018-06-03T04:40:00.613Z"
}