{
  "contractName": "IncroSpon",
  "abi": [
    {
      "constant": true,
      "inputs": [],
      "name": "owner",
      "outputs": [
        {
          "name": "",
          "type": "address"
        }
      ],
      "payable": false,
      "stateMutability": "view",
      "type": "function"
    },
    {
      "constant": false,
      "inputs": [
        {
          "name": "newOwner",
          "type": "address"
        }
      ],
      "name": "transferOwnership",
      "outputs": [],
      "payable": false,
      "stateMutability": "nonpayable",
      "type": "function"
    },
    {
      "anonymous": false,
      "inputs": [
        {
          "indexed": true,
          "name": "previousOwner",
          "type": "address"
        },
        {
          "indexed": true,
          "name": "newOwner",
          "type": "address"
        }
      ],
      "name": "OwnershipTransferred",
      "type": "event"
    },
    {
      "constant": true,
      "inputs": [],
      "name": "getCampaignsLen",
      "outputs": [
        {
          "name": "",
          "type": "uint256"
        }
      ],
      "payable": false,
      "stateMutability": "view",
      "type": "function"
    },
    {
      "constant": true,
      "inputs": [
        {
          "name": "_camp_id",
          "type": "uint256"
        }
      ],
      "name": "getCampaign_rec",
      "outputs": [
        {
          "name": "",
          "type": "string"
        },
        {
          "name": "",
          "type": "address"
        },
        {
          "name": "",
          "type": "uint256"
        },
        {
          "name": "",
          "type": "int32"
        },
        {
          "name": "",
          "type": "int32"
        },
        {
          "name": "",
          "type": "uint256"
        },
        {
          "name": "",
          "type": "uint256"
        }
      ],
      "payable": false,
      "stateMutability": "view",
      "type": "function"
    },
    {
      "constant": true,
      "inputs": [],
      "name": "getSponsorsLen",
      "outputs": [
        {
          "name": "",
          "type": "uint256"
        }
      ],
      "payable": false,
      "stateMutability": "view",
      "type": "function"
    },
    {
      "constant": true,
      "inputs": [
        {
          "name": "_camp_id",
          "type": "uint256"
        }
      ],
      "name": "getNumSponsorsForCampaign",
      "outputs": [
        {
          "name": "",
          "type": "uint256"
        }
      ],
      "payable": false,
      "stateMutability": "view",
      "type": "function"
    },
    {
      "constant": true,
      "inputs": [
        {
          "name": "_camp_id",
          "type": "uint256"
        },
        {
          "name": "_matchNum",
          "type": "uint256"
        }
      ],
      "name": "getSponsorInCampaign_rec",
      "outputs": [
        {
          "name": "",
          "type": "string"
        },
        {
          "name": "",
          "type": "address"
        },
        {
          "name": "",
          "type": "uint256"
        },
        {
          "name": "",
          "type": "int32"
        },
        {
          "name": "",
          "type": "int32"
        },
        {
          "name": "",
          "type": "uint256"
        },
        {
          "name": "",
          "type": "uint256"
        }
      ],
      "payable": false,
      "stateMutability": "view",
      "type": "function"
    },
    {
      "constant": true,
      "inputs": [],
      "name": "getParticipantsLen",
      "outputs": [
        {
          "name": "",
          "type": "uint256"
        }
      ],
      "payable": false,
      "stateMutability": "view",
      "type": "function"
    },
    {
      "constant": true,
      "inputs": [
        {
          "name": "_camp_id",
          "type": "uint256"
        }
      ],
      "name": "getNumParticipantForCampaign",
      "outputs": [
        {
          "name": "",
          "type": "uint256"
        }
      ],
      "payable": false,
      "stateMutability": "view",
      "type": "function"
    },
    {
      "constant": true,
      "inputs": [
        {
          "name": "_camp_id",
          "type": "uint256"
        },
        {
          "name": "_matchNum",
          "type": "uint256"
        }
      ],
      "name": "getParticipantInCampaign_rec",
      "outputs": [
        {
          "name": "",
          "type": "string"
        },
        {
          "name": "",
          "type": "address"
        },
        {
          "name": "",
          "type": "uint256"
        },
        {
          "name": "",
          "type": "int32"
        },
        {
          "name": "",
          "type": "int32"
        },
        {
          "name": "",
          "type": "uint256"
        },
        {
          "name": "",
          "type": "uint256"
        }
      ],
      "payable": false,
      "stateMutability": "view",
      "type": "function"
    },
    {
      "constant": true,
      "inputs": [],
      "name": "getEventRecsLen",
      "outputs": [
        {
          "name": "",
          "type": "uint256"
        }
      ],
      "payable": false,
      "stateMutability": "view",
      "type": "function"
    },
    {
      "constant": true,
      "inputs": [
        {
          "name": "_campID",
          "type": "uint256"
        }
      ],
      "name": "getNumEventsForCampaign",
      "outputs": [
        {
          "name": "",
          "type": "uint256"
        }
      ],
      "payable": false,
      "stateMutability": "view",
      "type": "function"
    }
  ],
  "bytecode": "0x6080604052336000806101000a81548173ffffffffffffffffffffffffffffffffffffffff021916908373ffffffffffffffffffffffffffffffffffffffff160217905550611031806100536000396000f3006080604052600436106100ba576000357c0100000000000000000000000000000000000000000000000000000000900463ffffffff1680633171b5dd146100bf5780633d6307ce146101005780634a1cb28a1461012b5780635d91bb821461023d5780636b0f3675146102685780636dfd5a97146102a95780638da5cb5b146102d4578063aa4532a81461032b578063d6fcf8eb1461036c578063e896958714610397578063f2fde38b146104a9578063f8c49dfe146104ec575b600080fd5b3480156100cb57600080fd5b506100ea600480360381019080803590602001909291905050506105f4565b6040518082815260200191505060405180910390f35b34801561010c57600080fd5b5061011561066c565b6040518082815260200191505060405180910390f35b34801561013757600080fd5b506101606004803603810190808035906020019092919080359060200190929190505050610679565b60405180806020018873ffffffffffffffffffffffffffffffffffffffff1673ffffffffffffffffffffffffffffffffffffffff1681526020018781526020018660030b60030b81526020018560030b60030b8152602001848152602001838152602001828103825289818151815260200191508051906020019080838360005b838110156101fc5780820151818401526020810190506101e1565b50505050905090810190601f1680156102295780820380516001836020036101000a031916815260200191505b509850505050505050505060405180910390f35b34801561024957600080fd5b506102526108cf565b6040518082815260200191505060405180910390f35b34801561027457600080fd5b50610293600480360381019080803590602001909291905050506108dc565b6040518082815260200191505060405180910390f35b3480156102b557600080fd5b506102be610954565b6040518082815260200191505060405180910390f35b3480156102e057600080fd5b506102e9610961565b604051808273ffffffffffffffffffffffffffffffffffffffff1673ffffffffffffffffffffffffffffffffffffffff16815260200191505060405180910390f35b34801561033757600080fd5b5061035660048036038101908080359060200190929190505050610986565b6040518082815260200191505060405180910390f35b34801561037857600080fd5b506103816109fe565b6040518082815260200191505060405180910390f35b3480156103a357600080fd5b506103cc6004803603810190808035906020019092919080359060200190929190505050610a0b565b60405180806020018873ffffffffffffffffffffffffffffffffffffffff1673ffffffffffffffffffffffffffffffffffffffff1681526020018781526020018660030b60030b81526020018560030b60030b8152602001848152602001838152602001828103825289818151815260200191508051906020019080838360005b8381101561046857808201518184015260208101905061044d565b50505050905090810190601f1680156104955780820380516001836020036101000a031916815260200191505b509850505050505050505060405180910390f35b3480156104b557600080fd5b506104ea600480360381019080803573ffffffffffffffffffffffffffffffffffffffff169060200190929190505050610c61565b005b3480156104f857600080fd5b5061051760048036038101908080359060200190929190505050610db6565b60405180806020018873ffffffffffffffffffffffffffffffffffffffff1673ffffffffffffffffffffffffffffffffffffffff1681526020018781526020018660030b60030b81526020018560030b60030b8152602001848152602001838152602001828103825289818151815260200191508051906020019080838360005b838110156105b3578082015181840152602081019050610598565b50505050905090810190601f1680156105e05780820380516001836020036101000a031916815260200191505b509850505050505050505060405180910390f35b6000806000600180549050841115151561060d57600080fd5b60009150600090505b60048054905081111515610662578360048281548110151561063457fe5b90600052602060002090600602016000015414156106555781806001019250505b8080600101915050610616565b8192505050919050565b6000600180549050905090565b6060600080600080600080600061068e610fa3565b60006001805490508c111515156106a457600080fd5b60009250600090505b6002805490508111151561088c578b6002828154811015156106cb57fe5b906000526020600020906006020160010154141561087f5782806001019350508a83141561087e5760018c81548110151561070257fe5b9060005260206000209060070201610100604051908101604052908160008201548152602001600182018054600181600116156101000203166002900480601f0160208091040260200160405190810160405280929190818152602001828054600181600116156101000203166002900480156107c05780601f10610795576101008083540402835291602001916107c0565b820191906000526020600020905b8154815290600101906020018083116107a357829003601f168201915b505050505081526020016002820160009054906101000a900473ffffffffffffffffffffffffffffffffffffffff1673ffffffffffffffffffffffffffffffffffffffff1673ffffffffffffffffffffffffffffffffffffffff168152602001600382015481526020016004820160009054906101000a900460030b60030b60030b81526020016004820160049054906101000a900460030b60030b60030b815260200160058201548152602001600682015481525050915061088c565b5b80806001019150506106ad565b81602001518260400151836060015184608001518560a001518660c001518760e00151869650995099509950995099509950995050505092959891949750929550565b6000600380549050905090565b600080600060018054905084111515156108f557600080fd5b60009150600090505b6003805490508111151561094a578360038281548110151561091c57fe5b906000526020600020906006020160010154141561093d5781806001019250505b80806001019150506108fe565b8192505050919050565b6000600280549050905090565b6000809054906101000a900473ffffffffffffffffffffffffffffffffffffffff1681565b6000806000600180549050841115151561099f57600080fd5b60009150600090505b600280549050811115156109f457836002828154811015156109c657fe5b90600052602060002090600602016001015414156109e75781806001019250505b80806001019150506109a8565b8192505050919050565b6000600480549050905090565b60606000806000806000806000610a20610fa3565b60006001805490508c11151515610a3657600080fd5b60009250600090505b60038054905081111515610c1e578b600282815481101515610a5d57fe5b9060005260206000209060060201600101541415610c115782806001019350508a831415610c105760018c815481101515610a9457fe5b9060005260206000209060070201610100604051908101604052908160008201548152602001600182018054600181600116156101000203166002900480601f016020809104026020016040519081016040528092919081815260200182805460018160011615610100020316600290048015610b525780601f10610b2757610100808354040283529160200191610b52565b820191906000526020600020905b815481529060010190602001808311610b3557829003601f168201915b505050505081526020016002820160009054906101000a900473ffffffffffffffffffffffffffffffffffffffff1673ffffffffffffffffffffffffffffffffffffffff1673ffffffffffffffffffffffffffffffffffffffff168152602001600382015481526020016004820160009054906101000a900460030b60030b60030b81526020016004820160049054906101000a900460030b60030b60030b8152602001600582015481526020016006820154815250509150610c1e565b5b8080600101915050610a3f565b81602001518260400151836060015184608001518560a001518660c001518760e00151869650995099509950995099509950995050505092959891949750929550565b6000809054906101000a900473ffffffffffffffffffffffffffffffffffffffff1673ffffffffffffffffffffffffffffffffffffffff163373ffffffffffffffffffffffffffffffffffffffff16141515610cbc57600080fd5b600073ffffffffffffffffffffffffffffffffffffffff168173ffffffffffffffffffffffffffffffffffffffff1614151515610cf857600080fd5b8073ffffffffffffffffffffffffffffffffffffffff166000809054906101000a900473ffffffffffffffffffffffffffffffffffffffff1673ffffffffffffffffffffffffffffffffffffffff167f8be0079c531659141344cd1fd0a4f28419497f9722a3daafe3b4186f6b6457e060405160405180910390a3806000806101000a81548173ffffffffffffffffffffffffffffffffffffffff021916908373ffffffffffffffffffffffffffffffffffffffff16021790555050565b6060600080600080600080610dc9610fa3565b6001805490508911151515610ddd57600080fd5b600189815481101515610dec57fe5b9060005260206000209060070201610100604051908101604052908160008201548152602001600182018054600181600116156101000203166002900480601f016020809104026020016040519081016040528092919081815260200182805460018160011615610100020316600290048015610eaa5780601f10610e7f57610100808354040283529160200191610eaa565b820191906000526020600020905b815481529060010190602001808311610e8d57829003601f168201915b505050505081526020016002820160009054906101000a900473ffffffffffffffffffffffffffffffffffffffff1673ffffffffffffffffffffffffffffffffffffffff1673ffffffffffffffffffffffffffffffffffffffff168152602001600382015481526020016004820160009054906101000a900460030b60030b60030b81526020016004820160049054906101000a900460030b60030b60030b815260200160058201548152602001600682015481525050905080602001518160400151826060015183608001518460a001518560c001518660e00151869650975097509750975097509750975050919395979092949650565b610100604051908101604052806000815260200160608152602001600073ffffffffffffffffffffffffffffffffffffffff16815260200160008152602001600060030b8152602001600060030b8152602001600081526020016000815250905600a165627a7a72305820f44e3fa61fb748bb6375401c1cac8fa98aebe9beaf9f05a7da4557c74ef8f0400029",
  "source": "pragma solidity ^0.4.17;\n\nimport 'zeppelin-solidity/contracts/ownership/Ownable.sol';\n\ncontract IncroSpon is Ownable{ \n    //string public name = 'Incro-Sponsor';\n\n    Campaign[] campaigns;\n    Sponsor[] sponsors;\n    Participant[] participants;\n    EventRec[] eventrecs;\n\n    struct Campaign {\n        uint256 camp_id;        // 1\n        string name;            // 2\n        address started_by;     // 3\n        uint256 end_date;       // 4\n        int32 unit_goal;        // 5\n        int32 unit_so_far;      // 6\n        uint256 wei_paid_out;   // 7\n        uint256 wei_in_escrow;  // 8\n    }\n\n    struct Sponsor {\n        address addr_spon;      // 1\n        uint256 camp_id;        // 2\n        address addr_part;      // 3\n        address addr_pay_to;    // 4\n        int8 unit;              // 5\n        uint256 wei_per_unit;   // 6\n        uint256 wei_in_escrow;  // 7\n    }\n\n    struct Participant {\n        address addr_part;      // 1\n        uint256 camp_id;        // 2\n        string name_part;       // 3\n        int8 unit;              // 4\n        int32 unit_goal;        // 5\n        uint256 date_start;     // 6\n        uint256 date_end;       // 7\n    }\n\n    struct EventRec {\n        uint256 camp_id;        // 1\n        address addr_part;      // 2\n        address addr_spon;      // 3\n        uint256 date_event;     // 4\n        int8 unit;              // 5\n        int32 qty_unit;         // 6\n        uint256 wei_paid;       // 7\n    }\n\n\n    function getCampaignsLen() view external returns(uint256){\n        return campaigns.length;\n    }\n\n\n    function getCampaign_rec( uint256 _camp_id ) public view returns( string, address, uint256, int32, int32, uint256, uint256 ) {\n        require( _camp_id <= campaigns.length );\n        Campaign memory cr = campaigns[_camp_id];\n        return ( cr.name, cr.started_by, cr.end_date, cr.unit_goal, cr.unit_so_far, cr.wei_paid_out, cr.wei_in_escrow );\n    }\n\n\n\n    // function setCampaign_rec( string _mfg, string _sn) external returns(uint256 _recNum){\n        //having problems with require ... getting rpc error\n        // require( msg.sender == storeOwner );\n        // require( (bytes(_mfg).length<=50) && (bytes(_sn).length<=50) );\n        // uint256 recNum = nextRecNum++;\n        //next line returns a pointer to the location to write to\n        //it should automatically generate a new address based on the mapping\n\n        //try now with constructor\n        // bikeRecAll[recNum] = bikeRec( msg.sender, _mfg, _sn );\n        // return recNum;\n    // }   \n\n\n    function getSponsorsLen() view external returns(uint256){\n        return sponsors.length;\n    }\n\n\n    //this function will return how many sponsors for a campaign\n    function getNumSponsorsForCampaign( uint256 _camp_id ) public view returns( uint256 )  {\n        require( _camp_id <= campaigns.length );\n        uint256 numMatches = 0;\n        for(uint256 i=0; i<= sponsors.length; i++)\n        {\n            if (sponsors[i].camp_id == _camp_id )  numMatches++;\n        }  \n        return numMatches;        \n    }\n\n\n    function getSponsorInCampaign_rec( uint256 _camp_id, uint256 _matchNum ) \n    public view returns( string, address, uint256, int32, int32, uint256, uint256 ) {\n        //this will return a matching record for a sponsor, which is the _matchNum\n        // can find out the number of matching items by running the getNum function\n        require( _camp_id <= campaigns.length );\n        uint256 numMatches = 0;\n        Campaign memory cr;\n        for(uint256 i=0; i<= sponsors.length; i++)\n        {\n            if (sponsors[i].camp_id == _camp_id )  {\n                numMatches++;\n                if (numMatches == _matchNum) {\n                    cr = campaigns[_camp_id];\n                    break;\n                }\n            }\n        }    \n        return ( cr.name, cr.started_by, cr.end_date, cr.unit_goal, cr.unit_so_far, cr.wei_paid_out, cr.wei_in_escrow );\n    }\n    \n    \n    function getParticipantsLen() view external returns(uint256){\n        return participants.length;\n    }\n\n\n    function getNumParticipantForCampaign( uint256 _camp_id ) public view returns( uint256 )  {\n        //this function will return how many participants for a campaign\n        require( _camp_id <= campaigns.length );\n        uint256 numMatches = 0;\n        for(uint256 i=0; i<=participants.length; i++)\n        {\n            if (participants[i].camp_id == _camp_id )  numMatches++;\n        }  \n        return numMatches;        \n    }\n\n\n    function getParticipantInCampaign_rec( uint256 _camp_id, uint256 _matchNum ) \n    public view returns( string, address, uint256, int32, int32, uint256, uint256 ) {\n        //this will return a matching record for a participant, which is the _matchNum\n        // can find out the number of matching items by running the getNum function\n        require( _camp_id <= campaigns.length );\n        uint256 numMatches = 0;\n        Campaign memory cr;\n        for(uint256 i=0; i<= participants.length; i++)\n        {\n            if (sponsors[i].camp_id == _camp_id )  {\n                numMatches++;\n                if (numMatches == _matchNum) {\n                    cr = campaigns[_camp_id];\n                    break;\n                }\n            }\n        }    \n        return ( cr.name, cr.started_by, cr.end_date, cr.unit_goal, cr.unit_so_far, cr.wei_paid_out, cr.wei_in_escrow );\n    }\n\n\n    function getEventRecsLen() view external returns(uint256){\n        return eventrecs.length;\n    }\n\n\n    function getNumEventsForCampaign( uint256 _campID ) public view returns( uint256 )  {\n        //get number of matching event records for a campaign\n        require( _campID <= campaigns.length );\n        uint256 numMatches = 0;\n        for(uint256 i=0; i<= eventrecs.length; i++)\n        {\n            if ( eventrecs[i].camp_id == _campID )  numMatches++;\n        }  \n        return numMatches;        \n    }\n\n\n}\n",
  "sourcePath": "/Users/richardbudek/Documents/Data/Proj-Blockchain/git_location/IncroSpon/contracts/IncroSpon.sol",
  "compiler": {
    "name": "solc",
    "version": "0.4.24+commit.e67f0147.Emscripten.clang"
  },
  "schemaVersion": "2.0.0",
  "updatedAt": "2018-06-02T16:03:25.058Z"
}